:020000040800F2
:100000007006002089010008910100089301000892
:100010009501000897010008990100080000000000
:100020000000000000000000000000009B0100082C
:100030009D010008000000009F01000871030008F6
:10004000A3010008A3010008A3010008A301000800
:10005000A3010008A3010008A3010008A3010008F0
:10006000A3010008A3010008A3010008A3010008E0
:10007000A3010008A3010008A3010008A3010008D0
:10008000A3010008A3010008A3010008A3010008C0
:10009000A3010008A3010008A3010008A3010008B0
:1000A000A3010008A3010008A3010008A3010008A0
:1000B000A3010008A3010008A3010008A301000890
:1000C000A3010008A3010008A3010008A301000880
:1000D000A3010008A3010008A3010008A301000870
:1000E000A3010008A3010008A301000800F002F822
:1000F00000F03AF80AA090E8000C82448344AAF188
:100100000107DA4501D100F02FF8AFF2090EBAE885
:100110000F0013F0010F18BFFB1A43F0010318473B
:100120005404000074040000103A24BF78C878C159
:10013000FAD8520724BF30C830C144BF04680C60ED
:10014000704700000023002400250026103A28BF35
:1001500078C1FBD8520728BF30C148BF0B60704739
:100160001FB51FBD10B510BD00F031F81146FFF7E7
:10017000F7FF00F0A3F900F04FF803B4FFF7F2FF28
:1001800003BC00F057F800000948804709480047C1
:10019000FEE7FEE7FEE7FEE7FEE7FEE7FEE7FEE737
:1001A000FEE7FEE704480549054A064B7047000094
:1001B00095030008ED000008700000207006002084
:1001C000700200207002002070477047704775462B
:1001D00000F02CF8AE4605006946534620F00700B3
:1001E000854618B020B5FFF7DDFFBDE820404FF091
:1001F00000064FF000074FF000084FF0000BAC4630
:10020000ACE8C009ACE8C009ACE8C009ACE8C0097A
:1002100021F007018D46704710B50446AFF300800A
:100220002046BDE81040FFF7A8BF00000048704717
:100230000800002001491820ABBEFEE7260002009E
:100240007047000080B500F001F880BD83B0002049
:100250000290019041F20000C4F20200016841F4F2
:1002600080310160FFE741F20000C4F20200006843
:1002700000F400300190029801300290FFE70198ED
:1002800000210028009107D1FFE70298B0F5A06097
:1002900018BF01200090FFE70098C0070028E2D1B6
:1002A000FFE741F20000C4F202000068800300286A
:1002B00003D5FFE70120019002E000200190FFE755
:1002C0000198012850D1FFE742F20000C4F2020079
:1002D000016841F010010160016821F00301016033
:1002E000016841F00201016041F20400C4F2020021
:1002F0000168016001680160016841F4806101608A
:10030000016821F47C110160016841F4E811016089
:1003100041F20000C4F20200016841F08071016006
:10032000FFE741F20000C4F20200006880010028EB
:1003300001D4FFE7F5E741F20400C4F202000168CE
:1003400021F003010160016841F002010160FFE753
:1003500041F20400C4F20200006800F00C0008281A
:1003600001D0FFE7F4E700E0FFE703B070470000CB
:1003700040F26800C2F200000068002808D0FFE7E1
:1003800040F26800C2F20000016801390160FFE735
:100390007047000080B541F20000C4F2020001681D
:1003A00041F00101016041F20401C4F202010A6856
:1003B0000023CFF6FF031A400A6002684FF6FF736E
:1003C000CFF6F6631A400260026822F480220260CF
:1003D000086820F4FE00086041F20800C4F2020040
:1003E0004FF41F010160FFF72DFF4EF60850CEF2CB
:1003F00000004FF00061016080BD000082B0024645
:100400008DF8070000919DF9070000280AD4FFE746
:10041000009800019DF907104EF20042CEF2000252
:1004200088540BE0009800019DF8071001F00F01BF
:100430004EF61452CEF200028854FFE702B0704725
:1004400080B582B00190FFE70198411E019100281C
:1004500005D0FFE74FF47A7000F004F8F4E702B03B
:1004600080BD000081B00090009840F26801C2F2A7
:1004700000010860FFE740F26800C2F20000006877
:10048000002801D0FFE7F6E701B0704780B541F2E0
:100490001800C4F20200016841F01001016041F24D
:1004A0000400C4F20100016841F4401101600168D8
:1004B00021F44001016000F01FF880BD80B584B0D8
:1004C00000200390FFF7E2FFFFE741F20C00C4F2C7
:1004D0000100016841F4005101604FF47A7102900B
:1004E00008460191FFF7ACFF02980168C9B20160AC
:1004F0000198FFF7A5FFE8E780B584B040F200005F
:10050000C2F2000000684DF68361C4F21B31A0FB0B
:100510000101890C03914EF21001CEF2000100227C
:100520000A60039B013B4EF2140CCEF2000CCCF897
:1005300000304FF0FF334FF00F0C0290184601913E
:1005400061460092FFF75AFF4EF21800CEF200000B
:10055000009901600198026842F00402026002689A
:1005600042F002020260026842F00102026004B03E
:1005700080BD000098050008000000200800000071
:1005800028010008A00500080800002068060000F7
:10059000440100080000000000A24A04000000001E
:04000005080000ED02
:00000001FF
