:020000040800F2
:100000000006002029010008310100083301000822
:100010003501000837010008390100080000000020
:100020000000000000000000000000003B0100088C
:100030003D010008000000003F01000841010008E8
:100040004301000843010008430100084301000880
:100050004301000843010008430100084301000870
:100060004301000843010008430100084301000860
:100070004301000843010008430100084301000850
:100080004301000843010008430100084301000840
:100090004301000843010008430100084301000830
:1000A0004301000843010008430100084301000820
:1000B0004301000843010008430100084301000810
:1000C0004301000843010008430100084301000800
:1000D00043010008430100084301000843010008F0
:1000E00043010008430100084301000800F003F841
:1000F00000F00EF8FCE70949886940F010008861BB
:100100000749086840F4401020F440000860704738
:100110000449086840F480500860704700100240AD
:10012000041001400C10014009488047094800476D
:10013000FEE7FEE7FEE7FEE7FEE7FEE7FEE7FEE797
:10014000FEE7FEE704480549054A064B70470000F4
:100150009D020008ED0000080000002000060020BD
:100160000002002000020020704770477047000026
:1001700080B500F001F880BD83B0002002900190AE
:1001800041F20000C4F20200016841F480310160D4
:10019000FFE741F20000C4F20200006800F4003002
:1001A0000190029801300290FFE701980021002899
:1001B000009107D1FFE70298B0F5A06018BF0120B9
:1001C0000090FFE70098C0070028E2D1FFE741F266
:1001D0000000C4F2020000688003002803D5FFE796
:1001E0000120019002E000200190FFE70198012822
:1001F00050D1FFE742F20000C4F20200016841F072
:1002000010010160016821F003010160016841F003
:100210000201016041F20400C4F2020001680160C1
:1002200001680160016841F480610160016821F4A6
:100230007C110160016841F4E811016041F20000A5
:10024000C4F20200016841F080710160FFE741F2F1
:100250000000C4F2020000688001002801D4FFE71A
:10026000F5E741F20400C4F20200016821F0030145
:100270000160016841F002010160FFE741F2040002
:10028000C4F20200006800F00C00082801D0FFE76B
:10029000F4E700E0FFE703B07047000080B541F2EB
:1002A0000000C4F20200016841F00101016041F266
:1002B0000401C4F202010A680023CFF6FF031A40CA
:1002C0000A6002684FF6FF73CFF6F6631A400260C9
:1002D000026822F480220260086820F4FE000860B0
:1002E00041F20800C4F202004FF41F010160FFF761
:1002F0003FFF4EF60850CEF200004FF00061016063
:0403000080BD0000BC
:04000005080000ED02
:00000001FF
