:020000040800F2
:10000000680600208901000891010008930100089A
:100010009501000897010008990100080000000000
:100020000000000000000000000000009B0100082C
:100030009D010008000000009F010008A1010008C8
:10004000A3010008A3010008A3010008A301000800
:10005000A3010008A3010008A3010008A3010008F0
:10006000A3010008A3010008A3010008A3010008E0
:10007000A3010008A3010008A3010008A3010008D0
:10008000A3010008A3010008A3010008A3010008C0
:10009000A3010008A3010008A3010008A3010008B0
:1000A000A3010008A3010008A3010008A3010008A0
:1000B000A3010008A3010008A3010008A301000890
:1000C000A3010008A3010008A3010008A301000880
:1000D000A3010008A3010008A3010008A301000870
:1000E000A3010008A3010008A301000800F002F822
:1000F00000F03AF80AA090E8000C82448344AAF188
:100100000107DA4501D100F02FF8AFF2090EBAE885
:100110000F0013F0010F18BFFB1A43F0010318473B
:10012000E404000004050000103A24BF78C878C138
:10013000FAD8520724BF30C830C144BF04680C60ED
:10014000704700000023002400250026103A28BF35
:1001500078C1FBD8520728BF30C148BF0B60704739
:100160001FB51FBD10B510BD00F031F81146FFF7E7
:10017000F7FF00F01DFA00F04FF803B4FFF7F2FFAD
:1001800003BC00F057F800000948804709480047C1
:10019000FEE7FEE7FEE7FEE7FEE7FEE7FEE7FEE737
:1001A000FEE7FEE704480549054A064B7047000094
:1001B00025050008ED000008680000206806002002
:1001C000680200206802002070477047704775463B
:1001D00000F02CF8AE4605006946534620F00700B3
:1001E000854618B020B5FFF7DDFFBDE820404FF091
:1001F00000064FF000074FF000084FF0000BAC4630
:10020000ACE8C009ACE8C009ACE8C009ACE8C0097A
:1002100021F007018D46704710B50446AFF300800A
:100220002046BDE81040FFF7A8BF00000048704717
:100230000800002001491820ABBEFEE7260002009E
:100240007047000081B0009040F68060CEF2000060
:100250000068C007002817D0FFE740F60060CEF224
:1002600000000068C00700280ED0FFE7FFE74FF04E
:1002700060400068002802D1FFE700BFF7E7009860
:100280004FF060410870FFE7009801B07047000030
:1002900082B00A4601908DF803109DF803000028F3
:1002A00009D0FFE7019841F21801C4F202010A687F
:1002B0001043086009E0019841F21801C4F20201FC
:1002C0000A6822EA00000860FFE702B070470000F9
:1002D00080B500F001F880BD83B00020029001904D
:1002E00041F20000C4F20200016841F48031016073
:1002F000FFE741F20000C4F20200006800F40030A1
:100300000190029801300290FFE701980021002837
:10031000009107D1FFE70298B0F5A06018BF012057
:100320000090FFE70098C0070028E2D1FFE741F204
:100330000000C4F2020000688003002803D5FFE734
:100340000120019002E000200190FFE701980128C0
:1003500050D1FFE742F20000C4F20200016841F010
:1003600010010160016821F003010160016841F0A2
:100370000201016041F20400C4F202000168016060
:1003800001680160016841F480610160016821F445
:100390007C110160016841F4E811016041F2000044
:1003A000C4F20200016841F080710160FFE741F290
:1003B0000000C4F2020000688001002801D4FFE7B9
:1003C000F5E741F20400C4F20200016821F00301E4
:1003D0000160016841F002010160FFE741F20400A1
:1003E000C4F20200006800F00C00082801D0FFE70A
:1003F000F4E700E0FFE703B07047000084B000209E
:1004000003900290019041F20400C4F202000068DF
:1004100000F00C00039003980028009008D0FFE73C
:10042000009804280ED0FFE70098082814D057E061
:1004300040F20000C2F2000041F20021C0F27A0155
:10044000016057E040F20000C2F2000041F20021DA
:10045000C0F27A0101604DE041F20400C4F20200F2
:10046000016801F470110291006800F4803001907D
:100470000298022101EB90400290019800280CD1D3
:10048000FFE7029840F60011C0F23D01484340F2F8
:100490000001C2F20001086021E041F20400C4F250
:1004A00002000068800300280CD5FFE7029840F6A0
:1004B0000011C0F23D01484340F20001C2F20001C8
:1004C00008600BE0029841F20021C0F27A01484333
:1004D00040F20001C2F200010860FFE7FFE709E017
:1004E00040F20000C2F2000041F20021C0F27A01A5
:1004F0000160FFE741F20400C4F202000068C0B2EC
:10050000000940F2F251C0F60001085C0390039824
:1005100040F20001C2F200010A6822FA00F008600D
:1005200004B0704780B541F20000C4F202000168D7
:1005300041F00101016041F20401C4F202010A68C4
:100540000023CFF6FF031A400A6002684FF6FF73DC
:10055000CFF6F6631A400260026822F4802202603D
:10056000086820F4FE00086041F20800C4F20200AE
:100570004FF41F010160FFF7ABFE4EF60850CEF2BC
:1005800000004FF00061016080BD000041F21800E2
:10059000C4F20200016841F01001016041F2040060
:1005A000C4F2010044F24441C4F234410160704796
:1005B00080B584B000200390FFF720FF08200121C0
:1005C000FFF766FEFFF7E2FFFFE741F20C00C4F21F
:1005D0000100016841F40051016061210290084668
:1005E000FFF730FE02990A6822F400520A60019077
:1005F000EBE7000000000000000001020304060712
:10060000080900002806000800000020080000007B
:1006100028010008300600080800002060060000DD
:10062000440100080000000000A24A04000000008D
:04000005080000ED02
:00000001FF
