:020000040800F2
:10000000B84E0020350200083D0200083F020008FB
:1000100041020008430200084502000800000000F9
:10002000000000000000000000000000A11900080E
:100030004902000800000000A1170008F11A00089A
:100040004F0200084F0200084F0200084F0200084C
:100050004F0200084F0200084F0200084F0200083C
:100060004F0200084F0200084F0200084F0200082C
:100070004F0200084F0200084F0200084F0200081C
:100080004F0200084F0200084F0200084F0200080C
:100090004F0200084F0200084F0200084F020008FC
:1000A0004F0200084F0200084F0200084F020008EC
:1000B0004F0200084F0200084F0200084F020008DC
:1000C0004F0200084F0200084F0200084F020008CC
:1000D0004F0200084F0200084F0200084F020008BC
:1000E0004F0200084F0200084F02000800F002F81B
:1000F00000F090F80AA090E8000C82448344AAF132
:100100000107DA4501D100F085F8AFF2090EBAE82F
:100110000F0013F0010F18BFFB1A43F0010318473B
:100120002858000048580000103A24BF78C878C109
:10013000FAD8520724BF30C830C144BF04680C60ED
:10014000704700000023002400250026103A28BF35
:1001500078C1FBD8520728BF30C148BF0B60704739
:100160006E2900F0AB81702900F0ED82662905F060
:100170002983652905F02683672905F023836129F2
:1001800005F0228303681B0A28BF41F0800169291A
:1001900000F05881642900F05581752900F05281E2
:1001A0006F2900F07B82782900F0B982E92900F0FC
:1001B0001582E42900F01282F52900F00F82EF2960
:1001C00000F07882F82900F0B8820368DB0928BFC4
:1001D00041F08001632901F01380732901F0188038
:1001E000E32901F02380F32901F0288000207047E3
:1001F0001FB501F079F804000020002105F0CCFAC9
:10020000401C60600020002105F0B0FAE0601FBDD6
:1002100010B510BD01F03AF81146FFF7E9FF01F003
:10022000EBFD01F017F903B4FFF7F2FF03BC01F097
:100230005FF900000948804709480047FEE7FEE7EC
:10024000FEE7FEE7FEE7FEE7FEE7FEE7FEE7FEE786
:1002500004480549054A064B70470000311B000859
:10026000ED000008B8460020B84E0020B84A002033
:10027000B84A00200FB41CB5084B06AA7B44694657
:100280000090059800F033F904460020694600F01C
:1002900041F920461CBC5DF814FB000095020000EB
:1002A00010B5431C02E010F8011B71B18107FAD1AF
:1002B0004FF0013202C88C1A8C4314EAC211F9D0F3
:1002C000C01A0A0603D0C01E10BDC01A10BD0A0411
:1002D00001D0801E10BD0902FCD0401E10BD032AB3
:1002E00040F2308010F0030C00F0158011F8013B53
:1002F000BCF1020F624498BF11F801CB00F8013B3A
:1003000038BF11F8013BA2F1040298BF00F801CBFD
:1003100038BF00F8013B11F0030300F0E382083A14
:10032000C0F0088051F8043B083A51F804CBA0E82B
:100330000810F5E7121D5CBF51F8043B40F8043B80
:10034000AFF30080D20724BF11F8013B11F801CBB5
:1003500048BF11F8012B24BF00F8013B00F801CB86
:1003600048BF00F8012B704702F0FF0343EA032265
:1003700042EA024200F0EABA70477047704770B52F
:10038000044685690068C10601D5302600E02026B4
:10039000C00707D070BDD4E9012130469047206ADC
:1003A000401C20626D1EF6D570BD70B5044685698F
:1003B0000078C00707D170BDD4E901212020904703
:1003C000206A401C20626D1EF6D570BD09684A0582
:1003D00001D540B27047C905FCD500B27047096825
:1003E0004A0501D5C0B27047C905FCD580B2704737
:1003F00070B50C460546012A05D02878800600D540
:10040000EA69002302E0012305E05B1C934202D26B
:10041000E05C0028F9D1A869E618C01AA861286A2A
:10042000184428622846FFF7AAFF04E0D5E9012115
:1004300014F8010B9047B442F8D32846FFF7B5FFF4
:1004400070BD00002DE9F0410646002410687529B2
:10045000314616A510D0FFF7B9FF002802DA404256
:1004600013A507E031688A0701D512A502E0490704
:1004700004D511A5012401E0FFF7B1FF00210A22F4
:1004800006F1240709E0B0FBF2FCB0FBF2F302FB3B
:100490001C00303078541846491C0028F3D12346FC
:1004A0002A463046BDE8F04100F0BABA000000002C
:1004B0002D0000002B0000002000000011680268E1
:1004C000006A530501D508700AE0D30501D50880FC
:1004D00006E0130603D5C217C1E9000200E0086078
:1004E0000120704701694A1C02610878704700B515
:1004F0008FB0CDE901310021059105497944CDE95D
:1005000003101146684600F029F90FB000BD000045
:10051000E5FFFFFF0A6802F8010B0A607047000060
:100520002DE9FF5F15468A460446DFF8AC80F844A3
:100530000027D8E900103E46CDE9001010E03AF857
:1005400016106A4602A800F07DFE411C07D02178F3
:10055000890603D5E269391891420DD80744761C03
:100560002078800602D5E069B84205DDAE42E6DBC0
:100570003AF816000028E2D1A069C01BA06120460D
:10058000FFF7FDFED8E90010CDE90010002017E0CC
:100590003AF818106A4602A800F054FEB0F1FF3F86
:1005A00081460BD000250DF1080B05E0D4E90121AF
:1005B0001BF8050090476D1C4D45F7D308F101006D
:1005C000B0428046E4DB206A384420622046FFF7D0
:1005D000ECFEBDE8FF9F00009A5200002DE9F041BB
:1005E0008046D21D22F007020025D2E90002F5293B
:1005F00015A614D0011E72F1000106DA0023D0EB1B
:10060000030063EB020211A608E0D8F800108B0784
:1006100001D50FA602E0490701D50EA60125114616
:10062000002408F1240704E000F0B5F930323A550F
:10063000641C50EA0102F7D12B463246214640465F
:10064000BDE8F04100F0ECB9000000002D00000012
:100650002B0000002000000030B4002100F1240431
:1006600008E002F00705D208303542EA4372DB08A1
:100670006554491C52EA0305F3D10468002310A213
:10068000250708D504F020040C4304D0C4690123D5
:100690000CA2641EC46130BC00F0C2B910B504469F
:1006A00021461068FFF79BFE02462046BDE8104039
:1006B0000023D1E7D21D22F00701D1E90023CBE7C7
:1006C0000000000030000000F0B40D46018809056C
:1006D00002D5214C7C4402E01F4C7C440E340021A6
:1006E00000F1240608E002F00F071209E75D42EA74
:1006F00003721B097754491C52EA0307F3D10278AD
:100700000023120704D5702D06D009B1022311343D
:100710002246F0BC00F084B901231034F8E770B52C
:1007200004460D4621461068FFF759FE0246294649
:100730002046BDE870400023C6E7D21D22F0070323
:10074000D3E90023C0E70368126843F02003036085
:100750000823C3610023B7E7FC5000002DE9F05FD8
:10076000894604464FF0000ADFF874B1FB44C0F834
:1007700020A02046E1688847002874D0252806D0AC
:10078000D4E901219047206A401C2062F1E700264D
:100790005F462046E16888472028054607DB312D63
:1007A00005D2781910F8200C08B10643F1E7B0071C
:1007B00001D526F00406C4F81CA00027C4F818A030
:1007C0002A2D09D0284604F0CAFF38B304EB870865
:1007D000303DC8F8185019E059F8041B204604EBC6
:1007E00087029161E1688847012F054618D1E069C9
:1007F000002820DA26F020061DE0D8F8180000EBCB
:10080000800005EB40003038C8F818002046E16849
:100810008847054604F0A3FF0028EED1012F0AD037
:100820002E2D08D12046E16888477F1C0546022FFF
:1008300046F02006C4DBA069002803DA404246F0F7
:100840000106A061F00701D026F010066C2D0BD038
:10085000682D09D04C2D39D06A2D35D0742D35D066
:100860007A2D33D016E038E0E1682F4620468847DD
:10087000B842054609D16C2F26D04FF48060E1685C
:10088000064320468847054604E06C2F1AD04FF4F3
:10089000807006430DB3A5F14100192802D8203518
:1008A00046F400664A462946204626604E46FFF733
:1008B00057FC80B101280BD0F61D26F0070000F18F
:1008C000080956E74020E4E78020D8E70020D6E773
:1008D00006F104094DE7284652E7206ABDE8F09F7B
:1008E0008C50000010B5203AC0F00B80B1E81850D1
:1008F000A0E81850B1E81850A0E81850203ABFF40A
:10090000F5AF5FEA027C24BFB1E81850A0E81850A8
:1009100044BF18C918C0BDE810405FEA827C24BFFC
:1009200051F8043B40F8043B08BF7047D20728BF8A
:1009300031F8023B48BF11F8012B28BF20F8023BD9
:1009400048BF00F8012B70474FF0000200B5134676
:1009500094469646203922BFA0E80C50A0E80C50DF
:10096000B1F12001BFF4F7AF090728BFA0E80C5090
:1009700048BF0CC05DF804EB890028BF40F8042B89
:1009800008BF704748BF20F8022B11F0804F18BFF6
:1009900000F8012B704730B5B0F10A0271F1000385
:1009A0004FEA900E4EEA817EB0EB0E0061EB9101B2
:1009B0004FEA101E4EEA017E10EB0E0041EB1111C2
:1009C0004FEA102E4EEA016E10EB0E0041EB1121A2
:1009D0004FEA104E4EEA014E10EB0E0041EB114172
:1009E000401841F100014FEAD00040EA41704FEA5F
:1009F000D1014FEA810444EA907410EB800544EB86
:100A000001046D1944EB0404521BA3414FF0000391
:100A100048BF0A3200D530BD401C41F1000130BD55
:100A20002DE9F0470D4699469246044600F1240808
:100A30000168880604D5E06921F01001216000E01A
:100A40000120A84201DD471B00E00027A1697A19B7
:100A500002EB0900081AA0612078C00602D42046E3
:100A6000FFF78DFC002608E0D4E901211AF8060002
:100A70009047206A401C761C20624E45F4DB2078AB
:100A8000C0060AD52046FFF77AFC06E0D4E901212A
:100A900030209047206A401C2062381EA7F10107D1
:100AA000F4DC07E0D4E9012118F805009047206A3A
:100AB000401C2062281EA5F10105F3DC2046FFF74B
:100AC00074FC2078000602D50220BDE8F0870120E2
:100AD000FBE72DE9FF4F0C461E464FF0FF378BB06A
:100AE000D2E90001DDF860800A908A46C1F30A5518
:100AF00005B93D46002108464FF00000BAF1000F4D
:100B000000F4400005DA00EB80004FF4400101EAF8
:100B100050004FEA9059B9F1010F00DDB9460A982B
:100B200050EA4A000ED044F61050A5F2FF35454376
:100B30002F14B8F1000F1ED07542291E1EDDC9F119
:100B400000021CE0B8F1010F4FF0000001D030218D
:100B500003E0F24305E02154401CB042FBDB304689
:100B60000022002121540B99C1F80880C1E900201E
:100B70000FB0BDE8F08FBD1B6D1CDEE74A4600DA02
:100B8000694206A800F0F4FB06AB93E8070003AB4C
:100B900083E8070050460A9904F005FA8DE807003B
:100BA000A0F500501F3800900398002D0ADD42F296
:100BB0001F014A460844002303A90390684604F035
:100BC0006EFC09E0A0F500504A461F38002303A937
:100BD0000390684604F078FC8DE807000004000CE0
:100BE00003D04FF0FF30410800E01046B8F1000F8D
:100BF00003D00022009215461EE0751E05D4FFF7B3
:100C0000CAFE303262556D1EF9D5B3460122084343
:100C100002D000227F1C04E02078302801D100227D
:100C20007F1E002A099784D01DE0112D07DAFFF7F7
:100C3000B2FE303262556D1C50EA0102F5D1084314
:100C400002D00098C8B10EE00021681E05E0235CC8
:100C5000625C63542254401E491C8142F7DBAB4660
:100C6000A81B401E0990002004F80B000B98099A5D
:100C7000C0F80880C0E9002B7AE711264FF0000881
:100C800057E72DE9F04F88460446D21D22F00701B0
:100C900091B0D1E90001CDE90A0104F04CFD024612
:100CA0000B98C00F01D02D2007E02068810701D5E7
:100CB0002B2002E0202101EAC000032A099001D084
:100CC000072A05DB03464146204600F011FB0BE1F5
:100CD0002078800601D5E06900E00620B8F1650FB4
:100CE000814606D0B8F1660F18D0B8F1670F70D101
:100CF00031E00020B9F1110F009001DB112301E078
:100D000009F101030AAA01A90CA8FFF7E2FEDDE937
:100D10000C70002609F10105834647E001204B468F
:100D200000904FF000470AAA01A90CA8FFF7D1FED6
:100D3000DDE90DB00C995D46002610B909F10100FE
:100D40000D18B9EB050003D4C0F1FF3609F1010518
:100D5000A5EB09002BE0B9F1010F01DA4FF0010911
:100D60000020B9F1110F0090484601DD112300E089
:100D700003460AAA01A90CA8FFF7ABFEDDE90C7037
:100D80004D4600268346207800070AD4AB4500DA9A
:100D90005D4601A8012D04DD411911F8011C30291F
:100DA00007D04F4502DA17F1040F04DA012082461A
:100DB0000FE06D1EEEE7002F02DCED1B3E4403E06A
:100DC000781CA84200DD7D1CB81B00F1010A4FF021
:100DD00000472078000703D4AA4501DB4FF0FF3A13
:100DE0000021B7F1004F0DF143088DF8431024D0D6
:100DF00002202B23002F01DA7F422D230A21021E1D
:100E0000A0F1010000DC5FB197FBF1FC97FBF1F270
:100E100001FB1C7C17460CF1300C08F801CDEEE705
:100E2000A8F1010003702188090501D5452100E0E2
:100E30006521A0F1010800F8011C09980FA9A1EB98
:100E40000807FF1D00B10120411901EBEA70A169FB
:100E50003844081A401EA0612078C00602D42046FB
:100E6000FFF78DFA099828B1D4E901219047206A4B
:100E7000401C20622078C00622D52046FFF77FFA6A
:100E80001EE0002E04DBB34502DD01A8805D00E01A
:100E90003020D4E901219047206A401C2062761C52
:100EA000AAF101005FEA000A0AD100F01DFAC06849
:100EB0000168405CD4E901219047206A401C20620F
:100EC000281EA5F10105DCDC07E0D4E9012118F8B2
:100ED000010B9047206A401C2062381EA7F10107D1
:100EE000F3DC2046FFF761FA032011B041E6000071
:100EF0002DE9F04F04460D46D21D22F0070089B0BF
:100F0000D0E900974846394604F015FC0246F80F30
:100F100001D02D2307E02068810701D52B2302E0B3
:100F2000202101EAC0038DF820300BB1012000E040
:100F30000020032A824601D0072A04DB29462046E6
:100F400000F0D6F93FE12078800601D40D2500E0BD
:100F5000E569C7F30A560D2D49DA00214FEA175B00
:100F600008464FF00000002F00F4400007DA00EBC5
:100F700080004FF4400100EBD07001EA6000811561
:100F8000012901DD4FF0FF3100224FEA850CBCF151
:100F9000180F06D31346ACF118004FF08052C24030
:100FA00003E04FF4801323FA0CF30CF10C0CBCF1AA
:100FB000200F04D3ACF1200C09FA0CF001E007FA81
:100FC0000CF000294FF0004801DD18B90FE00ED1F8
:100FD00040450CD319EB02095F4121B9404502D1CC
:100FE0009F4329EA0209BBEB175F00D0761C2088DB
:100FF000000502D57B48784402E07A4878441938E5
:1010000008AA302302F80A30037C0AF10101002EFD
:101010000AF1020A53546A4602DC4FF0300101E043
:101020004FF031014FF001088DF8001002D0A6F208
:10103000FF3603E059EA470100D06B4E002D02DC79
:101040002178090704D54FF002082E218DF80110F0
:10105000C44600210BE0C7F303433F01C35C491CB6
:101060006D1E02F80830052908F1010801DA002D8B
:10107000F1DC00210CE000EB1973491C1B786D1E9C
:10108000082902F808304FEA091908F1010801DAC5
:10109000002DF0DC21688B0602D516E0A8F10108CE
:1010A000E04505DD02EB080313F8013C302BF5D0D9
:1010B000B8F1000F09DD02EB080313F8013C2E2BF9
:1010C00003D1090701D4A8F10108002D05DD3E2157
:1010D00002F808106D1E08F10108407C002E02F88D
:1010E000080008F1010804DA2D20764202F8080011
:1010F00002E02B2002F808000A214FF47A708642A1
:1011000008F101080BDB96FBF0F3303302F80830EE
:1011100096FBF0F308F1010800FB136601E0642E72
:101120000CDB642096FBF0F3303302F8083096FBBA
:10113000F0F308F1010800FB136601E00A2E06DB5C
:1011400096FBF1F0303002F8080008F1010896FB38
:10115000F1F001FB1060303002F80800A16908F1DD
:10116000010808EB050202EB0A00081AA0612078CA
:10117000C00602D42046FFF702F9216A08AE01EB4F
:101180000A00206204E0D4E9012116F8010B90471F
:10119000BAF1010AF7D22078C00602D52046FFF73F
:1011A000EEF86E4609E016F8010B3E280FD0D4E9A0
:1011B00001219047206A401C2062B8F10108F2D258
:1011C0002046FFF7F2F809B00320BDE8F08F206A4F
:1011D0002844206203E0D4E90121302090476D1EAD
:1011E000EBD3F8E72648000002FCFFFF10B5436987
:1011F00013B1AFF3008001E0FFF7FAF8012010BD52
:10120000127800F124010A7000224A700122EDE7F1
:1012100011684FF0FF32E9E710B5436913B1AFF33E
:10122000008001E0FFF77CF9012010BD128800F179
:10123000240182840022C2840122EDE711684FF06C
:10124000FF32E9E72DE9F04116460C46054600F06D
:1012500043F8036893F80101012807D0FF2C12D846
:10126000185D80B101202C70BDE8F081D3F8070132
:101270003246214603F20713C7182846BC46BDE88C
:10128000F041002360474FF0FF30EDE7754600F076
:10129000EBF8AE4605006946534620F00700854648
:1012A00018B020B5FEF7D4FFBDE820404FF000068F
:1012B0004FF000074FF000084FF0000BAC46ACE8D1
:1012C000C009ACE8C009ACE8C009ACE8C00921F02D
:1012D00007018D467047000010B500F005F8001DAD
:1012E00010BD00BFB5440000004870472800002032
:1012F0002DE9F0411F46044603260168072A01F440
:10130000006004DB08B116A505E016A503E008B1EE
:1013100015A500E015A521F010002060A069C01EF1
:10132000A0610FB1401EA0612046FFF728F84FB121
:10133000D4E9012138469047206A401C2062C01C35
:10134000206206E0206AFAE7D4E9012115F8010BD2
:101350009047761EF8D22046FFF727F8BDE8F081C7
:101360004E414E006E616E00494E4600696E660049
:101370002DE9F047814616468AB0354878440DC8B5
:101380008DE80D0032487844801C03AC0DC884E819
:101390000D0041F69B300844372190FBF1F290FBA1
:1013A000F1F5A5F1800501FB12041B3C02D5644256
:1013B000012000E00020DFF898A080460027FA44D2
:1013C000AAF1BE0A0EE0E0070AD03246684607EBF3
:1013D000470101230AEB810104F076F88DE807004C
:1013E00064107F1C002CEED1194F7F44AE3F19E0F2
:1013F000E80715D007EB04100DF1180A90E80E006D
:101400008AE80E00C068F04201D19819089032466F
:10141000012306A903A804F057F803AB83E80700EB
:101420006D10641C002DE3D14FF001033246694674
:10143000B8F1000F03A802D004F031F801E004F085
:1014400043F8C9E90001C9F808200AB0BDE8F087EF
:101450003045000010B50446AFF300802046BDE8DB
:101460001040FEF7E0BE0000004870470800002072
:101470004FF0013C50F8042B51F8043B9A4221D123
:10148000A2EB0C03934313EACC1317D150F8042BAF
:1014900051F8043B9A4215D1A2EB0C03934313EA93
:1014A000CC130BD150F8042B51F8043B9A4209D1CC
:1014B000A2EB0C03934313EACC13DBD04FF00000F4
:1014C000704700BFD01A01BAB1FA81F101F01801DA
:1014D00022FA01F0CB40DBB2C0B2C01AC1F1200148
:1014E0002CFA01F3D11A914311EAC311E6D17047E6
:1014F00001491820ABBEFEE726000200704700003D
:1015000088B0079006910020059004900390029007
:10151000019000900698C07800F00F0005900698A2
:10152000C078C006002806D5FFE7069880780599A0
:1015300008430590FFE70698007800284FD0FFE7A2
:1015400007980068019000200390FFE703980728A0
:1015500041D8FFE70398012101FA00F002900698B4
:1015600000880299084004900498029988422DD17D
:10157000FFE703988000029002980F2101FA00F023
:1015800000900098019921EA0000019005980299C5
:1015900088400199084301900698C078282807D10F
:1015A000FFE70398012101FA00F0079948610CE078
:1015B0000698C078482807D1FFE70398012101FA6F
:1015C00000F007990861FFE7FFE7FFE7FFE70398EF
:1015D00001300390BAE7019807990860FFE7069881
:1015E0000088B0F5807F51DBFFE7079840680190E5
:1015F00000200390FFE70398072843D8FFE70398EC
:101600000830012101FA00F0029006980088029942
:10161000084004900498029988422ED1FFE703986D
:101620008000029002980F2101FA00F000900098CB
:10163000019921EA000001900598029988400199DA
:10164000084301900698C078282808D1FFE703983E
:101650000830012101FA00F007994861FFE7069878
:10166000C078482808D1FFE703980830012101FA23
:1016700000F007990861FFE7FFE7FFE703980130F3
:101680000390B8E7019807994860FFE708B07047F2
:1016900082B00A460190ADF8021000208DF80100DA
:1016A00001988068BDF80210084204D0FFE70120CD
:1016B0008DF8010003E000208DF80100FFE79DF8A0
:1016C000010002B07047000082B00A460190ADF8F8
:1016D000021000208DF801000198C068BDF80210CA
:1016E000084204D0FFE701208DF8010003E000204C
:1016F0008DF80100FFE79DF8010002B0704700007F
:1017000080B584B00A460390ADF80A1000208DF829
:1017100009000398BDF80A100192FFF7D5FF8DF874
:1017200009009DF8090080F001008DF809009DF87E
:10173000090001460028009104D0FFE70098012825
:1017400007D00DE00398BDF80A10002200F00AF857
:1017500006E00398BDF80A10012200F003F8FFE745
:1017600004B080BD82B013468C460190ADF80210E3
:101770008DF801209DF80100002805D0FFE7BDF895
:1017800002000199086104E0BDF802000199486176
:10179000FFE702B0704700000000000000000000FA
:1017A000EFF30980BFF36F8F0D4B1A6820E9F00F3C
:1017B00010602DE908404FF0500080F3118802F0CE
:1017C0002FFB4FF0000080F31188BDE80840196836
:1017D0000868B0E8F00F80F30988BFF36F8F704797
:1017E0003401002082B00A4601908DF803109DF864
:1017F0000300002809D0FFE7019841F21801C4F264
:1018000002010A681043086009E0019841F21801DA
:10181000C4F202010A6822EA00000860FFE702B091
:101820007047000086B0059000200490039002905D
:10183000019041F20400C4F20200006800F00C00C4
:10184000049004980028009008D0FFE7009804282E
:101850000BD0FFE7009808280ED048E0059841F229
:101860000021C0F27A01016048E0059841F20021B0
:10187000C0F27A01016041E041F20400C4F20200CA
:10188000016801F470110391006800F48030029047
:101890000398022101EB904003900298002809D19F
:1018A000FFE7039840F60011C0F23D014843059957
:1018B00008601BE041F20400C4F2020000688003EB
:1018C000002809D5FFE7039840F60011C0F23D015A
:1018D00048430599086008E0039841F20021C0F2EE
:1018E0007A01484305990860FFE7FFE706E005989D
:1018F00041F20021C0F27A010160FFE741F20400E9
:10190000C4F20200016801F0F00104910499090990
:101910000491049945F6CC02C0F60002515C019195
:1019200005990B68DDF804C023FA0CF34B600168DD
:1019300001F4E06104910499090A04910499515C4D
:10194000019105994B68DDF804C023FA0CF38B6014
:10195000016801F4605104910499C90A0491049941
:10196000515C019105994A68019BDA40CA600068A0
:1019700000F4404004900498800B0490049845F6CD
:10198000C801C0F60001085C01900598C168019A81
:10199000B1FBF2F1016106B07047000000000000E9
:1019A000074B19680868B0E8F00F80F30988BFF3A7
:1019B0006F8F4FF0000080F311884EF00D0E7047CE
:1019C0003401002080B500F001F880BD83B0002014
:1019D0000290019041F20000C4F20200016841F45B
:1019E00080310160FFE741F20000C4F202000068AC
:1019F00000F400300190029801300290FFE7019856
:101A000000210028009107D1FFE70298B0F5A060FF
:101A100018BF01200090FFE70098C0070028E2D11E
:101A2000FFE741F20000C4F20200006880030028D2
:101A300003D5FFE70120019002E000200190FFE7BD
:101A40000198012850D1FFE742F20000C4F20200E1
:101A5000016841F010010160016821F0030101609B
:101A6000016841F00201016041F20400C4F2020089
:101A70000168016001680160016841F480610160F2
:101A8000016821F47C110160016841F4E8110160F2
:101A900041F20000C4F20200016841F0807101606F
:101AA000FFE741F20000C4F2020000688001002854
:101AB00001D4FFE7F5E741F20400C4F20200016837
:101AC00021F003010160016841F002010160FFE7BC
:101AD00041F20400C4F20200006800F00C00082883
:101AE00001D0FFE7F4E700E0FFE703B07047000034
:101AF00080B582B04FF0500080F31188BFF36F8F34
:101B0000BFF34F8F009002F015FF002808D0FFE7C9
:101B10004EF60450CEF200004FF080510160FFE716
:101B200000200190019880F3118802B080BD000070
:101B300080B541F20000C4F20200016841F00101E9
:101B4000016041F20401C4F202010A680023CFF6E9
:101B5000FF031A400A6002684FF6FF73CFF6F66380
:101B60001A400260026822F480220260086820F4B1
:101B7000FE00086041F20800C4F202004FF41F01A9
:101B80000160FFF71FFF4EF60850CEF200004FF045
:101B90000061016080BD000082B00A4601908DF8AE
:101BA00003109DF80300002806D0FFE70198818903
:101BB00041F40051818105E00198818921F40051AF
:101BC0008181FFE702B0704782B00A460190ADF80C
:101BD000021000208DF80100BDF80200B0F5007F72
:101BE00001D1FFE7FFE701980088BDF80210084027
:101BF0000004002804D0FFE701208DF8010003E075
:101C000000208DF80100FFE79DF8010002B0704749
:101C100080B58CB00B900A91002009900890079035
:101C2000069005900A988089002801D0FFE7FFE719
:101C30000B9805900B98008A099009984CF6FF7153
:101C4000084009900A98C0880999084309900998A2
:101C50000B9908820B988089099009984EF6F31128
:101C6000084009900A9881880289114340890843F5
:101C700009990843099009980B9988810B98808AE3
:101C8000099009984FF6FF41084009900A98808909
:101C900009990843099009980B9988826846FFF7CB
:101CA000C1FD059843F60001C4F20101884203D149
:101CB000FFE70398089002E002980890FFE70B986E
:101CC0008089000400280AD5FFE7089819214843B5
:101CD0000A9909684900B0FBF1F0079009E00898FB
:101CE000192148430A9909688900B0FBF1F007906F
:101CF000FFE7079848F21F51C5F2EB11A0FB010165
:101D00006FF00F0202EA510109910799099A12092D
:101D1000642302FB131106910B9989890904002998
:101D200010D5FFE70698322101EBC00048F21F51A1
:101D3000C5F2EB11A0FB0101C1F34211099A114355
:101D400009910FE00698322101EB001048F21F5173
:101D5000C5F2EB11A0FB0101C1F34311099A114334
:101D60000991FFE709980B9908810CB080BD00002C
:101D700082B00A460190ADF80210BDF802006FF380
:101D80005F200199888002B07047000082B0012076
:101D900001908DF8030044F25460C2F20000006824
:101DA000002804D0FFE700208DF8030020E044F273
:101DB000B060C2F200000068002804D0FFE70020F5
:101DC0008DF8030013E044F27460C2F20000006872
:101DD00044F2C051C2F2000109680139884204D1BD
:101DE000FFE702208DF8030000E0FFE7FFE7FFE7D1
:101DF0009DF8030002B0704780B588B000200790BE
:101E0000069000F0C1FD44F28860C2F2000069460D
:101E100048600220086043F62910C0F6000045F62D
:101E20002B11C0F600014FF47A720592069B02F066
:101E300005FD44F28C61C2F200016A465160032143
:101E4000116043F69911C0F6000145F63212C0F652
:101E50000002049008461146059A069B02F0EEFC2B
:101E6000039001F04FFFFFE7FEE7000080B584B06C
:101E70000390029144F2A460C2F200000068009056
:101E800040F23410C2F200000168002281F85120B3
:101E90000068043001F0F0F9002812D1FFE740F2A9
:101EA0003410C2F200000068C06A012101FA00F09B
:101EB00044F2D851C2F200010A6822EA0000086028
:101EC00000E0FFE703980130002811D1FFE70298F6
:101ED00000280DD0FFE740F23410C2F20000006885
:101EE000011D44F27460C2F2000001F05DFA3DE0B1
:101EF0000098039908440190019840F23411C2F20D
:101F00000001096848600198009988420ED2FFE7F5
:101F100040F24410C2F20000006840F23411C2F2F4
:101F200000010968043101F009FA1EE040F23C109A
:101F3000C2F20000006840F23411C2F200010968E8
:101F4000043101F0FBF9019844F24061C2F2000152
:101F50000968884207D2FFE7019844F24061C2F263
:101F60000001086000E0FFE7FFE7FFE704B080BD85
:101F700080B582B0019001F035FA44F2C050C2F24F
:101F8000000001680131016040F23410C2F200002B
:101F90000068002813D1FFE7019840F23411C2F223
:101FA0000001086044F2C050C2F20000006801283D
:101FB00003D1FFE700F06AFB00E0FFE71DE044F219
:101FC0006860C2F200000068002814D1FFE740F208
:101FD0003410C2F200000068C06A0199C96A8842E0
:101FE00007D8FFE7019840F23411C2F200010860FF
:101FF00000E0FFE700E0FFE7FFE744F2D450C2F261
:1020000000000168013101600198C06A012101FAF4
:1020100000F044F2D851C2F200010A68104308608F
:102020000198C16A01EB810140F24C12C2F2000238
:1020300002EB8101043000900846009901F0B4F9E8
:1020400001F0FCF944F26860C2F200000068002868
:1020500019D0FFE740F23410C2F200000068C06AF5
:102060000199C96A88420CD2FFE74EF60450CEF2BD
:1020700000004FF080510160BFF34F8FBFF36F8FAF
:1020800000E0FFE700E0FFE702B080BD80B582B06E
:1020900001F0A8F944F2A860C2F20000006800282C
:1020A00025D1FFE744F2DC50C2F20000019001F0BC
:1020B00025F944F2F050C2F20000009001F01EF940
:1020C00040F23810C2F200000199016040F248105D
:1020D000C2F20000009A026005201021002201F0E7
:1020E00075FF44F2A861C2F20001086000E0FFE75A
:1020F00001F0A4F902B080BD80B582B0FFE744F2E0
:10210000C450C2F200000068002822D0FFE701F0AE
:1021100069F944F29060C2F20000C068C0680190A2
:102120000198043001F0A8F844F2C051C2F2000155
:102130000A68013A0A6044F2C451C2F200010A6816
:10214000013A0A60009001F079F9019800F09AF8DC
:10215000D5E702B080BD000080B584B00390029145
:102160000398006C00281AD0FFE70398C168026C3E
:102170001144C16003988168C068884204D3FFE7B6
:1021800003980168C16000E0FFE702980399CA68FC
:10219000096C01911146019AFEF7A1F8FFE704B01E
:1021A00080BD000080B588B00790069105920020A0
:1021B00004900798806B03900798006C002810D15A
:1021C000FFE707980068002809D1FFE707988068B3
:1021D00002F094FC049007980021816000E0FFE782
:1021E00049E0059800281AD1FFE707980699426848
:1021F000006C02901046029AFEF771F807994A683F
:102200000B6C1A444A6007994A6889688A4204D369
:10221000FFE707980168416000E0FFE72AE00798C0
:102220000699C268006C01901046019AFEF757F8B3
:102230000799CA680B6CD21ACA6007990A68C968FC
:10224000914206D2FFE707988168026C891AC16043
:1022500000E0FFE7059802280AD1FFE7039800286D
:1022600004D0FFE703980138039000E0FFE700E0A7
:10227000FFE7FFE7FFE703980130079988630498B9
:1022800008B080BD80B582B001900198006B01F06C
:10229000FDF8019801F0FAF802B080BD80B584B075
:1022A000182001210191FFF79DFA4FF40050ADF87D
:1022B0000C0010208DF80F0003208DF80E0041F265
:1022C0000000C4F2010003A9FFF71AF90198ADF864
:1022D000080048218DF80B1040F60040C4F20100C0
:1022E00002A9FFF70DF904B080BD000083B0002003
:1022F00001900120009044F2D850C2F20000006822
:10230000022803D3FFE701200190FFE740F23410D9
:10231000C2F200000068C06A002803D0FFE7002076
:10232000029020E040F24C10C2F200000068022847
:1023300003D3FFE70020029014E00198002803D0A7
:10234000FFE7002002900CE044F24060C2F200007F
:10235000006844F2A461C2F200010968401A0290C8
:10236000FFE7FFE7FFE7029803B0704782B00190F4
:1023700040F23810C2F2000000680068B0FA80F045
:1023800040090199086001980068002809D1FFE719
:1023900040F23810C2F200000068C0680068009087
:1023A00002E000200090FFE7009802B070470000B4
:1023B00084B04FF48840009040F2B010C2F20000A8
:1023C00001909DF804004007002811D0FFE7019814
:1023D00007300190019820F007000190019840F229
:1023E000B011C2F20001009A081A10440090FFE7F1
:1023F00001980290029844F26C61C2F200010860F8
:10240000002048600299009A11440191019908390D
:102410000191019921F007010191019940F24012C7
:10242000C2F20002116011684860116808600298E9
:10243000039001980399401A486010680399086056
:102440000398406844F23C61C2F2000108600398BE
:10245000406844F23061C2F20001086044F2046056
:10246000C2F200004FF00041016004B0704700006C
:1024700080B584B00290FFE7FFF73EFE40F24C10BB
:10248000C2F20000006802280CD3FFE74EF60450A9
:10249000CEF200004FF080510160BFF34F8FBFF3C9
:1024A0006F8F00E0FFE7FFF721FF019001980228FE
:1024B00029D3FFE701F0ACFC44F24060C2F2000017
:1024C000006844F2A461C2F20001096888420BD29C
:1024D000FFE74FF0500080F31188BFF36F8FBFF319
:1024E0004F8F0390FFE7FEE7FFF700FF0190019891
:1024F000022804D3FFE7019801F078F800E0FFE735
:1025000002F0F8FB00E0FFE7B6E7000080B584B01A
:10251000DDF818C09E460390029101928DF80330B9
:102520000298002803D1FFE70698006003E00198B5
:1025300006990860FFE703980699C8630298069910
:1025400008640698012101F07BFD069900228A6447
:1025500004B080BDB0B58CB0DDF84CC0DDF848E00B
:10256000119C109D0A900991089207931298006B94
:1025700008998900A522CDF810C0CDF80CE002948E
:102580000195FDF7F1FE1298006B089900EB8100B0
:1025900004380690069820F0070006909DF8180071
:1025A000400700280BD0FFE74FF0500080F3118860
:1025B000BFF36F8FBFF34F8F0B90FFE7FEE70998D4
:1025C000002820D0FFE700200590FFE705980F289E
:1025D00014D8FFE709980599405C129A114481F8D4
:1025E000340009980599405C002801D1FFE705E017
:1025F000FFE7FFE7059801300590E7E71298002113
:1026000080F8431004E01298002180F83410FFE7AE
:102610001098052803D3FFE70420109000E0FFE79F
:1026200010981299C8621098129948641298002163
:10263000816412980430009100F078FE12981830EE
:1026400000F074FE129800611098C0F10500129914
:1026500088611298406212980099C164129880F8BB
:102660005010129880F8511006980A99079A00F0B5
:10267000DBFD129908601198002804D0FFE712983A
:102680001199086000E0FFE70CB0B0BD80B584B0E0
:1026900000200390FFE70398042810D8FFE7039871
:1026A00000EB800040F24C11C2F2000101EB80000F
:1026B00000F024FEFFE7039801300390EBE744F2BB
:1026C0000860C2F20000029000F018FE44F21C60A4
:1026D000C2F20000019000F011FE44F25460C2F218
:1026E000000000F00BFE44F29060C2F2000000F027
:1026F00005FE44F27460C2F2000000F0FFFD40F2FB
:102700003C10C2F200000299016040F24410C2F293
:102710000000019A026004B080BD000083B0029006
:1027200044F26C60C2F200000190FFE7019800687B
:102730000299884205D2FFE7FFE7019800680190FF
:10274000F4E70198009000980199496808440299BB
:10275000884209D1FFE70298406801994A6810440D
:1027600048600198029000E0FFE70298009000980E
:1027700002994968084401990968884220D1FFE715
:102780000198006840F24011C2F2000109688842D5
:102790000DD0FFE701980068406802994A6810442C
:1027A00048600198006800680299086007E040F2FC
:1027B0004010C2F20000006802990860FFE704E0E0
:1027C0000198006802990860FFE701980299884221
:1027D00004D0FFE702980199086000E0FFE703B02A
:1027E0007047000080B586B0059004910392029373
:1027F00000200190049805994860059800610498AC
:102800000399884216D8FFE703980299401A059960
:102810008969884203D3FFE70120019009E040F273
:102820004810C2F2000000680599043100F086FDEE
:10283000FFE717E003980299884208D2FFE704985F
:102840000299884203D3FFE70120019009E040F29A
:102850003810C2F2000000680599043100F06EFDE6
:10286000FFE7FFE7019806B080BD000080B582B0A9
:10287000019000F0B7FD0198806B002803D1FFE7BD
:102880000120009002E000200090FFE700F0D6FD5C
:10289000009802B080BD000080B582B0019000F0C9
:1028A000A1FD0198806B0199C96B884203D1FFE7B4
:1028B0000120009002E000200090FFE700F0BEFD44
:1028C000009802B080BD000080B586B003900398E8
:1028D000806C029000200190029800280BD1FFE745
:1028E0004FF0500080F31188BFF36F8FBFF34F8F0D
:1028F0000490FFE7FEE70298806B0299C96B88425B
:102900000BD3FFE74FF0500080F31188BFF36F8FB8
:10291000BFF34F8F0590FFE7FEE70298806B0299A7
:10292000C96B88422CD2FFE7029890F845008DF8D9
:102930000300029803A90022FFF734FC01909DF9DF
:1029400003000130002813D1FFE70298406A0028F5
:102950000CD0FFE70298243002F064F9002803D07D
:10296000FFE70120019000E0FFE700E0FFE706E05D
:102970009DF803000130029981F84500FFE700E06F
:10298000FFE7019806B080BD80B500F07DFAFFF743
:1029900085FC80BD06480068006880F3088862B640
:1029A00061B6BFF34F8FBFF36F8F00DF00BF00BF73
:1029B00008ED00E080B588B00690059140F238102F
:1029C000C2F200000068C068C06803900398043039
:1029D00000F052FC039991F824104907002929D5E9
:1029E000FFE70398069982690A44059B0291114604
:1029F0001A46029BFFF7F6FE002819D0FFE703985E
:102A0000069A694600230B60194602F071FA049099
:102A1000049800280BD1FFE74FF0500080F3118895
:102A2000BFF36F8FBFF34F8F0790FFE7FEE700E024
:102A3000FFE707E0039890F8241001F0FE0180F80A
:102A40002410FFE70398016A884708B080BD0000A2
:102A500080B592B0FFE744F2A860C2F200000068BF
:102A60000BA9002201F06AFD002800F0CA80FFE7F0
:102A70000B98B0F1FF3F1EDCFFE70BA80430069077
:102A8000069800280BD1FFE74FF0500080F3118823
:102A9000BFF36F8FBFF34F8F0F90FFE7FEE70698EE
:102AA00001684268806805901046059A04911146B5
:102AB000049B984700E0FFE70B98002800F1A080F6
:102AC000FFE70D980A900A984069002805D0FFE7B3
:102AD0000A98043000F0D0FB00E0FFE709A800F0FE
:102AE0000BF907900B980928039000F2878003994F
:102AF000DFE801F0050505434B700505434B0A98D7
:102B000090F8241041F0010180F824100A980C99E3
:102B100082690A44079B029111461A46029BFFF7FD
:102B200061FE002827D0FFE70A98016A88470A98C3
:102B300090F82400400700281BD5FFE70A980C995D
:102B400082690A44694600230B60194602F0D0F9F5
:102B50000890089800280BD1FFE74FF0500080F351
:102B60001188BFF36F8FBFF34F8F1090FFE7FEE721
:102B700000E0FFE700E0FFE741E00A9890F824104A
:102B800001F0FE0180F8241039E00A9890F8241032
:102B900041F0010180F824100C980A9988610A9884
:102BA000806900280BD1FFE74FF0500080F31188B7
:102BB000BFF36F8FBFF34F8F1190FFE7FEE70A98C7
:102BC000079982690A4401911146019A019BFFF716
:102BD00009FE14E00A9890F824008007002804D425
:102BE000FFE70A9800F052FC07E00A9890F82410DA
:102BF00001F0FE0180F82410FFE700E0FFE7FFE7A7
:102C000029E712B080BD000080B586B00590049120
:102C100001F0FEF802A800F06FF803900298002877
:102C200041D1FFE7049800280FD1FFE705980399E9
:102C300088420AD8FFE702F05DF80599039A0190EF
:102C400008461146FFF7B6FE2CE0049800280BD08A
:102C5000FFE740F24810C2F2000000680068B0FAD6
:102C600080F040090490FFE744F2A860C2F200003F
:102C700000680599039A891A049A00F001FE02F08F
:102C800039F800280CD1FFE74EF60450CEF20000D0
:102C90004FF080510160BFF34F8FBFF36F8F00E0A3
:102CA000FFE7FFE702E002F025F8FFE706B080BD8E
:102CB00081B040F23C10C2F20000006800680028B9
:102CC00008D1FFE744F24060C2F200004FF0FF314C
:102CD00001600FE040F23C10C2F200000068C068E2
:102CE000C06800900098406844F24061C2F2000160
:102CF0000860FFE701B0704780B582B0019001F035
:102D00000FFE0090009840F23011C2F200010968F5
:102D1000884206D2FFE700F011F801980121016016
:102D200003E0019800210160FFE7009840F23011B4
:102D3000C2F200010860009802B080BD80B588B082
:102D4000FFE740F23810C2F2000000680068002877
:102D500051D0FFE740F23810C2F200000168C968A4
:102D6000096806910068C068C06803900398043041
:102D700000F082FA03990A6A019008469047039886
:102D800090F824004007002833D5FFE70698039900
:102D90008969084405900598069988420FD9FFE78C
:102DA0000598039948600398006140F23810C2F218
:102DB000000000680399043100F0C0FA18E003989D
:102DC000069A694600230B60194602F091F80290BA
:102DD000029800280BD1FFE74FF0500080F31188D4
:102DE000BFF36F8FBFF34F8F0790FFE7FEE7FFE75B
:102DF00000E0FFE7A5E740F23810C2F200000168EA
:102E0000049140F24811C2F200010A68026004987D
:102E1000086008B080BD000083B00020009040F240
:102E20000400C2F200000068013000280BD0FFE768
:102E30004FF0500080F31188BFF36F8FBFF34F8FB7
:102E40000190FFE7FEE74FF0500080F31188BFF3D9
:102E50006F8FBFF34F8F0290FFE70098002801D1DA
:102E6000FFE7FAE703B0704780B584B00390FFE74F
:102E700001A8FFF77BFA029002980199FFF7C4FEC0
:102E8000FFF7E6FDF4E7000080B588B044F20500E6
:102E900001210291FEF7A6FC002007904FF400717B
:102EA000ADF81C101C218DF81F1003218DF81E1089
:102EB00040F60001C4F2010107AA0190084611463C
:102EC000FEF71EFB019806900590049003904FF4C6
:102ED000165103910821ADF8161043F60001C4F213
:102EE000010103AA084600911146FEF791FE0098E1
:102EF0000299FEF751FE08B080BD000080B584B095
:102F0000039000200290FFE7029803990190084681
:102F1000FDF7C6F9019981421AD2FFE7FFE743F6B0
:102F20000000C4F201008021FEF74EFE002801D10E
:102F3000FFE7F4E703980299415C43F60000C4F20E
:102F40000100FEF715FFFFE7029801300290DBE772
:102F500004B080BD80B582B0019000F043FA0198C2
:102F600090F845008DF80300FFE79DF90300012864
:102F700029DBFFE70198806C00280BD0FFE7019860
:102F8000FFF7A2FC002803D0FFE700F08BFD00E074
:102F9000FFE712E00198406A00280CD0FFE7019893
:102FA000243001F03FFE002803D0FFE700F07AFD57
:102FB00000E0FFE700E006E0FFE79DF803000138CE
:102FC0008DF80300D1E70198FF2180F8451000F04B
:102FD00035FA00F007FA019890F844008DF80200E5
:102FE000FFE79DF90200012818DBFFE7019800695F
:102FF000002811D0FFE70198103001F013FE0028DF
:1030000003D0FFE700F04EFD00E0FFE79DF802006F
:1030100001388DF8020000E000E0E2E70198FF21AE
:1030200080F8441000F00AFA02B080BD80B58AB082
:1030300006900020029000F0EBFE40F24010C2F239
:1030400000000068002803D1FFE7FFF7B1F900E0B6
:10305000FFE7069844F20461C2F2000109680842E1
:1030600040F0CA80FFE70698002822D0FFE70698C4
:10307000083006909DF818004007002817D0FFE799
:10308000069820F00700083006909DF818004007C9
:1030900000280BD0FFE74FF0500080F31188BFF3FA
:1030A0006F8FBFF34F8F0790FFE7FEE700E0FFE76A
:1030B00000E0FFE70698002800F09C80FFE70698F4
:1030C00044F23061C2F200010968884200F2928045
:1030D000FFE744F26C60C2F20000049000680590C3
:1030E000FFE705984068069900228842019207D2BE
:1030F000FFE705980068002818BF01200190FFE74E
:103100000198C007002806D0FFE7059804900598AD
:1031100000680590E5E7059840F24011C2F2000111
:103120000968884264D0FFE704980068083002907C
:103130000598006804990860059840680699401A47
:10314000112822D3FFE705980699084403909DF8BB
:103150000C00400700280BD0FFE74FF0500080F331
:103160001188BFF36F8FBFF34F8F0890FFE7FEE723
:10317000059840680699401A039948600698059991
:1031800048600398FFF7CAFA00E0FFE70598406837
:1031900044F23061C2F200010A68101A086008683F
:1031A00044F23C61C2F20001096888420BD2FFE799
:1031B00044F23060C2F20000006844F23C61C2F2A6
:1031C0000001086000E0FFE744F20460C2F2000082
:1031D000006805994A68104348600598002101601D
:1031E00044F24860C2F2000001680131016000E071
:1031F000FFE700E0FFE700E0FFE701F07BFD9DF85F
:103200000810490700290BD0FFE74FF0500080F36A
:103210001188BFF36F8FBFF34F8F0990FFE7FEE771
:1032200002980AB080BD000083B002900191009224
:1032300002980438029002984FF080710160029861
:1032400004380290019820F0010002990860029869
:1032500004380290029842F61961C0F6000101603C
:103260000298143802900098029908600298203859
:103270000290029803B0704782B0019001980069F3
:103280000090019841688068886001984168806872
:103290004160009840680199884205D1FFE7019894
:1032A00080680099486000E0FFE701980021016113
:1032B00000980168013901600098006802B0704709
:1032C00080B584B0039000F08DF80398002807D1F2
:1032D000FFE740F23410C2F200000068009002E004
:1032E00003980090FFE7009802900298C06A01904E
:1032F00000F0A4F8019804B080BD000081B00090F7
:10330000009800F10801416000984FF0FF318160A2
:10331000009800F10801C160009800F10801016106
:1033200000980021016001B07047000081B000905A
:1033300000980021016101B07047000084B0039043
:10334000029102980068009000980130002804D192
:10335000FFE703980069019010E00398083001909E
:10336000FFE70198406800680099884205D8FFE7A8
:10337000FFE7019840680190F3E7FFE70198406894
:1033800002994860029841688860019802998860B3
:1033900002980199486003980299086103980168AE
:1033A0000131016004B0704783B00290019102982E
:1033B00040680090009801994860009880680199E1
:1033C0008860019800998968486001980099886030
:1033D000029801990861029801680131016003B007
:1033E0007047000082B04FF0500080F31188BFF3A7
:1033F0006F8FBFF34F8F009040F20400C2F20000C5
:103400000168013101600068012815D1FFE74EF61F
:103410000450CEF200000068000600280BD0FFE741
:103420004FF0500080F31188BFF36F8FBFF34F8FC1
:103430000190FFE7FEE7FFE702B0704782B040F27D
:103440000400C2F20000006800280BD1FFE74FF033
:10345000500080F31188BFF36F8FBFF34F8F009040
:10346000FFE7FEE740F20400C2F200000168013904
:1034700001600068002806D1FFE700200190019854
:1034800080F31188FFE702B07047000080B586B076
:10349000039003980290039800285FD0FFE70298FA
:1034A00008380290029801900198406844F2046143
:1034B000C2F20001096808420BD1FFE74FF050004B
:1034C00080F31188BFF36F8FBFF34F8F0490FFE736
:1034D000FEE70198006800280BD0FFE74FF050008E
:1034E00080F31188BFF36F8FBFF34F8F0590FFE715
:1034F000FEE70198406844F20461C2F200010968E5
:10350000084229D0FFE701980068002822D1FFE790
:1035100044F20460C2F20000006801994A6822EA9D
:103520000000486000F074FC0198406844F230618B
:10353000C2F200010A68104408600198FFF7EEF833
:1035400044F24C60C2F2000001680131016001F0F8
:10355000D1FB00E0FFE700E0FFE7FFE706B080BD3A
:1035600080B540F20000C2F20000016844F6D35278
:10357000C1F26202A1FB02139B0944F2BC5CC2F2DD
:10358000000CCCF80030DCF800306FF07F4CBCFB56
:10359000F3F344F2386CC2F2000CCCF8003044F281
:1035A000B853C2F200034FF02D0CC3F800C04EF226
:1035B0001003CEF200034FF0000CC3F800C04EF22F
:1035C000180ECEF2000ECEF800C00068A0FB02027A
:1035D0004FF0FF3C0CEB92124EF2140CCEF2000CAA
:1035E000CCF8002007221A6080BD000080B586B0AC
:1035F0000590059844F23861C2F2000109688842DA
:1036000007D9FFE744F23860C2F200000068059075
:10361000FFE74EF21000CEF20000016821F0010138
:1036200001604EF21800CEF20000006844F2BC5176
:10363000C2F200010968059A013A01FB02000490F8
:10364000049844F2B851C2F200010968884209D9CD
:10365000FFE744F2B850C2F2000000680499081A6B
:103660000490FFE772B6BFF34F8FBFF36F8FFEF783
:103670008DFB00281BD1FFE74EF21800CEF20000B0
:1036800000684EF21401CEF2000108604EF2100004
:10369000CEF20000026842F00102026044F2BC5027
:1036A000C2F2000000680138086062B6A4E0049825
:1036B0004EF21401CEF2000108604EF21800CEF274
:1036C0000000002101604EF21000CEF200000168FF
:1036D00041F001010160059801900198002806D091
:1036E000FFE7BFF34F8F30BFBFF36F8FFFE762B6C7
:1036F000BFF34F8FBFF36F8F72B6BFF34F8FBFF320
:103700006F8F4EF21000CEF20000062101600068BB
:10371000C003002833D5FFE744F2BC50C2F20000DA
:10372000006804994EF21802CEF200021268511A93
:10373000084401380090009844F2B851C2F20001E8
:103740000968884209D3FFE7009844F2BC51C2F2ED
:1037500000010968884208D9FFE744F2BC50C2F270
:103760000000006801380090FFE700984EF2140155
:10377000CEF2000108600598013803901EE005981C
:1037800044F2BC51C2F200010A6850434EF21802E2
:10379000CEF200021268801A029002980A68B0FB0A
:1037A000F2F0039003980130096848430299401AE7
:1037B0004EF21401CEF200010860FFE74EF218004D
:1037C000CEF20000002101604EF21000CEF20000A7
:1037D000016841F001010160039800F0F3FA44F23E
:1037E000BC50C2F20000006801384EF21401CEF263
:1037F0000001086062B6FFE706B080BD84B0EFF359
:1038000005800190019810281ED3FFE701984EF221
:10381000F031CEF20001405C8DF803009DF803000A
:1038200044F2B051C2F20001097888420BDAFFE796
:103830004FF0500080F31188BFF36F8FBFF34F8FAD
:103840000290FFE7FEE7FFE74EF60C50CEF20000D5
:10385000006800F4E06044F2B451C2F2000109686B
:1038600088420BD9FFE74FF0500080F31188BFF377
:103870006F8FBFF34F8F0390FFE7FEE704B07047F1
:1038800080B584B003900291019203980090FFF7F5
:10389000A9FD009890F944000130002805D1FFE708
:1038A0000098002180F84410FFE7009890F9450047
:1038B0000130002805D1FFE70098002180F845106D
:1038C000FFE7FFF7BBFD0098806B002807D1FFE7FB
:1038D000009824300299019A00F00EF900E0FFE709
:1038E0000098FFF737FB04B080BD000080B584B0BE
:1038F000039001F015F8029003984FF47A71484351
:1039000044F6D351C1F26201A0FB01018909019182
:10391000FFE701F005F80299019A1144884201D2AB
:10392000FFE7F6E704B080BD80B584B00390FFE701
:10393000C820FFF7DBFF41F20000C4F201004FF4A2
:103940000051FDF7DDFE44F28860C2F2000000681D
:10395000FFF7B6FC44F2C851C2F20001086044F21D
:103960008C60C2F2000000680291FFF7A9FC029986
:1039700048600A684B6840F26800C2F2000045F6F1
:103980000011C0F600010190FCF774FC0199009051
:103990000846FFF7B3FACBE780B588B00790FFE79A
:1039A00040F60040C4F201000121FDF771FE00283D
:1039B00030D1FFE79620FFF799FF44F28860C2F20A
:1039C0000000016806900846FFF77AFC44F2C851EF
:1039D000C2F20001086044F28C60C2F2000002688A
:1039E000059010460491FFF76BFC0499486045F67A
:1039F000DC00C0F60000FFF781FA06980068049921
:103A0000496800F0A5F8059800680499096800F075
:103A10009FF834E04FF47A70FFF768FF41F200003E
:103A2000C4F201004FF40051FDF76AFE44F28860D1
:103A3000C2F200000068FFF743FC44F2C851C2F232
:103A40000001086044F28C60C2F20000006803913B
:103A5000FFF736FC039948600A684B6840F268003B
:103A6000C2F2000045F60011C0F600010290FCF71A
:103A700001FC029901900846FFF740FAFFE78FE743
:103A800081B0009044F24460C2F2000000680099E6
:103A9000086044F2A460C2F2000000680099486027
:103AA00001B0704744F2B060C2F200000121016031
:103AB0007047000080B584B0029001910298002800
:103AC0000BD1FFE74FF0500080F31188BFF36F8FE9
:103AD000BFF34F8F0390FFE7FEE7029840F23411E7
:103AE000C2F2000109681831FFF728FC0198012192
:103AF000FEF7BCF904B080BD80B584B0029001919E
:103B00000092029800280BD1FFE74FF0500080F39D
:103B10001188BFF36F8FBFF34F8F0390FFE7FEE76E
:103B2000029840F23411C2F2000109681831FFF71F
:103B30003BFC0098002804D0FFE74FF0FF300190D5
:103B4000FFE701980099FEF791F904B080BD0000ED
:103B500080B58AB008900791002003900798052847
:103B60000BD3FFE74FF0500080F31188BFF36F8F46
:103B7000BFF34F8F0990FFE7FEE70798052803D3AF
:103B8000FFE70420079000E0FFE7FFF72BFC089811
:103B9000002807D1FFE740F23410C2F200000068AD
:103BA000029002E008980290FFE7029806900698BB
:103BB000406C059005980799884200F09F80FFE7C8
:103BC0000798059988421AD9FFE7069840F2341100
:103BD000C2F20001096888420FD0FFE7079840F25F
:103BE0003411C2F200010968C96A884203D3FFE7B1
:103BF0000120039000E0FFE700E0FFE70DE00698FA
:103C000040F23411C2F200010968884203D1FFE793
:103C10000120039000E0FFE7FFE70698C06A0490E8
:103C20000698C16A406C884204D1FFE7079806995C
:103C3000C86200E0FFE70798069948640698C07ECE
:103C40000006002806D4FFE70798C0F10500069992
:103C5000886100E0FFE706984069049901EB810163
:103C600040F24C12C2F2000202EB8101884232D1D2
:103C7000FFE706980430FFF7FFFA00280DD1FFE7B1
:103C80000498012101FA00F044F2D851C2F2000177
:103C90000A6822EA0000086000E0FFE70698C06AB0
:103CA000012101FA00F044F2D851C2F200010A6881
:103CB000104308600698C16A01EB810140F24C1282
:103CC000C2F2000202EB8101043001900846019922
:103CD000FFF76AFB00E0FFE7039800280CD0FFE73E
:103CE0004EF60450CEF200004FF080510160BFF359
:103CF0004F8FBFF36F8F00E0FFE7FFE7FFF79EFBFB
:103D00000AB080BD80B586B044F23460C2F20000D3
:103D1000694648600020086042F27141C0F6000127
:103D200045F63912C0F6000280230290084611467B
:103D30001A46029B00F082FD03900398012804D1EB
:103D4000FFE701F09DF8039000E0FFE703980128EA
:103D500024D1FFE74FF0500080F31188BFF36F8F3D
:103D6000BFF34F8F049044F24060C2F200004FF066
:103D7000FF31016044F26860C2F20000012101607D
:103D800044F2A460C2F200000021016000F0AAF831
:103D9000002801D0FFE700E0FFE710E003980130C2
:103DA00000280BD1FFE74FF0500080F31188BFF3DC
:103DB0006F8FBFF34F8F0590FFE7FEE7FFE706B079
:103DC00080BD000082B0009044F2A460C2F2000006
:103DD00000680099084444F24061C2F20001096899
:103DE00088420BD9FFE74FF0500080F31188BFF3F2
:103DF0006F8FBFF34F8F0190FFE7FEE7009844F20B
:103E0000A461C2F200010A681044086002B0704761
:103E100044F2D050C2F200000168013101607047E5
:103E200085B044F2D050C2F200000068002807D0EC
:103E3000FFE744F2B060C2F20000012101604EE0F1
:103E400044F2B060C2F200000021016044F2D85098
:103E5000C2F20000006803900398B0FA80F08DF879
:103E60000B009DF80B00C0F11F000190019800EBC2
:103E7000800040F24C11C2F2000151F820000028ED
:103E80000BD1FFE74FF0500080F31188BFF36F8F25
:103E9000BFF34F8F0490FFE7FEE7019800EB80002F
:103EA00040F24C11C2F2000101EB8000009000983A
:103EB000416849684160009841680830814205D1F5
:103EC000FFE70098416849684160FFE70098406853
:103ED000C06840F23411C2F200010860FFE705B08B
:103EE0007047000080B586B04EF20040CEF2000070
:103EF000039001780491FF21017000788DF80B0088
:103F00009DF80B0000F0500044F2B051C2F20001E5
:103F1000087044F2B450C2F2000007210160FFE7CC
:103F20009DF80B00000600280DD5FFE744F2B450C1
:103F3000C2F200000168013901609DF80B004000E9
:103F40008DF80B00ECE744F2B450C2F200000068B8
:103F500003280BD0FFE74FF0500080F31188BFF328
:103F60006F8FBFF34F8F0590FFE7FEE744F2B45029
:103F7000C2F20000016809020160016801F4E06119
:103F8000016004984EF20041CEF2000108704EF636
:103F90002050CEF20000016841F470010160016818
:103FA00041F070410160FFF7DBFA40F20400C2F219
:103FB0000000002101600191FEF7ECFCFFF730FFEB
:103FC000FEF72AFF019806B080BD000080B588B0DA
:103FD0001346069005918DF81320069800280BD102
:103FE000FFE74FF0500080F31188BFF36F8FBFF3EE
:103FF0004F8F0790FFE7FEE7069805994843029028
:1040000002984C30FFF712F803900398002812D062
:10401000FFE70398019001984C30019006980599AC
:10402000019A9DF81330DDF80CC0EE46CEF800C0C2
:10403000FEF76CFA00E0FFE7039808B080BD0000CF
:1040400080B584B0029001910298009000980028F9
:104050000BD1FFE74FF0500080F31188BFF36F8F53
:10406000BFF34F8F0390FFE7FEE7FFF7BBF9009820
:104070000168C26B036C02FB031181600098002190
:10408000816300980168416000980168C26B036C0D
:10409000013A02FB0311C1600098FF2180F844102F
:1040A000009880F84510019800281CD1FFE700987F
:1040B0000069002815D0FFE70098103000F0B2FD2D
:1040C00000280CD0FFE74EF60450CEF200004FF06F
:1040D00080510160BFF34F8FBFF36F8F00E0FFE7A8
:1040E00000E0FFE708E000981030FFF707F90098BC
:1040F0002430FFF703F9FFE7FFF7A0F9012004B030
:1041000080BD000080B592B00C900B910A9209938B
:10411000002008900C980490049800280BD1FFE729
:104120004FF0500080F31188BFF36F8FBFF34F8FB4
:104130000E90FFE7FEE70B9800210028029107D1BF
:10414000FFE70498006C002818BF01200290FFE7E9
:104150000298C00700280BD0FFE74FF0500080F313
:104160001188BFF36F8FBFF34F8F0F90FFE7FEE70C
:10417000099800210228019107D1FFE70498C06B3C
:10418000013818BF01200190FFE70198C0070028FF
:104190000BD0FFE74FF0500080F31188BFF36F8F13
:1041A000BFF34F8F1090FFE7FEE700F09BFB00216D
:1041B0000028009106D1FFE70A98002818BF0120C7
:1041C0000090FFE70098C00700280BD0FFE74FF0F2
:1041D000500080F31188BFF36F8FBFF34F8F1190A2
:1041E000FFE7FEE7FFE7FFF7FDF80498806B04990F
:1041F000C96B884204D3FFE7099802285ED1FFE724
:104200000498806B039004980B99099AFDF7CAFFF4
:1042100007900498806C00281ED0FFE709980228B8
:1042200005D1FFE70398002801D0FFE713E00498C9
:10423000FEF74AFB00280CD0FFE74EF60450CEF202
:1042400000004FF080510160BFF34F8FBFF36F8FBD
:1042500000E0FFE7FFE72CE00498406A002815D053
:10426000FFE70498243000F0DDFC00280CD0FFE7C5
:104270004EF60450CEF200004FF080510160BFF3C3
:104280004F8FBFF36F8F00E0FFE711E00798002822
:104290000CD0FFE74EF60450CEF200004FF08051F4
:1042A0000160BFF34F8FBFF36F8F00E0FFE7FFE7C1
:1042B000FFE7FFF7C3F801200D906CE00A98002893
:1042C00005D1FFE7FFF7BAF800200D9063E00898EA
:1042D000002806D1FFE705A8FFF7D2FB01200890D0
:1042E00000E0FFE7FFE7FFE7FFF7A8F8FFF790FD23
:1042F000FFF778F8049890F944000130002805D1C0
:10430000FFE70498002180F84410FFE7049890F933
:1043100045000130002805D1FFE70498002180F80E
:104320004510FFE7FFF78AF805A80AA900F006FA8A
:10433000002827D1FFE70498FEF7AEFA00281AD02C
:10434000FFE7049810300A99FFF7B4FB0498FEF7D2
:1043500001FE00F0CFFC00280CD1FFE74EF6045020
:10436000CEF200004FF080510160BFF34F8FBFF3DA
:104370006F8FFFE705E00498FEF7ECFD00F0BAFC54
:10438000FFE707E00498FEF7E5FD00F0B3FC00212D
:104390000D9100E027E70D9812B080BD80B592B076
:1043A0000B900A91099208930B98059005980028A4
:1043B0000BD1FFE74FF0500080F31188BFF36F8FF0
:1043C000BFF34F8F0C90FFE7FEE70A98002100280B
:1043D000029107D1FFE70598006C002818BF012063
:1043E0000290FFE70298C00700280BD0FFE74FF0CC
:1043F000500080F31188BFF36F8FBFF34F8F0D9084
:10440000FFE7FEE7089800210228019107D1FFE7A6
:104410000598C06B013818BF01200190FFE7019893
:10442000C00700280BD0FFE74FF0500080F3118841
:10443000BFF36F8FBFF34F8F0E90FFE7FEE7FFF7DD
:10444000DDF9EFF311804FF0500181F31188BFF3D4
:104450006F8FBFF34F8F10900F91109806900598B3
:10446000806B0599C96B884204D3FFE7089802283E
:1044700059D1FFE7059890F845008DF8130005988D
:10448000806B039005980A99089AFDF78BFE9DF9B9
:104490001310013100293CD1FFE70598806C0028FA
:1044A0001CD0FFE70898022805D1FFE703980028F1
:1044B00001D0FFE711E00598FEF706FA00280AD0C0
:1044C000FFE70998002804D0FFE70998012101605F
:1044D00000E0FFE700E0FFE7FFE719E00598406A2A
:1044E000002813D0FFE70598243000F09BFB00283C
:1044F0000AD0FFE70998002804D0FFE709980121B6
:10450000016000E0FFE700E0FFE700E0FFE7FFE712
:1045100006E09DF813000130059981F84500FFE79A
:104520000120079002E000200790FFE70698119015
:10453000119880F31188079812B080BD80B590B0B3
:104540000B900A910992002008900B98059005980D
:1045500000280BD1FFE74FF0500080F31188BFF324
:104560006F8FBFF34F8F0D90FFE7FEE70A98002192
:104570000028039107D1FFE70598006C002818BFB9
:1045800001200390FFE70398C00700280BD0FFE746
:104590004FF0500080F31188BFF36F8FBFF34F8F40
:1045A0000E90FFE7FEE700F09DF900210028029140
:1045B00006D1FFE70998002818BF01200290FFE705
:1045C0000298C00700280BD0FFE74FF0500080F39F
:1045D0001188BFF36F8FBFF34F8F0F90FFE7FEE798
:1045E000FFE7FEF7FFFE0598806B04900498002813
:1045F00028D0FFE705980A99FDF7AEFD0498013829
:104600000599886305980069002815D0FFE705988B
:10461000103000F007FB00280CD0FFE74EF60450E6
:10462000CEF200004FF080510160BFF34F8FBFF317
:104630006F8F00E0FFE700E0FFE7FEF7FFFE0120DD
:104640000C9077E00998002805D1FFE7FEF7F6FE09
:1046500000200C906EE00898002806D1FFE706A81D
:10466000FFF70EFA0120089000E0FFE7FFE7FFE701
:10467000FEF7E4FEFFF7CCFBFEF7B4FE059890F9D9
:1046800044000130002805D1FFE70598002180F89B
:104690004410FFE7059890F945000130002805D146
:1046A000FFE70598002180F84510FFE7FEF7C6FEFA
:1046B00006A809A900F042F8002828D1FFE70598CC
:1046C000FEF7D4F800281BD0FFE70598243009999D
:1046D000FFF7F0F90598FEF73DFC00F00BFB002812
:1046E0000CD1FFE74EF60450CEF200004FF080519F
:1046F0000160BFF34F8FBFF36F8F00E0FFE705E06E
:104700000598FEF727FC00F0F5FAFFE711E00598A1
:10471000FEF720FC00F0EEFA059901900846FEF73E
:10472000A5F8002803D0FFE700200C9002E0FFE787
:10473000FFE756E70C9810B080BD000080B588B048
:1047400005900491059800280BD1FFE74FF0500029
:1047500080F31188BFF36F8FBFF34F8F0690FFE791
:10476000FEE7049800280BD1FFE74FF0500080F3DC
:104770001188BFF36F8FBFF34F8F0790FFE7FEE7FE
:10478000FEF730FE44F2A460C2F20000006802901E
:10479000029805994968401A019040F23410C2F21B
:1047A0000000006890F8510000280BD0FFE740F2AD
:1047B0003410C2F200000068002180F8511001207E
:1047C000039035E0049800680130002803D1FFE72A
:1047D000002003902BE044F24460C2F20000006825
:1047E00005990968884209D0FFE702980599496848
:1047F000884203D3FFE70120039017E00198049952
:10480000096888420BD2FFE7019804990A68101AD8
:1048100008600598FFF734F90020039005E004983C
:104820000021016001200390FFE7FFE7FFE7FFE7BA
:10483000FEF704FE039808B080BD000070B58EB08E
:10484000DDF84CC0DDF848E014460D900C91ADF851
:104850002E200A93BDF82E008000CDF818C0CDF8A8
:1048600014E00494FEF7E2FB07900798002811D0AB
:10487000FFE75420FEF7DAFB09900998002804D0DE
:10488000FFE707980999086303E00798FEF7FEFD24
:10489000FFE702E000200990FFE7099800281AD0FE
:1048A000FFE70D980C99BDF82E200A9BDDF848C053
:1048B000DDF84CE0099C6D460026EE60AC60C5F862
:1048C00004E0C5F800C0FDF745FE0998FDF750FB70
:1048D0000120089003E04FF0FF300890FFE70898B0
:1048E0000EB070BD81B044F26860C2F20000006892
:1048F000002803D1FFE7012000900EE044F2D050E1
:10490000C2F200000068002803D1FFE702200090F7
:1049100002E000200090FFE7FFE7009801B0704739
:1049200081B044F2A460C2F20000006800900098D8
:1049300001B0704780B588B00020049044F2D05098
:10494000C2F200000068002840F0CD80FFE744F28A
:10495000A460C2F200000168013103910399016073
:10496000039800282CD1FFE740F23C10C2F200006F
:104970000068006800280BD0FFE74FF0500080F37C
:104980001188BFF36F8FBFF34F8F0790FFE7FEE7EC
:1049900040F23C10C2F200000168029140F2441162
:1049A000C2F200010A6802600298086044F24460A2
:1049B000C2F20000016801310160FEF779F900E000
:1049C000FFE7039844F24061C2F20001096888429F
:1049D00067D3FFE7FFE740F23C10C2F20000006837
:1049E0000068002808D1FFE744F24060C2F20000EE
:1049F0004FF0FF31016053E040F23C10C2F2000082
:104A00000068C068C06806900698406805900398E2
:104A10000599884207D2FFE7059844F24061C2F247
:104A2000000108603CE0FFE706980430FEF724FC34
:104A30000699896A002905D0FFE706981830FEF725
:104A40001BFC00E0FFE70698C06A012101FA00F0B4
:104A500044F2D851C2F200010A6810430860069877
:104A6000C16A01EB810140F24C12C2F2000202EB7A
:104A700081010430019008460199FEF795FC0698E3
:104A8000C06A40F23411C2F200010968C96A884262
:104A900003D3FFE70120049000E0FFE7FFE79AE778
:104AA000FFE740F23410C2F200000068C06A00EB79
:104AB000800040F24C11C2F2000151F8200002289F
:104AC00003D3FFE70120049000E0FFE744F2B06069
:104AD000C2F200000068002803D0FFE70120049024
:104AE00000E0FFE707E044F25060C2F20000016816
:104AF00001310160FFE7049808B080BD80B588B03F
:104B0000059005980490002003900598002800F077
:104B10008580FFE7049840F23411C2F20001096871
:104B200088420BD0FFE74FF0500080F31188BFF3AD
:104B30006F8FBFF34F8F0690FFE7FEE70498806CFE
:104B400000280BD1FFE74FF0500080F31188BFF32E
:104B50006F8FBFF34F8F0790FFE7FEE70498816CDC
:104B6000013981640498C16A406C814254D0FFE7E6
:104B70000498806C00284DD1FFE704980430FEF7BC
:104B80007BFB00281CD1FFE70498C06A00EB800083
:104B900040F24C11C2F2000151F8200000280ED161
:104BA000FFE70498C06A012101FA00F044F2D851ED
:104BB000C2F200010A6822EA00000860FFE700E094
:104BC000FFE70498416CC1620498C16AC1F1050114
:104BD00081610498C06A012101FA00F044F2D852C0
:104BE000C2F200021368184310600498C26A02EB14
:104BF000820240F24C13C2F2000303EB8202043043
:104C000002901046029A01911146FEF7CDFB0198E1
:104C1000039000E0FFE700E0FFE700E0FFE7039814
:104C200008B080BD80B586B004900498C068C068A4
:104C30000390039800280BD1FFE74FF0500080F35A
:104C40001188BFF36F8FBFF34F8F0590FFE7FEE72B
:104C500003981830FEF710FB44F2D051C2F2000165
:104C60000968002922D1FFE703980430FEF704FB0E
:104C70000399C96A012202FA01F144F2D852C2F240
:104C800000021368194311600399CA6A02EB820299
:104C900040F24C13C2F2000303EB82020431019094
:104CA0001046FEF781FBFEF703F809E0039800F1D8
:104CB000180144F25460C2F20000FEF775FBFFE7F2
:104CC0000398C06A40F23411C2F200010968C96A4F
:104CD000884208D9FFE70120029044F2B061C2F295
:104CE0000001086002E000200290FFE7029806B091
:104CF00080BD000080B586B000200490039044F28F
:104D0000D050C2F20000006800280BD1FFE74FF03E
:104D1000500080F31188BFF36F8FBFF34F8F059062
:104D2000FFE7FEE7FEF75EFB44F2D050C2F2000060
:104D30000168013901600068002840F09B80FFE7AE
:104D400044F2C050C2F200000068002800F09180D8
:104D5000FFE7FFE744F25460C2F200000068002859
:104D600040D0FFE744F25460C2F20000C068C0685F
:104D7000049004981830FEF77FFA049904310190EA
:104D80000846FEF779FA0499C96A012202FA01F18C
:104D900044F2D852C2F20002136819431160049918
:104DA000CA6A02EB820240F24C13C2F2000303EB28
:104DB0008202043100901046FEF7F6FA0498C06AA9
:104DC00040F23411C2F200010968C96A884207D36F
:104DD000FFE744F2B060C2F200000121016000E090
:104DE000FFE7B7E70498002803D0FFE7FDF760FF6F
:104DF000FFE744F25060C2F200000068029002989F
:104E000000281DD0FFE7FFE7FFF794FD002807D03B
:104E1000FFE744F2B060C2F200000121016000E04F
:104E2000FFE7029801380290FFE702980028EBD1D3
:104E3000FFE744F25060C2F200000021016000E090
:104E4000FFE744F2B060C2F20000006800280ED014
:104E5000FFE7012003904EF60450CEF200004FF021
:104E600080510160BFF34F8FBFF36F8F00E0FFE70A
:104E7000FFE700E0FFE7FEF7E1FA039806B080BD28
:104E800080B584B000200290FDF700F944F2A860DC
:104E9000C2F200000068002817D0FFE744F2AC60BF
:104EA000C2F20000694648600220086042F669606C
:104EB000C0F6000045F63E11C0F600014FF48072C6
:104EC0000023FFF7BBFC029000E0FFE702980028F8
:104ED0000BD1FFE74FF0500080F31188BFF36F8FC5
:104EE000BFF34F8F0390FFE7FEE7029804B080BD49
:104EF00080B58CB0DDF838C00A900991089207930C
:104F0000002006900A9800280BD1FFE74FF05000D0
:104F100080F31188BFF36F8FBFF34F8F0B90FFE7C4
:104F2000FEE744F2A860C2F200000068002836D014
:104F3000FFE709980290089803900A98049009984E
:104F400005281FDCFFE7FFF7CDFC02280CD1FFE7A7
:104F500044F2A860C2F2000000680E9A02A9002381
:104F6000FFF7D0F806900CE044F2A860C2F200000F
:104F7000006802A900220192019BFFF7C3F8069086
:104F8000FFE70BE044F2A860C2F200000068079A55
:104F900002A90023FFF702FA0690FFE700E0FFE70F
:104FA00006980CB080BD5FEA400C08BF91F0000F7E
:104FB0004FEA8C234FEAC12243EA51514FEA1C5079
:104FC00018BF00F5F0404FEA300018BF41F0004133
:104FD0005FEA6C5C00F02980BCF1FF3F08BF40F045
:104FE00080407047130C06BF12044FF0100C4FF0B6
:104FF000000C130E04BF12020CF1080C130F04BFB7
:1050000012010CF1040C930F04BF92000CF1020C7E
:10501000D30F04BF52000CF1010C11464FF00002F7
:10502000A0F11F00A0EB0C00704711F0004F08BF6B
:10503000704731F000413FF4D5AF0B0C06BF0904B7
:105040004FF0100C4FF0000C0B0E04BF09020CF1D6
:10505000080C0B0F04BF09010CF1040C8B0F04BFEB
:1050600089000CF1020CCB0F04BF49000CF1010CBC
:10507000CCF1200322FA03F341EA030102FA0CF215
:10508000A0EB0C0000F10100704723F07F4720F0F7
:105090007F4C80EA030000F00040ACEB070303F50F
:1050A0007C5303F1FF032DE9804909B44FEA14430F
:1050B00024EA03484FEA154B25EA0B4E0FF204266B
:1050C00006EB13273E7803FB0667C7F5000707FBCF
:1050D00006F64FEAD64606F102064FEA543707FBBA
:1050E000066CCCF1005C4FEA1C472CEA074C0CFB29
:1050F00006F507FB06F404EB15464FEA9616490839
:105100005FEA320234BF00204FF000404FEAD1374F
:1051100006FB07FC4FEA1C4C0CFB0BF7D21B03FBF6
:105120000CF761EB07010CFB0EF7B0EB074072EBDD
:1051300017420CFB08F734BFA2EB0742B2EB074261
:1051400061EB17414FEA0C444FEA910706FB07FC5D
:105150004FEA1C4C0CFB0BF7B0EBC74072EB57321D
:1051600003FB0CF734BFA2EBC742B2EBC74261EBC3
:1051700057310CFB0EF7B0EBC70072EB57720CFB0C
:1051800008F734BFA2EBC702B2EBC70261EB57715D
:105190004FEA816141EA92114FEA826242EA90123B
:1051A0004FEA806004EBCC04039F4FEAD13706FB43
:1051B00007FC4FEA1C4C0CFB0BF7D21B03FB0CF754
:1051C00061EB07010CFB0EF7B0EB074072EB1742E7
:1051D0000CFB08F734BFA2EB0742B2EB074261EBCE
:1051E00017414FEA8C5504EB9C244FEA910706FBCC
:1051F00007FC4FEA1C4C0CFB0BF7B0EBC74072EB03
:10520000573203FB0CF734BFA2EBC742B2EBC742E5
:1052100061EB57310CFB0EF7B0EBC70072EB577226
:105220000CFB08F734BFA2EBC702B2EBC70261EB7D
:1052300057714FEA816141EA92114FEA826242EA74
:1052400090124FEA806015EB4C2544F100044FEAC0
:10525000D13706FB07FC4FEA1C4C0CFB0BF7D21BAB
:1052600003FB0CF761EB07010CFB0EF7B0EB0740FB
:1052700072EB17420CFB08F734BFA2EB0742B2EB0C
:10528000074261EB17414FEA813141EA92414FEA0F
:10529000823242EA90424FEA80304FEA0C7615EBB8
:1052A0001C1544F1000448EA03434EEA0B484FF052
:1052B000000EB2EB080C71EB030724BF62463946BF
:1052C0004EEB0E0E4FF0000B0018524149414BEBD4
:1052D0000B0BB2EB080C71EB03077BF1000B24BF47
:1052E000624639464EEB0E0E4FF0000B001852414D
:1052F00049414BEB0B0BB2EB080C71EB03077BF155
:10530000000B24BF624639464EEB0E0E51EA0207EF
:1053100018BF46F0010616EB0E7655F1000254F167
:10532000000103D5BDE88901BDE80088BDE8890119
:10533000BDE80048B619524141EB0101A3F1010358
:10534000704780807F7E7D7C7B7A797877767675F2
:105350007473727171706F6E6E6D6C6C6B6A6A696A
:105360006868676666656464636362616160605F04
:105370005F5E5E5D5D5C5C5B5B5A5A59595858577D
:1053800057565655555554545353525252515150E5
:1053900050504F4F4F4E4E4D4D4D4C4C4C4B4B4B38
:1053A0004A4A4A494949484848474747474646467E
:1053B00045454544444444434343434242424241B9
:1053C00041419C46002B30D477002BD04FEA370761
:1053D0001CB503B44FF010004FF01001BAF1000FEC
:1053E00006D0BCF1000FDCBF40F0080040F008011F
:1053F0004FF000000FBCBDE810400BF1010BBBF1FA
:10540000010F08BF5FEA170722BF12F1010211F175
:1054100001014FF0004143F1000300F0004043EA76
:1054200000007047F9D35708D0E746EA06464FEA2E
:10543000164613F1400F1FDD13F1200FDFBF164397
:105440000A46002120335B42BED0C3F1200746EA62
:1054500006464FEA164602FA07F746EA070622FA18
:1054600003F2C3F1200701FA07F742EA070221FA23
:1054700003F14FF00003A7E746EA020646EA0646B4
:105480004FEA164646EA0106BCBF46EA0646360C17
:105490004FF000034FF000024FF0000194E72DE9B8
:1054A000804C70B49A46934691E8380007C831EAB8
:1054B000400C48BF34EA430C03D5FFF7E6FDFFF785
:1054C00080FFF0BCBDE8008C2DE9804C70B49A469A
:1054D000934691E8380007C810F0804F08BF13F0DA
:1054E000804F03D100F005F8FFF76BFFF0BCBDE87B
:1054F000008C20F07F4723F07F4C80EA030000F00F
:10550000004007EB0C03A3F57C53A3F1FE0392F0DC
:10551000000F00F0B38095F0000F00F077802DE9C8
:1055200001494FEA114021EA00484FEA144624EAB3
:10553000064700FB06FC08FB06F607FB08F818EB1D
:1055400006484CEB164C00FB07F718EB07484CEBF2
:1055500017404FEA124B22EA0B4E4FEA154625EA56
:1055600006470BFB06FC0EFB06F607FB0EFE1EEBCA
:10557000064E4CEB164C0BFB07F71EEB074E4CEBA5
:10558000174B18EB0B0840F1000018EB0E0B58EB13
:10559000000840F100008F1A4FF000014FF00006A4
:1055A0003CBFC943661B14BFB5EB040C00213CBFD4
:1055B000C943F61B4FEA174427EA04454FEA1C4744
:1055C0002CEA074C04FB076205FB07F70CFB05F60A
:1055D00016EB074642EB174204FB0CFC16EB0C469D
:1055E00042EB1C421BEB060658EB020241414EEA1D
:1055F0008E0E46EA9E0601D5BDE80189B6195241D4
:1056000041EB0101A3F10103BDE801894FEA144513
:1056100024EA05464FEA114721EA074C05FB07F447
:1056200006FB07F70CFB06F111EB074144EB1744AF
:1056300005FB0CFC11EB0C4144EB1C444FEA1247F8
:1056400022EA074C05FB07F206FB07F70CFB06F600
:1056500016EB074642EB174205FB0CFC16EB0C461B
:1056600042EB1C456A1854F1000148BF7047B61957
:10567000524141EB0101A3F10103704795F0000F86
:1056800037D04FEA114221EA02464FEA144724EA92
:10569000074C02FB07F106FB07F70CFB06F414EBC3
:1056A000074441EB174102FB0CFC14EB0C4441EBAB
:1056B0001C414FEA154725EA074C02FB07F506FB9C
:1056C00007F70CFB06F616EB074645EB174502FB02
:1056D0000CFC16EB0C4645EB1C42121951F1000173
:1056E00048BF7047B619524141EB0101A3F10103D4
:1056F00070474FEA144524EA05464FEA114721EA6C
:10570000074C05FB07F106FB07F70CFB06F212EB53
:10571000074241EB174105FB0CFC12EB0C4251EB2D
:105720001C414FF0000648BF7047921841EB010141
:10573000A3F101037047490050EAC12018BF0420BB
:105740004A0D18BF40F0010040F2FF72B2EB515F0A
:1057500008BF40F00200012808BF0520704730381C
:105760000A2801D2012070470020704710B5002997
:105770000AD00878002807D005487844FBF778FE5F
:10578000002801D0002010BD0248784410BD000060
:10579000EE010000E601000010B500290AD00878EB
:1057A000002807D005487844FBF762FE002801D0A6
:1057B000002010BD0248784410BD0000DE0100004A
:1057C000D6010000FBF75DBAFBF792BB00000000BA
:1057D0000000000030313233343536373839414239
:1057E0004344454640305800303132333435363743
:1057F00038396162636465664030780004000008EF
:1058000000000000000000020001000010303132F2
:1058100033343536373839616263646566787000D1
:1058200030313233343536373839414243444546D6
:105830005850000002400000000000A000000000DE
:1058400005400000000000C8000000000C400000FF
:105850000000409C00000000194000000020BCBE79
:105860000000000034400000BFC91B8E000000048F
:10587000B5400000504BCFD06607E2CF01000000DA
:105880006C4100003E8251AADFEEA7340100000007
:10589000D9420000DCB5A0E23A301F97FFFFFFFFBE
:1058A000B4450000FD25A0C8E9A3C14FFFFFFFFFDD
:1058B000FF3F00000000008000000000FF3F0000EC
:1058C0000000008000000000020406080000000044
:1058D0000102030401020304060708097461736BE3
:1058E000207072696F726974792073776974636864
:1058F00065642066726F6D207461736B2D320A00CF
:105900007461736B31207072696F726974793A20B7
:10591000256C75202C207461736B32207072696F56
:10592000726974793A20256C750A007461736B2D65
:1059300031007461736B2D320049444C4500546D45
:105940007220537663000000985A0008000000207F
:105950000800000028010008A05A000808000020E4
:10596000B04E0000440100081C000000430000008D
:10597000F8FFFFFF0C0000000E0000000F00000009
:105980002E0000001001000043000000F8FFFFFFA0
:105990000040404040404040404041414141414042
:1059A00040404040404040404040404040404040F7
:1059B0004005020202020202020202020202020286
:1059C000022020202020202020202002020202028B
:1059D00002029090909090901010101010101010E3
:1059E00010101010101010101010101002020202EF
:1059F0000202888888888888080808080808080833
:105A0000080808080808080808080808020202022E
:105A10004000000000000000000000000000000046
:105A20000000000000000000000000000000000076
:105A30000000000000000000000000000000000066
:105A40000000000000000000000000000000000056
:105A50000000000000000000000000000000000046
:105A60000000000000000000000000000000000036
:105A70000000000000000000000000000000000026
:105A80000000000000000000000000000000000016
:105A9000000000000000000000A24A04AAAAAAAA6E
:04000005080000ED02
:00000001FF
