:020000040800F2
:10000000A8060020350200083D0200083F02000853
:1000100041020008430200084502000800000000F9
:10002000000000000000000000000000470200087F
:1000300049020008000000004B020008A11400085B
:100040004F0200084F0200084F0200084F0200084C
:100050004F0200084F0200084F0200084F0200083C
:100060004F0200084F0200084F0200084F0200082C
:100070004F0200084F0200084F0200084F0200081C
:100080004F0200084F0200084F0200084F0200080C
:100090004F0200084F0200084F0200084F020008FC
:1000A0004F0200084F0200084F0200084F020008EC
:1000B0004F0200084F0200084F0200084F020008DC
:1000C0004F0200084F0200084F0200084F020008CC
:1000D0004F0200084F0200084F0200084F020008BC
:1000E0004F0200084F0200084F02000800F002F81B
:1000F00000F090F80AA090E8000C82448344AAF132
:100100000107DA4501D100F085F8AFF2090EBAE82F
:100110000F0013F0010F18BFFB1A43F0010318473B
:10012000E02C0000002D0000103A24BF78C878C1F0
:10013000FAD8520724BF30C830C144BF04680C60ED
:10014000704700000023002400250026103A28BF35
:1001500078C1FBD8520728BF30C148BF0B60704739
:100160006E2900F03F81702900F08182662902F03B
:10017000BD85652902F0BA85672902F0B785612936
:1001800002F0B68503681B0A28BF41F08001692987
:1001900000F0EC80642900F0E980752900F0E68029
:1001A0006F2900F00F82782900F04D82E92900F0D4
:1001B000A981E42900F0A681F52900F0A381EF29A7
:1001C00000F00C82F82900F04C820368DB0928BF9C
:1001D00041F08001632900F04D87732900F05287B8
:1001E000E32900F05D87F32900F062870020704763
:1001F0001FB500F0B3FF04000020002102F032F927
:10020000401C60600020002102F016F9E0601FBD74
:1002100010B510BD00F074FF1146FFF7E9FF01F0C3
:1002200023FB01F051F803B4FFF7F2FF03BC01F028
:1002300099F800000948804709480047FEE7FEE7B3
:10024000FEE7FEE7FEE7FEE7FEE7FEE7FEE7FEE786
:1002500004480549054A064B70470000C5140008CC
:10026000ED000008A8000020A8060020A802002039
:10027000A80200200FB41CB5084B06AA7B446946AF
:100280000090059800F0C7F804460020694600F089
:10029000D5F820461CBC5DF814FB0000BD01000031
:1002A00070477047704770B5044685690068C1069D
:1002B00001D5302600E02026C00707D070BDD4E964
:1002C000012130469047206A401C20626D1EF6D501
:1002D00070BD70B5044685690078C00707D170BD50
:1002E000D4E9012120209047206A401C20626D1E25
:1002F000F6D570BD09684A0501D540B27047C905F9
:10030000FCD500B2704709684A0501D5C0B27047F4
:10031000C905FCD580B2704770B50C460546012A68
:1003200005D02878800600D5EA69002302E0012381
:1003300005E05B1C934202D2E05C0028F9D1A86979
:10034000E618C01AA861286A184428622846FFF7F0
:10035000AAFF04E0D5E9012114F8010B9047B4424B
:10036000F8D32846FFF7B5FF70BD00002DE9F04136
:100370000646002410687529314616A510D0FFF7EF
:10038000B9FF002802DA404213A507E031688A0766
:1003900001D512A502E0490704D511A5012401E009
:1003A000FFF7B1FF00210A2206F1240709E0B0FBA4
:1003B000F2FCB0FBF2F302FB1C003030785418461C
:1003C000491C0028F3D123462A463046BDE8F041B7
:1003D00000F061BA000000002D0000002B000000BA
:1003E0002000000011680268006A530501D50870FA
:1003F0000AE0D30501D5088006E0130603D5C2172D
:10040000C1E9000200E008600120704701694A1C50
:1004100002610878704700B58FB0CDE90131002145
:10042000059105497944CDE903101146684600F06D
:1004300029F90FB000BD0000E5FFFFFF0A6802F8D0
:10044000010B0A60704700002DE9FF5F15468A46E0
:100450000446DFF8AC80F8440027D8E900103E4697
:10046000CDE9001010E03AF816106A4602A800F034
:1004700023FE411C07D02178890603D5E26939188B
:1004800091420DD80744761C2078800602D5E06999
:10049000B84205DDAE42E6DB3AF816000028E2D1AC
:1004A000A069C01BA0612046FFF7FDFED8E900103F
:1004B000CDE90010002017E03AF818106A4602A8AB
:1004C00000F0FAFDB0F1FF3F81460BD000250DF1A1
:1004D000080B05E0D4E901211BF8050090476D1CCD
:1004E0004D45F7D308F10100B0428046E4DB206AB5
:1004F000384420622046FFF7ECFEBDE8FF9F000075
:100500009A2800002DE9F0418046D21D22F0070212
:100510000025D2E90002F52915A614D0011E72F1BA
:10052000000106DA0023D0EB030063EB020211A600
:1005300008E0D8F800108B0701D50FA602E04907A4
:1005400001D50EA601251146002408F1240704E078
:1005500000F05CF930323A55641C50EA0102F7D1E0
:100560002B46324621464046BDE8F04100F093B9A3
:10057000000000002D0000002B0000002000000003
:1005800030B4002100F1240408E002F00705D2088D
:10059000303542EA4372DB086554491C52EA0305D0
:1005A000F3D10468002310A2250708D504F0200425
:1005B0000C4304D0C46901230CA2641EC46130BC86
:1005C00000F069B910B5044621461068FFF79BFE9C
:1005D00002462046BDE810400023D1E7D21D22F09C
:1005E0000701D1E90023CBE7000000003000000044
:1005F000F0B40D460188090502D5214C7C4402E087
:100600001F4C7C440E34002100F1240608E002F067
:100610000F071209E75D42EA03721B097754491C70
:1006200052EA0307F3D102780023120704D5702D94
:1006300006D009B1022311342246F0BC00F02BB9D8
:1006400001231034F8E770B504460D4621461068C2
:10065000FFF759FE024629462046BDE870400023B8
:10066000C6E7D21D22F00703D3E90023C0E70368E1
:10067000126843F0200303600823C3610023B7E737
:10068000FC2600002DE9F05F894604464FF0000A81
:10069000DFF874B1FB44C0F820A02046E168884729
:1006A000002874D0252806D0D4E901219047206A7B
:1006B000401C2062F1E700265F462046E16888473B
:1006C0002028054607DB312D05D2781910F8200CBB
:1006D00008B10643F1E7B00701D526F00406C4F8D7
:1006E0001CA00027C4F818A02A2D09D0284601F024
:1006F0009BFE38B304EB8708303DC8F8185019E06A
:1007000059F8041B204604EB87029161E168884791
:10071000012F054618D1E069002820DA26F02006CE
:100720001DE0D8F8180000EB800005EB40003038E1
:10073000C8F818002046E1688847054601F074FEB5
:100740000028EED1012F0AD02E2D08D12046E168D5
:1007500088477F1C0546022F46F02006C4DBA069AF
:10076000002803DA404246F00106A061F00701D0FC
:1007700026F010066C2D0BD0682D09D04C2D39D0E9
:100780006A2D35D0742D35D07A2D33D016E038E06F
:10079000E1682F4620468847B842054609D16C2FAC
:1007A00026D04FF48060E16806432046884705461E
:1007B00004E06C2F1AD04FF4807006430DB3A5F1FE
:1007C0004100192802D8203546F400664A462946D9
:1007D000204626604E46FFF7C3FC80B101280BD0AF
:1007E000F61D26F0070000F1080956E74020E4E76F
:1007F0008020D8E70020D6E706F104094DE7284617
:1008000052E7206ABDE8F09F8C26000030B5B0F1B9
:100810000A0271F100034FEA900E4EEA817EB0EBBE
:100820000E0061EB91014FEA101E4EEA017E10EBC3
:100830000E0041EB11114FEA102E4EEA016E10EB43
:100840000E0041EB11214FEA104E4EEA014E10EB23
:100850000E0041EB1141401841F100014FEAD00078
:1008600040EA41704FEAD1014FEA810444EA9074B2
:1008700010EB800544EB01046D1944EB0404521B9A
:10088000A3414FF0000348BF0A3200D530BD401CE1
:1008900041F1000130BD2DE9F0470D4699469246E1
:1008A000044600F124080168880604D5E06921F0B7
:1008B0001001216000E00120A84201DD471B00E09B
:1008C0000027A1697A1902EB0900081AA0612078B3
:1008D000C00602D42046FFF7E6FC002608E0D4E973
:1008E00001211AF806009047206A401C761C2062FD
:1008F0004E45F4DB2078C0060AD52046FFF7D3FC2E
:1009000006E0D4E9012130209047206A401C206293
:10091000381EA7F10107F4DC07E0D4E9012118F83B
:1009200005009047206A401C2062281EA5F10105A1
:10093000F3DC2046FFF7CDFC2078000602D502202C
:10094000BDE8F0870120FBE72DE9FF4F0C461E466E
:100950004FF0FF378BB0D2E90001DDF860800A90DC
:100960008A46C1F30A5505B93D46002108464FF0B5
:100970000000BAF1000F00F4400005DA00EB80003F
:100980004FF4400101EA50004FEA9059B9F1010FCC
:1009900000DDB9460A9850EA4A000ED044F61050DD
:1009A000A5F2FF3545432F14B8F1000F1ED0754254
:1009B000291E1EDDC9F100021CE0B8F1010F4FF045
:1009C000000001D0302103E0F24305E02154401C37
:1009D000B042FBDB30460022002121540B99C1F8C4
:1009E0000880C1E900200FB0BDE8F08FBD1B6D1C71
:1009F000DEE74A4600DA694206A800F0F3FB06ABE0
:100A000093E8070003AB83E8070050460A9901F01A
:100A10002FF98DE80700A0F500501F3800900398CB
:100A2000002D0ADD42F21F014A460844002303A9B3
:100A30000390684601F098FB09E0A0F500504A4693
:100A40001F38002303A90390684601F0A2FB8DE83C
:100A500007000004000C03D04FF0FF30410800E015
:100A60001046B8F1000F03D00022009215461EE098
:100A7000751E05D4FFF7CAFE303262556D1EF9D5DA
:100A8000B3460122084302D000227F1C04E02078F4
:100A9000302801D100227F1E002A099784D01DE052
:100AA000112D07DAFFF7B2FE303262556D1C50EAA5
:100AB0000102F5D1084302D00098C8B10EE0002130
:100AC000681E05E0235C625C63542254401E491C8E
:100AD0008142F7DBAB46A81B401E0990002004F8BA
:100AE0000B000B98099AC0F80880C0E9002B7AE740
:100AF00011264FF0000857E72DE9F04F88460446CD
:100B0000D21D22F0070191B0D1E90001CDE90A011F
:100B100001F076FC02460B98C00F01D02D2007E0B3
:100B20002068810701D52B2002E0202101EAC000C6
:100B3000032A099001D0072A05DB034641462046D7
:100B400000F010FB0BE12078800601D5E06900E0A1
:100B50000620B8F1650F814606D0B8F1660F18D0AF
:100B6000B8F1670F70D131E00020B9F1110F00909A
:100B700001DB112301E009F101030AAA01A90CA874
:100B8000FFF7E2FEDDE90C70002609F1010583465E
:100B900047E001204B4600904FF000470AAA01A908
:100BA0000CA8FFF7D1FEDDE90DB00C995D460026DB
:100BB00010B909F101000D18B9EB050003D4C0F11B
:100BC000FF3609F10105A5EB09002BE0B9F1010F92
:100BD00001DA4FF001090020B9F1110F00904846E9
:100BE00001DD112300E003460AAA01A90CA8FFF7C2
:100BF000ABFEDDE90C704D460026834620780007E9
:100C00000AD4AB4500DA5D4601A8012D04DD411987
:100C100011F8011C302907D04F4502DA17F1040FF3
:100C200004DA012082460FE06D1EEEE7002F02DCA1
:100C3000ED1B3E4403E0781CA84200DD7D1CB81B80
:100C400000F1010A4FF000472078000703D4AA45BD
:100C500001DB4FF0FF3A0021B7F1004F0DF14308DF
:100C60008DF8431024D002202B23002F01DA7F427D
:100C70002D230A21021EA0F1010000DC5FB197FBC9
:100C8000F1FC97FBF1F201FB1C7C17460CF1300CD8
:100C900008F801CDEEE7A8F10100037021880905ED
:100CA00001D5452100E06521A0F1010800F8011CF3
:100CB00009980FA9A1EB0807FF1D00B101204119F8
:100CC00001EBEA70A1693844081A401EA06120783F
:100CD000C00602D42046FFF7E6FA099828B1D4E905
:100CE00001219047206A401C20622078C00622D54E
:100CF0002046FFF7D8FA1EE0002E04DBB34502DDE4
:100D000001A8805D00E03020D4E901219047206AED
:100D1000401C2062761CAAF101005FEA000A0AD199
:100D200000F01CFAC0680168405CD4E901219047DA
:100D3000206A401C2062281EA5F10105DCDC07E0CA
:100D4000D4E9012118F8010B9047206A401C206269
:100D5000381EA7F10107F3DC2046FFF7BAFA03209B
:100D600011B041E62DE9F04F04460D46D21D22F0A8
:100D7000070089B0D0E900974846394601F040FBAA
:100D80000246F80F01D02D2307E02068810701D526
:100D90002B2302E0202101EAC0038DF820300BB1A3
:100DA000012000E00020032A824601D0072A04DB4C
:100DB0002946204600F0D6F93FE12078800601D48C
:100DC0000D2500E0E569C7F30A560D2D49DA00212B
:100DD0004FEA175B08464FF00000002F00F4400078
:100DE00007DA00EB80004FF4400100EBD07001EA1D
:100DF00060008115012901DD4FF0FF3100224FEA2B
:100E0000850CBCF1180F06D31346ACF118004FF057
:100E10008052C24003E04FF4801323FA0CF30CF12C
:100E20000C0CBCF1200F04D3ACF1200C09FA0CF02F
:100E300001E007FA0CF000294FF0004801DD18B975
:100E40000FE00ED140450CD319EB02095F4121B9E7
:100E5000404502D19F4329EA0209BBEB175F00D04E
:100E6000761C2088000502D57B48784402E07A4849
:100E70007844193808AA302302F80A30037C0AF1B2
:100E80000101002E0AF1020A53546A4602DC4FF0B7
:100E9000300101E04FF031014FF001088DF80010F2
:100EA00002D0A6F2FF3603E059EA470100D06B4EAC
:100EB000002D02DC2178090704D54FF002082E210D
:100EC0008DF80110C44600210BE0C7F303433F0136
:100ED000C35C491C6D1E02F80830052908F10108A1
:100EE00001DA002DF1DC00210CE000EB1973491C44
:100EF0001B786D1E082902F808304FEA091908F11D
:100F0000010801DA002DF0DC21688B0602D516E01D
:100F1000A8F10108E04505DD02EB080313F8013CE8
:100F2000302BF5D0B8F1000F09DD02EB080313F800
:100F3000013C2E2B03D1090701D4A8F10108002D93
:100F400005DD3E2102F808106D1E08F10108407C05
:100F5000002E02F8080008F1010804DA2D2076427C
:100F600002F8080002E02B2002F808000A214FF4E2
:100F70007A70864208F101080BDB96FBF0F3303300
:100F800002F8083096FBF0F308F1010800FB136645
:100F900001E0642E0CDB642096FBF0F3303302F8A2
:100FA000083096FBF0F308F1010800FB136601E03E
:100FB0000A2E06DB96FBF1F0303002F8080008F14B
:100FC000010896FBF1F001FB1060303002F80800D8
:100FD000A16908F1010808EB050202EB0A00081AF2
:100FE000A0612078C00602D42046FFF75CF9216A90
:100FF00008AE01EB0A00206204E0D4E9012116F8F2
:10100000010B9047BAF1010AF7D22078C00602D549
:101010002046FFF748F96E4609E016F8010B3E2816
:101020000FD0D4E901219047206A401C2062B8F11A
:101030000108F2D22046FFF74CF909B00320BDE8C1
:10104000F08F206A2844206203E0D4E90121302097
:1010500090476D1EEBD3F8E7DA1E000002FCFFFF9D
:1010600010B5436913B1AFF3008001E0FFF754F905
:10107000012010BD127800F124010A7000224A708C
:101080000122EDE711684FF0FF32E9E710B543693F
:1010900013B1AFF3008001E0FFF7D6F9012010BDD6
:1010A000128800F1240182840022C2840122EDE72B
:1010B00011684FF0FF32E9E72DE9F04116460C4682
:1010C000054600F043F8036893F80101012807D0B2
:1010D000FF2C12D8185D80B101202C70BDE8F08182
:1010E000D3F807013246214603F20713C7182846F2
:1010F000BC46BDE8F041002360474FF0FF30EDE70C
:10110000754600F0EBF8AE4605006946534620F000
:101110000700854618B020B5FFF79AF8BDE82040D3
:101120004FF000064FF000074FF000084FF0000BA3
:10113000AC46ACE8C009ACE8C009ACE8C009ACE812
:10114000C00921F007018D467047000010B500F07E
:1011500005F8001D10BD00BF0D13000000487047CA
:10116000280000202DE9F0411F46044603260168AF
:10117000072A01F4006004DB08B116A505E016A5F6
:1011800003E008B115A500E015A521F010002060CE
:10119000A069C01EA0610FB1401EA0612046FFF7EC
:1011A00082F84FB1D4E9012138469047206A401CAB
:1011B0002062C01C206206E0206AFAE7D4E901211F
:1011C00015F8010B9047761EF8D22046FFF781F8FC
:1011D000BDE8F0814E414E006E616E00494E460002
:1011E000696E66002DE9F047814616468AB035489B
:1011F00078440DC88DE80D0032487844801C03AC5B
:101200000DC884E80D0041F69B300844372190FB5F
:10121000F1F290FBF1F5A5F1800501FB12041B3CF6
:1012200002D56442012000E00020DFF898A080464B
:101230000027FA44AAF1BE0A0EE0E0070AD03246BF
:10124000684607EB470101230AEB810100F0A1FF8B
:101250008DE8070064107F1C002CEED1194F7F44ED
:10126000AE3F19E0E80715D007EB04100DF1180A9E
:1012700090E80E008AE80E00C068F04201D198198B
:1012800008903246012306A903A800F082FF03ABB1
:1012900083E807006D10641C002DE3D14FF00103BB
:1012A00032466946B8F1000F03A802D000F05CFF97
:1012B00001E000F06EFFC9E90001C9F808200AB09A
:1012C000BDE8F087E41B000010B50446AFF30080D2
:1012D0002046BDE81040FEF7A6BF0000004870475A
:1012E000080000204FF0013C50F8042B51F8043B5B
:1012F0009A4221D1A2EB0C03934313EACC1317D1EA
:1013000050F8042B51F8043B9A4215D1A2EB0C0380
:10131000934313EACC130BD150F8042B51F8043B40
:101320009A4209D1A2EB0C03934313EACC13DBD00E
:101330004FF00000704700BFD01A01BAB1FA81F136
:1013400001F0180122FA01F0CB40DBB2C0B2C01AA2
:10135000C1F120012CFA01F3D11A914311EAC31112
:10136000E6D1704701491820ABBEFEE72600020017
:101370007047000080B500F001F880BD83B0002008
:101380000290019041F20000C4F20200016841F4B1
:1013900080310160FFE741F20000C4F20200006802
:1013A00000F400300190029801300290FFE70198AC
:1013B00000210028009107D1FFE70298B0F5A06056
:1013C00018BF01200090FFE70098C0070028E2D175
:1013D000FFE741F20000C4F2020000688003002829
:1013E00003D5FFE70120019002E000200190FFE714
:1013F0000198012850D1FFE742F20000C4F2020038
:10140000016841F010010160016821F003010160F1
:10141000016841F00201016041F20400C4F20200DF
:101420000168016001680160016841F48061016048
:10143000016821F47C110160016841F4E811016048
:1014400041F20000C4F20200016841F080710160C5
:10145000FFE741F20000C4F20200006880010028AA
:1014600001D4FFE7F5E741F20400C4F2020001688D
:1014700021F003010160016841F002010160FFE712
:1014800041F20400C4F20200006800F00C000828D9
:1014900001D0FFE7F4E700E0FFE703B0704700008A
:1014A00040F2A000C2F200000068002808D0FFE768
:1014B00040F2A000C2F20000016801390160FFE7BC
:1014C0007047000080B541F20000C4F202000168DC
:1014D00041F00101016041F20401C4F202010A6815
:1014E0000023CFF6FF031A400A6002684FF6FF732D
:1014F000CFF6F6631A400260026822F4802202608E
:10150000086820F4FE00086041F20800C4F20200FE
:101510004FF41F010160FFF72DFF4EF60850CEF289
:1015200000004FF00061016080BD000082B0024603
:101530008DF8070000919DF9070000280AD4FFE705
:10154000009800019DF907104EF20042CEF2000211
:1015500088540BE0009800019DF8071001F00F017E
:101560004EF61452CEF200028854FFE702B07047E4
:1015700080B582B041F21800C4F20200016841F067
:101580000501016040F60001C4F201010A6822F081
:101590000F020A600A6822F0F0020A6041F21401A8
:1015A000C4F202010A6842F001020A601021C4F28A
:1015B000020142F24C42C4F201020A6040F26801A8
:1015C000C2F200011422C4F2020211600C21C4F222
:1015D000020102220A600821C4F202010A6842F0F4
:1015E000A0020A600A6842F480620A600A6842F453
:1015F00080720A600A6842F001020A60016841F4E0
:101600000071016041F20400C4F20200016841F47B
:1016100000410160016821F48041016042F2104004
:10162000C4F20100016841F007010160016841F066
:101630003801016042F22C40C4F20100016841F41B
:101640008011016042F23440C4F20100016841F0AF
:101650002001016042F20440C4F20100016841F43B
:101660008071016042F20840C4F20100016841F457
:1016700080710160016841F0030101600121019066
:10168000084600F01DF80198016841F0040101606E
:10169000FFE742F20840C4F201000068400700285A
:1016A00001D4FFE7F5E742F20840C4F20100016807
:1016B00041F001010160012000F002F802B080BD9C
:1016C00080B582B00190FFE70198411E019100288A
:1016D00005D0FFE74FF47A7000F004F8F4E702B0A9
:1016E00080BD000081B00090009840F2A001C2F2DD
:1016F00000010860FFE740F2A000C2F200000068AD
:10170000002801D0FFE7F6E701B07047F0B595B0CB
:101710001D9BDDF870C0DDF86CE01A9C15460E4686
:101720000746ADF85200ADF85010ADF84E20CDF898
:1017300044E010940F93CDF838C0BDF85200BDF8C6
:101740005010401A0D950C960B970A9101F0CFF8A6
:101750000E9A0F9BDDF840C0DDF844E0099010467A
:101760000891194662467346CDF81CC0CDF818E0C2
:1017700001F0D2F9099A05901046089B0491194688
:10178000059A049B01F0CAF8BDF84E200A9BD21AB4
:1017900003901046029101F0AAF8039A01901046B6
:1017A000029B00911946019A009B00F019FF079ACD
:1017B000069B00F06DFE15B0F0BD000083B00B4637
:1017C00002908DF8071000929DF80700072821DC91
:1017D000FFE79DF8070080000F2101FA00F0029951
:1017E0000A6822EA00000860009800689DF8071067
:1017F0008900884002990A68104308600098406890
:1018000080009DF807108900884002990A681043FB
:10181000086026E09DF8070000F007008DF807003B
:101820009DF8070080000F2101FA00F002994A6834
:1018300022EA00004860009800689DF807108900BF
:10184000884002994A6810434860009840688000C8
:101850009DF807108900884002994A681043486043
:10186000FFE703B07047000080B58CB000200B90FC
:1018700000F06AF9322000F0DFF8FFF779FE00F09F
:10188000A1F9FFE700200990089040F26801C2F238
:10189000000109886A460023C4F25903D3609060AE
:1018A0005060106040F6FF72079008460799FFF7F6
:1018B0002DFF0991089008980999042200F014F866
:1018C000089A099B40F26C00C2F2000042F6F05107
:1018D000C0F600010690FEF7CDFC0699059008467B
:1018E00000F09CF9CEE7000080B594B00B4684462A
:1018F0009646139112908DF847209DF847000138C5
:1019000001460328109100F295801099DFE801F05C
:1019100002264A6E1298139940F62C02C4F2000275
:1019200012880F9010460E9100F0E1FF0F9A0D9073
:1019300010460E9B0C9119460D9A0C9B00F0EEFF81
:1019400000220023C4F2590300F04AFE00F0A0FF79
:1019500040F63401C4F2000108806BE0129813993C
:1019600040F62C02C4F2000212880B9010460A9135
:1019700000F0BDFF0B9A099010460A9B089119468A
:10198000099A089B00F0CAFF00220023C4F2590301
:1019900000F026FE00F07CFF40F63801C4F20001A2
:1019A000088047E01298139940F62C02C4F2000216
:1019B000128807901046069100F099FF079A05904B
:1019C0001046069B04911946059A049B00F0A6FF59
:1019D00000220023C4F2590300F002FE00F058FF79
:1019E00040F63C01C4F20001088023E012981399EC
:1019F00040F62C02C4F200021288039010460291B5
:101A000000F075FF039A01901046029B0091194661
:101A1000019A009B00F082FF00220023C4F25903C8
:101A200000F0DEFD00F034FF40F64001C4F200019A
:101A30000880FFE714B080BD81B00146ADF8020018
:101A400041F21800C4F20200026842F0090202608A
:101A500040F60440C4F20100026842F0B0020260A5
:101A6000026842F00B02026041F21C00C4F2020064
:101A7000026842F00402026040F61C00C4F200005A
:101A8000028842F4D0420280028842F0680202805A
:101A900040F60000C4F20000028842F0800202809A
:101AA00040F20000C2F2000000684DF68362C4F20A
:101AB0001B32A0FB0202920C40F62803C4F2000382
:101AC0001A80BDF80220002A04D1FFE70120ADF8FA
:101AD0000200FFE740F20000C2F200000068BDF81B
:101AE000021040F62802C4F2000212885143B0FBF3
:101AF000F1F040F62C01C4F200010880088840088B
:101B000040F64001C4F20001088040F62000C4F213
:101B10000000018841F480510180018841F4807106
:101B2000018040F61400C4F20000018841F0010178
:101B3000018040F60000C4F20000018841F001017C
:101B4000018001B07047000080B584B040F2000011
:101B5000C2F2000000684DF68361C4F21B31A0FBA5
:101B60000101890C03914EF21001CEF20001002216
:101B70000A60039B013B4EF2140CCEF2000CCCF831
:101B800000304FF0FF334FF00F0C029018460191D8
:101B900061460092FFF7CAFC4EF21800CEF2000038
:101BA000009901600198026842F004020260026834
:101BB00042F002020260026842F00102026004B0D8
:101BC00080BD000080B582B041F21800C4F202006E
:101BD000016844F2050211430160032000900220D5
:101BE000019040F60000C4F2010009216A46FFF7A7
:101BF000E5FD43F60800C4F2010041F64C510180B6
:101C000043F60C00C4F20100018841F00801018094
:101C1000018841F40051018002B080BD82B0019082
:101C200000208DF80300FFE701989DF80310405C49
:101C300000281BD0FFE701989DF80310405C43F695
:101C40000401C4F201010880FFE743F60000C4F27A
:101C5000010000880006002801D4FFE7F5E7FFE750
:101C60009DF8030001308DF80300DDE702B07047F6
:101C70005FEA400C08BF91F0000F4FEA8C234FEA57
:101C8000C12243EA51514FEA1C5018BF00F5F04001
:101C90004FEA300018BF41F000415FEA6C5C00F091
:101CA0002980BCF1FF3F08BF40F080407047130C13
:101CB00006BF12044FF0100C4FF0000C130E04BFBF
:101CC00012020CF1080C130F04BF12010CF1040CEA
:101CD000930F04BF92000CF1020CD30F04BF52000B
:101CE0000CF1010C11464FF00002A0F11F00A0EB17
:101CF0000C00704711F0004F08BF704731F00041F1
:101D00003FF4D5AF0B0C06BF09044FF0100C4FF099
:101D1000000C0B0E04BF09020CF1080C0B0F04BFE2
:101D200009010CF1040C8B0F04BF89000CF1020CAB
:101D3000CB0F04BF49000CF1010CCCF1200322FAB7
:101D400003F341EA030102FA0CF2A0EB0C0000F1EC
:101D50000100704723F07F4720F07F4C80EA0300AA
:101D600000F00040ACEB070303F57C5303F1FF03E5
:101D70002DE9804909B44FEA144324EA03484FEAA5
:101D8000154B25EA0B4E0FF2042606EB13273E787F
:101D900003FB0667C7F5000707FB06F64FEAD646C2
:101DA00006F102064FEA543707FB066CCCF1005CE3
:101DB0004FEA1C472CEA074C0CFB06F507FB06F420
:101DC00004EB15464FEA961649085FEA320234BF23
:101DD00000204FF000404FEAD13706FB07FC4FEAE6
:101DE0001C4C0CFB0BF7D21B03FB0CF761EB070140
:101DF0000CFB0EF7B0EB074072EB17420CFB08F739
:101E000034BFA2EB0742B2EB074261EB17414FEA46
:101E10000C444FEA910706FB07FC4FEA1C4C0CFBF5
:101E20000BF7B0EBC74072EB573203FB0CF734BF34
:101E3000A2EBC742B2EBC74261EB57310CFB0EF786
:101E4000B0EBC70072EB57720CFB08F734BFA2EB84
:101E5000C702B2EBC70261EB57714FEA816141EAF9
:101E600092114FEA826242EA90124FEA806004EBDC
:101E7000CC04039F4FEAD13706FB07FC4FEA1C4C0A
:101E80000CFB0BF7D21B03FB0CF761EB07010CFB00
:101E90000EF7B0EB074072EB17420CFB08F734BFAC
:101EA000A2EB0742B2EB074261EB17414FEA8C55B8
:101EB00004EB9C244FEA910706FB07FC4FEA1C4CFD
:101EC0000CFB0BF7B0EBC74072EB573203FB0CF780
:101ED00034BFA2EBC742B2EBC74261EB57310CFBF8
:101EE0000EF7B0EBC70072EB57720CFB08F734BF6C
:101EF000A2EBC702B2EBC70261EB57714FEA8161F7
:101F000041EA92114FEA826242EA90124FEA8060FF
:101F100015EB4C2544F100044FEAD13706FB07FCD2
:101F20004FEA1C4C0CFB0BF7D21B03FB0CF761EBCD
:101F300007010CFB0EF7B0EB074072EB17420CFBEE
:101F400008F734BFA2EB0742B2EB074261EB17413F
:101F50004FEA813141EA92414FEA823242EA9042AD
:101F60004FEA80304FEA0C7615EB1C1544F1000463
:101F700048EA03434EEA0B484FF0000EB2EB080C60
:101F800071EB030724BF624639464EEB0E0E4FF04D
:101F9000000B0018524149414BEB0B0BB2EB080C04
:101FA00071EB03077BF1000B24BF624639464EEB11
:101FB0000E0E4FF0000B0018524149414BEB0B0B3A
:101FC000B2EB080C71EB03077BF1000B24BF6246F8
:101FD00039464EEB0E0E51EA020718BF46F00106D5
:101FE00016EB0E7655F1000254F1000103D5BDE861
:101FF0008901BDE80088BDE88901BDE80048B6193F
:10200000524141EB0101A3F10103704780807F7EC3
:102010007D7C7B7A7978777676757473727171705E
:102020006F6E6E6D6C6C6B6A6A6968686766666510
:102030006464636362616160605F5F5E5E5D5D5C9E
:102040005C5B5B5A5A59595858575756565555550F
:102050005454535352525251515050504F4F4F4E6F
:102060004E4D4D4D4C4C4C4B4B4B4A4A4A494949BD
:1020700048484847474747464646454545444444FF
:102080004443434343424242424141419C46002B28
:1020900030D477002BD04FEA37071CB503B44FF08C
:1020A00010004FF01001BAF1000F06D0BCF1000F84
:1020B000DCBF40F0080040F008014FF000000FBC0A
:1020C000BDE810400BF1010BBBF1010F08BF5FEA47
:1020D000170722BF12F1010211F101014FF0004177
:1020E00043F1000300F0004043EA00007047F9D3D9
:1020F0005708D0E746EA06464FEA164613F1400F66
:102100001FDD13F1200FDFBF16430A4600212033E5
:102110005B42BED0C3F1200746EA06464FEA1646A8
:1021200002FA07F746EA070622FA03F2C3F120078C
:1021300001FA07F742EA070221FA03F14FF0000320
:10214000A7E746EA020646EA06464FEA164646EA88
:102150000106BCBF46EA0646360C4FF000034FF0BE
:1021600000024FF0000194E72DE9804C70B49A46CC
:10217000934691E8380007C831EA400C48BF34EA7A
:10218000430C03D5FFF7E6FDFFF780FFF0BCBDE889
:10219000008C2DE9804C70B49A46934691E8380043
:1021A00007C810F0804F08BF13F0804F03D100F034
:1021B00005F8FFF76BFFF0BCBDE8008C20F07F470F
:1021C00023F07F4C80EA030000F0004007EB0C0393
:1021D000A3F57C53A3F1FE0392F0000F00F0B3804F
:1021E00095F0000F00F077802DE901494FEA11408A
:1021F00021EA00484FEA144624EA064700FB06FCA1
:1022000008FB06F607FB08F818EB06484CEB164CE3
:1022100000FB07F718EB07484CEB17404FEA124B4F
:1022200022EA0B4E4FEA154625EA06470BFB06FC51
:102230000EFB06F607FB0EFE1EEB064E4CEB164C95
:102240000BFB07F71EEB074E4CEB174B18EB0B087D
:1022500040F1000018EB0E0B58EB000840F10000B5
:102260008F1A4FF000014FF000063CBFC943661BB8
:1022700014BFB5EB040C00213CBFC943F61B4FEA69
:10228000174427EA04454FEA1C472CEA074C04FB95
:10229000076205FB07F70CFB05F616EB074642EB5A
:1022A000174204FB0CFC16EB0C4642EB1C421BEBEA
:1022B000060658EB020241414EEA8E0E46EA9E06A1
:1022C00001D5BDE80189B619524141EB0101A3F1E5
:1022D0000103BDE801894FEA144524EA05464FEAA7
:1022E000114721EA074C05FB07F406FB07F70CFB37
:1022F00006F111EB074144EB174405FB0CFC11EB15
:102300000C4144EB1C444FEA124722EA074C05FB00
:1023100007F206FB07F70CFB06F616EB074642EB47
:10232000174205FB0CFC16EB0C4642EB1C456A18E9
:1023300054F1000148BF7047B619524141EB010109
:10234000A3F10103704795F0000F37D04FEA114217
:1023500021EA02464FEA144724EA074C02FB07F140
:1023600006FB07F70CFB06F414EB074441EB17419F
:1023700002FB0CFC14EB0C4441EB1C414FEA1547EB
:1023800025EA074C02FB07F506FB07F70CFB06F6F0
:1023900016EB074645EB174502FB0CFC16EB0C460B
:1023A00045EB1C42121951F1000148BF7047B619A4
:1023B000524141EB0101A3F1010370474FEA14457B
:1023C00024EA05464FEA114721EA074C05FB07F1CD
:1023D00006FB07F70CFB06F212EB074241EB174135
:1023E00005FB0CFC12EB0C4251EB1C414FF00006BC
:1023F00048BF7047921841EB0101A3F101037047F8
:10240000490050EAC12018BF04204A0D18BF40F00F
:10241000010040F2FF72B2EB515F08BF40F00200D2
:10242000012808BF0520704730380A2801D2012052
:10243000704700207047000010B500290AD00878C6
:10244000002807D005487844FEF74CFF002801D04B
:10245000002010BD0248784410BD0000DA090000D9
:10246000D209000010B500290AD00878002807D04A
:1024700005487844FEF736FF002801D0002010BD43
:102480000248784410BD0000CA090000C2090000DB
:1024900010B591EA030F48BF83F0004300F1448375
:1024A000841A71EB030C05D2121943EB0C03001BC9
:1024B00061EB0C014FEA1154A4EB135CDFF81CE153
:1024C0001EEA430F18BF9EEA445F73D021EA04510D
:1024D00023EA0E0343F48013DCF1200E32D322FAF8
:1024E0000CFE10EB0E0023FA0CFE41EB0E01CCF1BA
:1024F000200E03FA0EFE10EB0E00CCF1200E51F16F
:102500000001B1F5801F32D201EB045112FA0EF234
:10251000BDE8104058BF7047401C38BF5FEA420218
:1025200018BF7047002814BF20F0010041F10001DE
:102530004FEA410313F5001F38BF7047A1F1C041B6
:1025400000F0E4BA012A43EB0302ACF1200CDCF109
:102550001F0E32BF4FF0000E23FA0CF310EB0300F6
:1025600041EB0451B4EB115FD0D0A1EB045101F564
:102570008011490801EB04515FEA30000ED350F19D
:10258000000038BF12FA0EFE08D1BDE81040C9E7BE
:10259000401C38BF5FEA4202CAD1C3E7BDE8104021
:1025A0004FEA410313F5001F38BF7047A1F1C04146
:1025B00000F0ACBA9EEA445F08D011EA5E0FBDE8B5
:1025C000104004BF01F0004100207047BDE81040FA
:1025D00070B500F04DFA00BF64FBBE3E0000E0FFA6
:1025E0002DE9C04130B4DFF8A0C23CEA111418BF95
:1025F0003CEA131400F0EC801CEA111481EA030594
:1026000044EAD57418BF1CEA131500F0C780A4EB88
:10261000050404F17F7404F500344FF0004545EAE9
:10262000C12145EAC32341EA505143EA52534FEADC
:10263000C0204FEAC222994208BF904200F09C801D
:102640004FEA13650FF24016765D4FEA134506FB1D
:1026500005F7C7F1807706FB07F74FEAD737A7FBE7
:1026600003687642A7FB06CEC8F5803838BFA8F1CC
:10267000010807FB08E6A6FB028C4FF0000EE6FB04
:1026800003CEDCF1000CCEF1004E38BFAEF1010EEE
:10269000A6FB0C584FF00007E6FB0E87A1FB08C60F
:1026A000A0FB07CE16EB0E064FF0000545F1000526
:1026B000E1FB076515F1E04E7EBFA4F580345FEACB
:1026C00046066D4116F1800745F100054FEA1727D0
:1026D00047EA05674FEA15254FEA0666A6F1DE468A
:1026E000B6F1805F1FD9384605EBC47124F0010CA8
:1026F00001EB0C11BCF1FE6F02D8F0BCBDE800810B
:1027000024425CBF01F5801E9EEAC47F02D4F0BC67
:10271000BDE80081244238D4A1F1C041F0BCBDE83D
:10272000004100F0F3B94FEAD02040EA41504FEAAF
:10273000D1214FEAD22242EA43524FEAD323A7FBE8
:10274000028607FB036605FB02661EEA0E0F58BFF2
:10275000A6EB0056B6EB00564FEA520E4EEAC37E89
:1027600018EB0E0E56EB530EBDD518EB02085E416A
:102770007F1C55F10005B6E74FF480154FF00007B8
:102780004FF000064FF00008ADE701F1C04101F045
:1027900000414FF00000F0BCBDE800810CEA1315C9
:1027A00011EA0C1F00D00CE013EA0C1F00F025808A
:1027B0004FF0000081EA030101F00041F0BCBDE8E8
:1027C0000081F0BCBDE8004181EA030100F09EB940
:1027D000F0BCBDE8004170B500F04AF9097EFC3E4E
:1027E00000F007B84FF0000081EA030101F000415A
:1027F000704781EA030100F089B9F0BCBDE80041EF
:1028000022494FF000007047FFFDFBF9F7F5F4F2A5
:10281000F0EEEDEBE9E8E6E4E3E1E0DEDDDBDAD87B
:10282000D7D5D4D3D1D0CFCDCCCBCAC8C7C6C5C4D9
:10283000C2C1C0BFBEBDBCBBBAB9B8B7B6B5B4B3F0
:10284000B2B1B0AFAEADACABAAA9A8A8A7A6A5A4DB
:10285000A3A3A2A1A09F9F9E9D9C9C9B9A9999989F
:102860009797969595949393929191908F8F8E8E42
:102870008D8C8C8B8B8A89898888878786858584CF
:1028800084838382828181800000FF070000F87FBB
:102890004FEA41034FEA5353A3F58063D3F11E037C
:1028A000C8BFD3F1210C0CDD4FF0004242EAC12237
:1028B00042EA505232FA03FC8CEAE17CACEBE17064
:1028C0007047102BC4BF0020704703F5787CBCF123
:1028D000FF3F04D06FF0004282EA2100704770B5DC
:1028E00000F0C6F84992248000207047F2E710F00B
:1028F000004248BF4042B0FA80F310FA03F10AD018
:10290000C3F11D0303F5806302EB03524FEA41500C
:1029100002EBD12170474FF00000704770B5DFF82F
:1029200048C11CEA111E1EBF1CEA13159EEA0C0FBB
:1029300095EA0C0F00F06F8081EA03044EEAD47E22
:10294000AE4421EA4C1123EA4C1341F4801143F4C4
:102950008013AEF17F7EA1FB024CA0FB036536190C
:1029600055EB0C05A1FB034C4CF10003A0FB021C32
:1029700016EB0C06654153F10003094218BF46F0FF
:10298000010613F4007F0BD14FEA03314FEA053003
:1029900041EA155140EA165034036FF003020AE091
:1029A0004FEAC3214FEAC52041EA555140EA56504B
:1029B000F4026FF0020202EB2E4201EB025585EAAF
:1029C000CE710AD05FEA440C18BF24F0004450F1E5
:1029D000000041F1000120EAD47040F2FE7C624523
:1029E00000D270BDA84214BF4FF080444FF0404465
:1029F000002E08BF0024BEF1806FA8BFA1F1C04126
:102A0000BDE8704080F2828001F1C04101F00041D8
:102A10004FF0000070470CEA13159EEA0C0F18BF28
:102A200095EA0C0F06D081EA030E4FF000000EF07D
:102A3000004170BD00F01CF88900013E00F007B8AD
:102A400000F009B84FEA430C5FEA5C5C08D081EA09
:102A5000030100F05BB84FEA410C5FEA5C5CF6D121
:102A600002494FF0000070470000FF070000F87FA8
:102A70000EF1020E2EF0030E5EF8046B364205D402
:102A8000012A43EB030515F5001F12D8012841EB7D
:102A9000010C1CF5001F0CD80ED14FEAD17C0CEBB9
:102AA0004C0C0CF1020C15F5001F08BF4CEBD37C4D
:102AB00004E04FF0080C01E04FEAD37C0CEB4C052E
:102AC00026FA05F606F00706B6F1040C06D20EEB60
:102AD000860CBDE870404CF0010C6047DFE80CF05C
:102AE000090B02024FF00041A1F500214FF0000058
:102AF00070BD19461046012851EB010418BFD4F5EA
:102B0000001484BF002001F0004170BD0808A0F54A
:102B100000114FEA3101704710B591EA030F48BF29
:102B200083F000433FF5BCAC841A71EB030C07D271
:102B30008CF0004C121943EB0C03001B61EB0C01F1
:102B40004FEA1154A4EB135CDFF89CE11EEA430F3B
:102B500018BF9EEA445F00F0B08021EA045123EAE6
:102B60006E035242C3EB6E0338BF5B1EDCF1200ED6
:102B700025D322FA0CFE10EB0E0043FA0CFE41EBBB
:102B80000E01CCF1200E03FA0EFE10EB0E00CCF17C
:102B9000200E51F1000129D401EB045112FA0EF27A
:102BA000BDE8104058BF7047401C1CBFB2F1004F39
:102BB000704700280CBF491C20F00100704712EB41
:102BC000020E43EB030218BF4FF0010E4EEA420221
:102BD000ACF1200CDCF11E0E54D943FA0CFE10EBC4
:102BE0000E00CCF11E0E51F1FF31D5D50EF1010EC4
:102BF00012FA0EFE404141EB010101EB445C5FEA39
:102C00005C5C10D901EB045110EBDE7038BFBEF1F3
:102C1000004FBDE8104018BF704700280CBF491C8A
:102C200020F00100704730D24FEAD42C24F4006425
:102C300011F500111BD0B1FA81F20B3AA41AA41EAF
:102C4000D2F12003914030FA03F31943904001EB95
:102C5000CC7101EB0451002CBDE81040A8BF7047B7
:102C600001F1C04101F000414FF000007047B0FA9F
:102C700080F310FA03F100D110BDE41A173C4805A7
:102C8000C90AE4E701EB045110BD49104FEA3000D6
:102C900001EB0451BDE8104002E04FF00001704725
:102CA0004A0008BF0042F8D0B2F5001F28BF7047A5
:102CB00001F000414FF0000070479EEA445F07D0EA
:102CC00011EA5E0FBDE8104004BF002100207047EC
:102CD000BDE8104070B5FFF7CBFE00BF40DFF63E09
:102CE000104683F0004170470000E0FFFDF704BF8D
:102CF000FEF738B800000000000000003031323329
:102D0000343536373839414243444546403058001F
:102D10003031323334353637383961626364656651
:102D200040307800040000080000000000000002AD
:102D30000001000010303132333435363738396114
:102D4000626364656678700030313233343536370B
:102D50003839414243444546585000000240000083
:102D6000000000A00000000005400000000000C8B6
:102D7000000000000C4000000000409C000000002B
:102D8000194000000020BCBE0000000034400000DC
:102D9000BFC91B8E00000004B5400000504BCFD0CF
:102DA0006607E2CF010000006C4100003E8251AA9C
:102DB000DFEEA73401000000D9420000DCB5A0E23C
:102DC0003A301F97FFFFFFFFB4450000FD25A0C864
:102DD000E9A3C14FFFFFFFFFFF3F0000000000809D
:102DE00000000000FF3F0000000000800000000025
:102DF0004368616E6E656C20333A20256C660A006C
:102E0000502F0008000000200800000028010008E2
:102E1000582F000808000020A00600004401000808
:102E20001C00000043000000F8FFFFFF0C00000042
:102E30000E0000000F0000002E0000001001000036
:102E400043000000F8FFFFFF00404040404040408A
:102E5000404041414141414040404040404040406D
:102E60004040404040404040400502020202020211
:102E70000202020202020202022020202020202060
:102E80002020200202020202020290909090909074
:102E90001010101010101010101010101010101032
:102EA00010101010020202020202888888888888A6
:102EB0000808080808080808080808080808080892
:102EC000080808080202020240000000000000009A
:102ED00000000000000000000000000000000000F2
:102EE00000000000000000000000000000000000E2
:102EF00000000000000000000000000000000000D2
:102F000000000000000000000000000000000000C1
:102F100000000000000000000000000000000000B1
:102F200000000000000000000000000000000000A1
:102F30000000000000000000000000000000000091
:102F40000000000000000000000000000000000081
:082F500000A24A040000000089
:04000005080000ED02
:00000001FF
