:020000040800F2
:100000007006002089010008910100089301000892
:100010009501000897010008990100080000000000
:100020000000000000000000000000009B0100082C
:100030009D010008000000009F01000871030008F6
:10004000A3010008A3010008A3010008A301000800
:10005000A3010008A3010008A3010008A3010008F0
:10006000A3010008A3010008A3010008A3010008E0
:10007000A3010008A3010008A3010008A3010008D0
:10008000A3010008A3010008A3010008A3010008C0
:10009000A3010008A3010008A3010008A3010008B0
:1000A000A3010008A3010008A3010008A3010008A0
:1000B000A3010008A3010008A3010008A301000890
:1000C000A3010008A3010008A3010008A301000880
:1000D000A3010008A3010008A3010008A301000870
:1000E000A3010008A3010008A301000800F002F822
:1000F00000F03AF80AA090E8000C82448344AAF188
:100100000107DA4501D100F02FF8AFF2090EBAE885
:100110000F0013F0010F18BFFB1A43F0010318473B
:10012000C00B0000E00B0000103A24BF78C878C173
:10013000FAD8520724BF30C830C144BF04680C60ED
:10014000704700000023002400250026103A28BF35
:1001500078C1FBD8520728BF30C148BF0B60704739
:100160001FB51FBD10B510BD00F031F81146FFF7E7
:10017000F7FF00F08BF900F04FF803B4FFF7F2FF40
:1001800003BC00F057F800000948804709480047C1
:10019000FEE7FEE7FEE7FEE7FEE7FEE7FEE7FEE737
:1001A000FEE7FEE704480549054A064B7047000094
:1001B00095030008ED000008700000207006002084
:1001C000700200207002002070477047704775462B
:1001D00000F02CF8AE4605006946534620F00700B3
:1001E000854618B020B5FFF7DDFFBDE820404FF091
:1001F00000064FF000074FF000084FF0000BAC4630
:10020000ACE8C009ACE8C009ACE8C009ACE8C0097A
:1002100021F007018D46704710B50446AFF300800A
:100220002046BDE81040FFF7A8BF00000048704717
:100230000800002001491820ABBEFEE7260002009E
:100240007047000080B500F001F880BD83B0002049
:100250000290019041F20000C4F20200016841F4F2
:1002600080310160FFE741F20000C4F20200006843
:1002700000F400300190029801300290FFE70198ED
:1002800000210028009107D1FFE70298B0F5A06097
:1002900018BF01200090FFE70098C0070028E2D1B6
:1002A000FFE741F20000C4F202000068800300286A
:1002B00003D5FFE70120019002E000200190FFE755
:1002C0000198012850D1FFE742F20000C4F2020079
:1002D000016841F010010160016821F00301016033
:1002E000016841F00201016041F20400C4F2020021
:1002F0000168016001680160016841F4806101608A
:10030000016821F47C110160016841F4E811016089
:1003100041F20000C4F20200016841F08071016006
:10032000FFE741F20000C4F20200006880010028EB
:1003300001D4FFE7F5E741F20400C4F202000168CE
:1003400021F003010160016841F002010160FFE753
:1003500041F20400C4F20200006800F00C0008281A
:1003600001D0FFE7F4E700E0FFE703B070470000CB
:1003700040F26800C2F200000068002808D0FFE7E1
:1003800040F26800C2F20000016801390160FFE735
:100390007047000080B541F20000C4F2020001681D
:1003A00041F00101016041F20401C4F202010A6856
:1003B0000023CFF6FF031A400A6002684FF6FF736E
:1003C000CFF6F6631A400260026822F480220260CF
:1003D000086820F4FE00086041F20800C4F2020040
:1003E0004FF41F010160FFF72DFF4EF60850CEF2CB
:1003F00000004FF00061016080BD000082B0024645
:100400008DF8070000919DF9070000280AD4FFE746
:10041000009800019DF907104EF20042CEF2000252
:1004200088540BE0009800019DF8071001F00F01BF
:100430004EF61452CEF200028854FFE702B0704725
:1004400080B582B00190FFE70198411E019100281C
:1004500005D0FFE74FF47A7000F004F8F4E702B03B
:1004600080BD000081B00090009840F26801C2F2A7
:1004700000010860FFE740F26800C2F20000006877
:10048000002801D0FFE7F6E701B0704780B582B0E1
:100490000020019000F04AF9322000F0BFF8FFE799
:1004A00000200090FFE7009863280EDCFFE700982B
:1004B00000F001FB042200F009F86420FFF7C0FF00
:1004C000FFE7009801300090EDE7E9E780B594B0D0
:1004D0000B4684469646139112908DF847209DF85E
:1004E0004700013801460328109100F295801099C9
:1004F000DFE801F002264A6E1298139940F62C02AA
:10050000C4F2000212880F9010460E9100F0D3FA48
:100510000F9A0D9010460E9B0C9119460D9A0C9B4C
:1005200000F0E0FA00220023C4F2590300F03CF985
:1005300000F092FA40F63401C4F2000108806BE04A
:100540001298139940F62C02C4F2000212880B9004
:1005500010460A9100F0AFFA0B9A099010460A9BD8
:1005600008911946099A089B00F0BCFA0022002362
:10057000C4F2590300F018F900F06EFA40F63801A1
:10058000C4F20001088047E01298139940F62C024B
:10059000C4F20002128807901046069100F08BFA10
:1005A000079A05901046069B04911946059A049BEC
:1005B00000F098FA00220023C4F2590300F0F4F886
:1005C00000F04AFA40F63C01C4F20001088023E042
:1005D0001298139940F62C02C4F20002128803907C
:1005E0001046029100F067FA039A01901046029BB0
:1005F00000911946019A009B00F074FA0022002332
:10060000C4F2590300F0D0F800F026FA40F6400199
:10061000C4F200010880FFE714B080BD81B001463C
:10062000ADF8020041F21800C4F20200026842F084
:100630000902026040F60440C4F20100026842F080
:10064000B0020260026842F00B02026041F21C003C
:10065000C4F20200026842F00402026040F61C008C
:10066000C4F20000028842F4D0420280028842F0C4
:100670006802028040F60000C4F20000028842F0E6
:100680008002028040F20000C2F2000000684DF6D5
:100690008362C4F21B32A0FB0202920C40F62803D4
:1006A000C4F200031A80BDF80220002A04D1FFE73B
:1006B0000120ADF80200FFE740F20000C2F20000A6
:1006C0000068BDF8021040F62802C4F20002128849
:1006D0005143B0FBF1F040F62C01C4F20001088058
:1006E0000888400840F64001C4F20001088040F646
:1006F0002000C4F20000018841F48051018001888B
:1007000041F48071018040F61400C4F200000188B9
:1007100041F00101018040F60000C4F200000188B0
:1007200041F00101018001B07047000080B584B044
:1007300040F20000C2F2000000684DF68361C4F28E
:100740001B31A0FB0101890C03914EF21001CEF286
:10075000000100220A60039B013B4EF2140CCEF212
:10076000000CCCF800304FF0FF334FF00F0C02902C
:100770001846019161460092FFF740FE4EF21800C4
:10078000CEF20000009901600198026842F0040274
:100790000260026842F002020260026842F0010256
:1007A000026004B080BD00002DE9C04130B4DFF824
:1007B000A0C23CEA111418BF3CEA131400F0EC800C
:1007C0001CEA111481EA030544EAD57418BF1CEA37
:1007D000131500F0C780A4EB050404F17F7404F541
:1007E00000344FF0004545EAC12145EAC32341EA00
:1007F000505143EA52534FEAC0204FEAC222994275
:1008000008BF904200F09C804FEA13650FF240163B
:10081000765D4FEA134506FB05F7C7F1807706FBC7
:1008200007F74FEAD737A7FB03687642A7FB06CE48
:10083000C8F5803838BFA8F1010807FB08E6A6FB19
:10084000028C4FF0000EE6FB03CEDCF1000CCEF183
:10085000004E38BFAEF1010EA6FB0C584FF000075A
:10086000E6FB0E87A1FB08C6A0FB07CE16EB0E0623
:100870004FF0000545F10005E1FB076515F1E04E7D
:100880007EBFA4F580345FEA46066D4116F180070D
:1008900045F100054FEA172747EA05674FEA152596
:1008A0004FEA0666A6F1DE46B6F1805F1FD93846EC
:1008B00005EBC47124F0010C01EB0C11BCF1FE6FCF
:1008C00002D8F0BCBDE8008124425CBF01F5801E67
:1008D0009EEAC47F02D4F0BCBDE80081244238D433
:1008E000A1F1C041F0BCBDE8004100F0F3B94FEA0E
:1008F000D02040EA41504FEAD1214FEAD22242EAC9
:1009000043524FEAD323A7FB028607FB036605FB8E
:1009100002661EEA0E0F58BFA6EB0056B6EB005655
:100920004FEA520E4EEAC37E18EB0E0E56EB530EF4
:10093000BDD518EB02085E417F1C55F10005B6E7F6
:100940004FF480154FF000074FF000064FF00008FD
:10095000ADE701F1C04101F000414FF00000F0BCF3
:10096000BDE800810CEA131511EA0C1F00D00CE061
:1009700013EA0C1F00F025804FF0000081EA03010C
:1009800001F00041F0BCBDE80081F0BCBDE80041D1
:1009900081EA030100F09EB9F0BCBDE8004170B5EA
:1009A00000F04AF9097EFC3E00F007B84FF0000065
:1009B00081EA030101F00041704781EA030100F080
:1009C00089B9F0BCBDE8004122494FF000007047F2
:1009D000FFFDFBF9F7F5F4F2F0EEEDEBE9E8E6E404
:1009E000E3E1E0DEDDDBDAD8D7D5D4D3D1D0CFCD8B
:1009F000CCCBCAC8C7C6C5C4C2C1C0BFBEBDBCBBC4
:100A0000BAB9B8B7B6B5B4B3B2B1B0AFAEADACABBE
:100A1000AAA9A8A8A7A6A5A4A3A3A2A1A09F9F9E98
:100A20009D9C9C9B9A99999897979695959493934A
:100A3000929191908F8F8E8E8D8C8C8B8B8A8989E1
:100A40008888878786858584848383828281818064
:100A50000000FF070000F87F4FEA41034FEA5353BD
:100A6000A3F58063D3F11E03C8BFD3F1210C0CDDC5
:100A70004FF0004242EAC12242EA505232FA03FCED
:100A80008CEAE17CACEBE1707047102BC4BF002016
:100A9000704703F5787CBCF1FF3F04D06FF0004253
:100AA00082EA2100704770B500F0C6F849922480B0
:100AB00000207047F2E710F0004248BF4042B0FA11
:100AC00080F310FA03F10AD0C3F11D0303F580632C
:100AD00002EB03524FEA415002EBD12170474FF035
:100AE0000000704770B5DFF848C11CEA111E1EBF38
:100AF0001CEA13159EEA0C0F95EA0C0F00F06F80AC
:100B000081EA03044EEAD47EAE4421EA4C1123EA82
:100B10004C1341F4801143F48013AEF17F7EA1FBAE
:100B2000024CA0FB0365361955EB0C05A1FB034CE9
:100B30004CF10003A0FB021C16EB0C06654153F1BF
:100B40000003094218BF46F0010613F4007F0BD1E1
:100B50004FEA03314FEA053041EA155140EA165099
:100B600034036FF003020AE04FEAC3214FEAC520C5
:100B700041EA555140EA5650F4026FF0020202EB8E
:100B80002E4201EB025585EACE710AD05FEA440C91
:100B900018BF24F0004450F1000041F1000120EAA8
:100BA000D47040F2FE7C624500D270BDA84214BFF2
:100BB0004FF080444FF04044002E08BF0024BEF1A7
:100BC000806FA8BFA1F1C041BDE8704080F2828073
:100BD00001F1C04101F000414FF0000070470CEA04
:100BE00013159EEA0C0F18BF95EA0C0F06D081EA88
:100BF000030E4FF000000EF0004170BD00F01CF835
:100C00008900013E00F007B800F009B84FEA430C34
:100C10005FEA5C5C08D081EA030100F05BB84FEA50
:100C2000410C5FEA5C5CF6D102494FF0000070476E
:100C30000000FF070000F87F0EF1020E2EF0030EF9
:100C40005EF8046B364205D4012A43EB030515F523
:100C5000001F12D8012841EB010C1CF5001F0CD815
:100C60000ED14FEAD17C0CEB4C0C0CF1020C15F5BB
:100C7000001F08BF4CEBD37C04E04FF0080C01E0F0
:100C80004FEAD37C0CEB4C0526FA05F606F0070676
:100C9000B6F1040C06D20EEB860CBDE870404CF0A9
:100CA000010C6047DFE80CF0090B02024FF0004135
:100CB000A1F500214FF0000070BD19461046012833
:100CC00051EB010418BFD4F5001484BF002001F0DB
:100CD000004170BD0808A0F500114FEA31017047CE
:100CE000000D000800000020080000002801000896
:100CF000080D0008080000206806000044010008F4
:080D000000A24A0400000000FB
:04000005080000ED02
:00000001FF
