:020000040800F2
:10000000600600206D0100087501000877010008F6
:10001000790100087B0100087D0100080000000054
:100020000000000000000000000000007F01000848
:10003000810100080000000083010008850100081C
:100040008701000887010008870100088701000870
:100050008701000887010008870100088701000860
:100060008701000887010008870100088701000850
:100070008701000887010008870100088701000840
:100080008701000887010008870100088701000830
:100090008701000887010008870100088701000820
:1000A0008701000887010008870100088701000810
:1000B0008701000887010008870100088701000800
:1000C00087010008870100088701000887010008F0
:1000D00087010008870100088701000887010008E0
:1000E00087010008870100088701000800F002F876
:1000F00000F02CF80AA090E8000C82448344AAF196
:100100000107DA4501D100F021F8AFF2090EBAE893
:100110000F0013F0010F18BFFB1A43F0010318473B
:1001200034030000440300000023002400250026BF
:10013000103A28BF78C1FBD8520728BF30C148BF4A
:100140000B6070471FB51FBD10B510BD00F031F832
:100150001146FFF7F7FF00F031F900F04FF803B454
:10016000FFF7F2FF03BC00F057F800000948804792
:1001700009480047FEE7FEE7FEE7FEE7FEE7FEE789
:10018000FEE7FEE7FEE7FEE704480549054A064BA1
:100190007047000055030008ED00000860000020D3
:1001A0006006002060020020600200207047704757
:1001B0007047754600F02CF8AE4605006946534678
:1001C00020F00700854618B020B5FFF7DDFFBDE839
:1001D00020404FF000064FF000074FF000084FF0AE
:1001E000000BAC46ACE8C009ACE8C009ACE8C009FB
:1001F000ACE8C00921F007018D46704710B50446F0
:10020000AFF300802046BDE81040FFF7A8BF000014
:10021000004870470000002001491820ABBEFEE7EF
:10022000260002007047000080B500F001F880BD94
:1002300083B000200290019041F20000C4F202005D
:10024000016841F480310160FFE741F20000C4F22F
:100250000200006800F40030019002980130029022
:10026000FFE7019800210028009107D1FFE70298DD
:10027000B0F5A06018BF01200090FFE70098C0070C
:100280000028E2D1FFE741F20000C4F2020000685A
:100290008003002803D5FFE70120019002E0002041
:1002A0000190FFE70198012850D1FFE742F20000DA
:1002B000C4F20200016841F010010160016821F000
:1002C00003010160016841F00201016041F2040094
:1002D000C4F202000168016001680160016841F434
:1002E00080610160016821F47C110160016841F4C2
:1002F000E811016041F20000C4F20200016841F01F
:1003000080710160FFE741F20000C4F20200006862
:100310008001002801D4FFE7F5E741F20400C4F2B0
:100320000200016821F003010160016841F002014F
:100330000160FFE741F20400C4F20200006800F02F
:100340000C00082801D0FFE7F4E700E0FFE703B066
:100350007047000080B541F20000C4F2020001685D
:1003600041F00101016041F20401C4F202010A6896
:100370000023CFF6FF031A400A6002684FF6FF73AE
:10038000CFF6F6631A400260026822F4802202600F
:10039000086820F4FE00086041F20800C4F2020080
:1003A0004FF41F010160FFF73FFF4EF60850CEF2F9
:1003B00000004FF00061016080BD000082B00020AD
:1003C000019041F21800C4F202000821016040F6D9
:1003D0000040C4F201003321016040F60440C4F241
:1003E00001004FF44071016040F60C40C4F201007E
:1003F00002210160FFE740F60C40C4F201000168F1
:1004000041F48061016000200090FFE700984AF20B
:100410001F11C0F20701884204DCFFE70098013099
:100420000090F3E740F60C40C4F20100016821F4AB
:100430008061016000200090FFE700984AF21F11E0
:10044000C0F20701884204DCFFE700980130009009
:10045000F3E7D0E764040008000000206006000015
:040460002801000867
:04000005080000ED02
:00000001FF
