:020000040800F2
:100000005021002089010008910100089301000897
:100010009501000897010008990100080000000000
:10002000000000000000000000000000E1080008DF
:100030009D01000800000000E1060008310A0008E8
:10004000A3010008A3010008A3010008A301000800
:10005000A3010008A301000891030008A301000800
:10006000A3010008A3010008A3010008A3010008E0
:10007000A3010008A3010008A3010008A3010008D0
:10008000A3010008A3010008A3010008A3010008C0
:10009000A3010008A3010008A3010008A3010008B0
:1000A000A3010008A3010008A3010008A3010008A0
:1000B000A3010008A3010008A3010008A301000890
:1000C000A3010008A3010008A3010008A301000880
:1000D000A3010008A3010008A3010008A301000870
:1000E000A3010008A3010008A301000800F002F822
:1000F00000F03AF80AA090E8000C82448344AAF188
:100100000107DA4501D100F02FF8AFF2090EBAE885
:100110000F0013F0010F18BFFB1A43F0010318473B
:10012000943A0000B43A0000103A24BF78C878C16D
:10013000FAD8520724BF30C830C144BF04680C60ED
:10014000704700000023002400250026103A28BF35
:1001500078C1FBD8520728BF30C148BF0B60704739
:100160001FB51FBD10B510BD00F0D7F81146FFF741
:10017000F7FF00F05BFE00F0F5F803B4FFF7F2FFC5
:1001800003BC00F0FDF8000009488047094800471B
:10019000FEE7FEE7FEE7FEE7FEE7FEE7FEE7FEE737
:1001A000FEE7FEE704480549054A064B7047000094
:1001B000710A0008ED0000085019002050210020AD
:1001C000501D0020501D0020032A40F2308010F006
:1001D000030C00F0158011F8013BBCF1020F6244E2
:1001E00098BF11F801CB00F8013B38BF11F8013B73
:1001F000A2F1040298BF00F801CB38BF00F8013B20
:1002000011F0030300F03080083AC0F0088051F884
:10021000043B083A51F804CBA0E80810F5E7121D9A
:100220005CBF51F8043B40F8043BAFF30080D207B9
:1002300024BF11F8013B11F801CB48BF11F8012B85
:1002400024BF00F8013B00F801CB48BF00F8012BA8
:10025000704702F0FF0343EA032242EA024200F041
:1002600037B870477047704710B5203AC0F00B8020
:10027000B1E81850A0E81850B1E81850A0E818509C
:10028000203ABFF4F5AF5FEA027C24BFB1E8185012
:10029000A0E8185044BF18C918C0BDE810405FEA74
:1002A000827C24BF51F8043B40F8043B08BF7047F0
:1002B000D20728BF31F8023B48BF11F8012B28BFF5
:1002C00020F8023B48BF00F8012B70474FF00002B6
:1002D00000B5134694469646203922BFA0E80C503C
:1002E000A0E80C50B1F12001BFF4F7AF090728BF17
:1002F000A0E80C5048BF0CC05DF804EB890028BF93
:1003000040F8042B08BF704748BF20F8022B11F0BB
:10031000804F18BF00F8012B7047754600F02CF88D
:10032000AE4605006946534620F00700854618B0E2
:1003300020B5FFF737FFBDE820404FF000064FF033
:1003400000074FF000084FF0000BAC46ACE8C009C6
:10035000ACE8C009ACE8C009ACE8C00921F007016D
:100360008D46704710B50446AFF300802046BDE8C7
:100370001040FFF702BF000000487047080000204F
:1003800001491820ABBEFEE72600020070470000BE
:1003900080B5012000F004F800F0A2FC80BD000050
:1003A00081B00090009840F21441C4F2010108604D
:1003B00001B0704782B001900020009040F20040F0
:1003C000C4F2010000900198807900285DD0FFE719
:1003D0000198006840F20041C4F201010A6822EA73
:1003E000000008600198006840F20441C4F2010175
:1003F0000A6822EA00000860019800790099084420
:1004000000900198006800990A68104308600198FC
:10041000006840F20841C4F201010A6822EA0000C3
:1004200008600198006840F20C41C4F201010A68BA
:1004300022EA0000086001984079102813D1FFE7F4
:100440000198006840F20841C4F201010A681043B3
:1004500008600198006840F20C41C4F201010A688A
:100460001043086010E040F20040C4F20100009028
:10047000019840790099084400900198006800991B
:100480000A6810430860FFE70CE0019800790099C2
:10049000084400900198006800990A6822EA000068
:1004A0000860FFE702B0704780B582B00A46034695
:1004B0008DF807008DF80610002000909DF80600CA
:1004C00000F0030080000F2101FA00F00090009876
:1004D0009DF8061001F0FC0140F2080CC4F2010C7A
:1004E00051F80CE02EEA000041F80C009DF80700DE
:1004F0009DF8061001F0030E4FEA8E0E00FA0EF082
:1005000001F0FC0151F80CE040EA0E0041F80C004B
:1005100002B080BD88B0079006910020059004903D
:1005200003900290019000900698C07800F00F00B0
:1005300005900698C078C006002806D5FFE7069803
:100540008078059908430590FFE706980078002811
:100550004FD0FFE707980068019000200390FFE765
:100560000398072841D8FFE70398012101FA00F01A
:100570000290069800880299084004900498029915
:1005800088422DD1FFE703988000029002980F2146
:1005900001FA00F000900098019921EA0000019012
:1005A0000598029988400199084301900698C078FF
:1005B000282807D1FFE70398012101FA00F00799E5
:1005C00048610CE00698C078482807D1FFE70398F7
:1005D000012101FA00F007990861FFE7FFE7FFE753
:1005E000FFE7039801300390BAE701980799086084
:1005F000FFE706980088B0F5807F51DBFFE707989A
:100600004068019000200390FFE70398072843D833
:10061000FFE703980830012101FA00F002900698E4
:1006200000880299084004900498029988422ED1CB
:10063000FFE703988000029002980F2101FA00F072
:1006400000900098019921EA000001900598029914
:1006500088400199084301900698C078282808D15D
:10066000FFE703980830012101FA00F0079948617B
:10067000FFE70698C078482808D1FFE703980830BC
:10068000012101FA00F007990861FFE7FFE7FFE7A2
:10069000039801300390B8E7019807994860FFE795
:1006A00008B0704782B013468C460190ADF8021036
:1006B0008DF801209DF80100002805D0FFE7BDF866
:1006C00002000199086104E0BDF802000199486147
:1006D000FFE702B0704700000000000000000000CB
:1006E000EFF30980BFF36F8F0D4B1A6820E9F00F0D
:1006F00010602DE908404FF0500080F3118802F09F
:1007000081F94FF0000080F31188BDE808401968B6
:100710000868B0E8F00F80F30988BFF36F8F704767
:100720007000002082B00A4601908DF803109DF8F9
:100730000300002809D0FFE7019841F21801C4F234
:1007400002010A681043086009E0019841F21801AB
:10075000C4F202010A6822EA00000860FFE702B062
:100760007047000086B0059000200490039002902E
:10077000019041F20400C4F20200006800F00C0095
:10078000049004980028009008D0FFE700980428FF
:100790000BD0FFE7009808280ED048E0059841F2FA
:1007A0000021C0F27A01016048E0059841F2002181
:1007B000C0F27A01016041E041F20400C4F202009B
:1007C000016801F470110391006800F48030029018
:1007D0000398022101EB904003900298002809D170
:1007E000FFE7039840F60011C0F23D014843059928
:1007F00008601BE041F20400C4F2020000688003BC
:10080000002809D5FFE7039840F60011C0F23D012A
:1008100048430599086008E0039841F20021C0F2BE
:100820007A01484305990860FFE7FFE706E005986D
:1008300041F20021C0F27A010160FFE741F20400B9
:10084000C4F20200016801F0F00104910499090961
:100850000491049943F68E32C0F60002515C019176
:1008600005990B68DDF804C023FA0CF34B600168AE
:1008700001F4E06104910499090A04910499515C1E
:10088000019105994B68DDF804C023FA0CF38B60E5
:10089000016801F4605104910499C90A0491049912
:1008A000515C019105994A68019BDA40CA60006871
:1008B00000F4404004900498800B0490049843F6A0
:1008C0008A31C0F60001085C01900598C168019A60
:1008D000B1FBF2F1016106B07047000000000000BA
:1008E000074B19680868B0E8F00F80F30988BFF378
:1008F0006F8F4FF0000080F311884EF00D0E70479F
:100900007000002080B500F001F880BD83B00020A9
:100910000290019041F20000C4F20200016841F42B
:1009200080310160FFE741F20000C4F2020000687C
:1009300000F400300190029801300290FFE7019826
:1009400000210028009107D1FFE70298B0F5A060D0
:1009500018BF01200090FFE70098C0070028E2D1EF
:10096000FFE741F20000C4F20200006880030028A3
:1009700003D5FFE70120019002E000200190FFE78E
:100980000198012850D1FFE742F20000C4F20200B2
:10099000016841F010010160016821F0030101606C
:1009A000016841F00201016041F20400C4F202005A
:1009B0000168016001680160016841F480610160C3
:1009C000016821F47C110160016841F4E8110160C3
:1009D00041F20000C4F20200016841F08071016040
:1009E000FFE741F20000C4F2020000688001002825
:1009F00001D4FFE7F5E741F20400C4F20200016808
:100A000021F003010160016841F002010160FFE78C
:100A100041F20400C4F20200006800F00C00082853
:100A200001D0FFE7F4E700E0FFE703B07047000004
:100A300080B582B04FF0500080F31188BFF36F8F04
:100A4000BFF34F8F009002F067FD002808D0FFE74A
:100A50004EF60450CEF200004FF080510160FFE7E7
:100A600000200190019880F3118802B080BD000041
:100A700080B541F20000C4F20200016841F00101BA
:100A8000016041F20401C4F202010A680023CFF6BA
:100A9000FF031A400A6002684FF6FF73CFF6F66351
:100AA0001A400260026822F480220260086820F482
:100AB000FE00086041F20800C4F202004FF41F017A
:100AC0000160FFF71FFF4EF60850CEF200004FF016
:100AD0000061016080BD000082B00A4601908DF87F
:100AE00003109DF80300002806D0FFE701988189D4
:100AF00041F40051818105E00198818921F4005180
:100B00008181FFE702B0704780B58CB00B900A91ED
:100B10000020099008900790069005900A98808917
:100B2000002801D0FFE7FFE70B9805900B98008A9B
:100B3000099009984CF6FF71084009900A98C088FE
:100B400009990843099009980B9908820B988089A4
:100B5000099009984EF6F311084009900A98818887
:100B6000028911434089084309990843099009986B
:100B70000B9988810B98808A099009984FF6FF415C
:100B8000084009900A9880890999084309900998B2
:100B90000B9988826846FFF7E5FD059843F600014A
:100BA000C4F20101884203D1FFE70398089002E0F4
:100BB00002980890FFE70B988089000400280AD566
:100BC000FFE70898192148430A9909684900B0FBD2
:100BD000F1F0079009E00898192148430A9909683B
:100BE0008900B0FBF1F00790FFE7079848F21F512A
:100BF000C5F2EB11A0FB01016FF00F0202EA5101F7
:100C000009910799099A1209642302FB13110691AD
:100C10000B9989890904002910D5FFE7069832212C
:100C200001EBC00048F21F51C5F2EB11A0FB01011E
:100C3000C1F34211099A114309910FE0069832213C
:100C400001EB001048F21F51C5F2EB11A0FB0101AE
:100C5000C1F34311099A11430991FFE709980B99D0
:100C600008810CB080BD000081B001468DF8030002
:100C70009DF9030000280FD4FFE79DF9030000F061
:100C80001F01012202FA01F140094EF20012CEF2D8
:100C9000000242F82010FFE701B0704782B0024620
:100CA0008DF8070000919DF9070000280AD4FFE79E
:100CB000009800019DF907104EF20042CEF20002AA
:100CC00088540BE0009800019DF8071001F00F0117
:100CD0004EF61452CEF200028854FFE702B070477D
:100CE00040F26800C2F20000017881F00101017059
:100CF0007047000082B0012001908DF8030041F69A
:100D0000F800C2F200000068002804D0FFE70020CD
:100D10008DF8030020E041F64C10C2F2000000689C
:100D2000002804D0FFE700208DF8030013E041F60F
:100D30001810C2F20000006841F66C01C2F2000116
:100D400009680139884204D1FFE702208DF80300C9
:100D500000E0FFE7FFE7FFE79DF8030002B0704700
:100D600080B588B0182001210391FFF7DBFC4FF418
:100D70000050ADF81C0010208DF81F0003208DF8E6
:100D80001E0041F20000C4F2010007A9FFF7C2FBF8
:100D90000398ADF8180048218DF81B1040F600406C
:100DA000C4F2010006A9FFF7B5FB002003990290E9
:100DB00008460299FFF778FB0398049002998DF892
:100DC00014100C228DF815208DF8160004A8FFF7DA
:100DD000F1FA062004210190FFF760FF0198FFF768
:100DE00043FF08B080BD000080B582B00190FFE7EE
:100DF00040F26800C2F20000007801280AD1FFE743
:100E000041F20000C4F201004FF400510022FFF74C
:100E100049FC09E041F20000C4F201004FF4005126
:100E20000122FFF73FFCFFE7E2E7000080B586B054
:100E300000200590049001F06DF868460499416027
:100E40000222026040F6E950C0F6000043F69E31EF
:100E5000C0F600014FF48072049B02F0E1FA0390A7
:100E600001F042FDFFE7FEE780B584B003900291F8
:100E700041F64010C2F200000068009040F270009D
:100E8000C2F200000168002281F855200068043099
:100E900001F0A6F9002812D1FFE740F27000C2F27B
:100EA00000000068C06A012101FA00F041F67C01EF
:100EB000C2F200010A6822EA0000086000E0FFE7D1
:100EC00003980130002811D1FFE7029800280DD0C7
:100ED000FFE740F27000C2F200000068011D41F619
:100EE0001810C2F2000001F0F5F93DE000980399F6
:100EF00008440190019840F27001C2F200010968B3
:100F000048600198009988420ED2FFE740F28000C5
:100F1000C2F20000006840F27001C2F200010968EC
:100F2000043101F0A1F91EE040F27800C2F20000A5
:100F3000006840F27001C2F200010968043101F05A
:100F400093F9019841F6E401C2F200010968884270
:100F500007D2FFE7019841F6E401C2F20001086000
:100F600000E0FFE7FFE7FFE704B080BD80B582B097
:100F7000019001F0CDF941F66C00C2F20000016869
:100F80000131016040F27000C2F2000000680028E8
:100F900013D1FFE7019840F27001C2F2000108602E
:100FA00041F66C00C2F200000068012803D1FFE79F
:100FB00000F04CFB00E0FFE71DE041F60C10C2F230
:100FC00000000068002814D1FFE740F27000C2F270
:100FD00000000068C06A0199C96A884207D8FFE723
:100FE000019840F27001C2F20001086000E0FFE7E2
:100FF00000E0FFE7FFE741F67800C2F20000016879
:10100000013101600068019908640198C06A0121FA
:1010100001FA00F041F67C01C2F200010A681043B7
:1010200008600198C16A01EB810140F28802C2F2B6
:10103000000202EB8101043000900846009901F0A3
:1010400049F901F091F941F60C10C2F20000006874
:10105000002819D0FFE740F27000C2F200000068DB
:10106000C06A0199C96A88420CD2FFE74EF6045063
:10107000CEF200004FF080510160BFF34F8FBFF3FD
:101080006F8F00E0FFE700E0FFE702B080BD0000E7
:1010900080B582B001F03CF941F64410C2F2000084
:1010A0000068002825D1FFE741F68000C2F2000069
:1010B000019001F0B9F841F69400C2F200000090EE
:1010C00001F0B2F840F27400C2F200000199016030
:1010D00040F28400C2F20000009A02600520102154
:1010E000002201F065FD41F64411C2F200010860E2
:1010F00000E0FFE701F038F902B080BD80B582B0B2
:10110000FFE741F67000C2F200000068002822D01C
:10111000FFE701F0FDF841F62C10C2F20000C068B4
:10112000C06801900198043001F05AF841F66C0152
:10113000C2F200010A68013A0A6041F67001C2F287
:1011400000010A68013A0A60009001F00DF9019867
:1011500000F09AF8D5E702B080BD000080B584B0F9
:10116000039002910398006C00281AD0FFE70398BF
:10117000C168026C1144C16003988168C0688842EC
:1011800004D3FFE703980168C16000E0FFE702981D
:101190000399CA68096C01911146019AFFF714F886
:1011A000FFE704B080BD000080B588B007900691CD
:1011B0000592002004900798806B03900798006CBC
:1011C000002810D1FFE707980068002809D1FFE741
:1011D0000798806802F084FA0490079800218160E3
:1011E00000E0FFE749E0059800281AD1FFE70798DB
:1011F00006994268006C02901046029AFEF7E4FFDE
:1012000007994A680B6C1A444A6007994A688968CA
:101210008A4204D3FFE707980168416000E0FFE7D6
:101220002AE007980699C268006C01901046019A5E
:10123000FEF7CAFF0799CA680B6CD21ACA600799F1
:101240000A68C968914206D2FFE707988168026C74
:10125000891AC16000E0FFE7059802280AD1FFE77C
:101260000398002804D0FFE703980138039000E0BA
:10127000FFE700E0FFE7FFE7FFE70398013007998A
:101280008863049808B080BD80B582B00190019851
:10129000006B01F091F8019801F08EF802B080BD6A
:1012A00083B0002001900120009041F67C00C2F242
:1012B00000000068022803D3FFE701200190FFE748
:1012C00040F27000C2F200000068C06A002803D03B
:1012D000FFE70020029020E040F28800C2F2000008
:1012E0000068022803D3FFE70020029014E0019871
:1012F000002803D0FFE7002002900CE041F6E40054
:10130000C2F20000006841F64011C2F20001096813
:10131000401A0290FFE7FFE7FFE7029803B070472B
:1013200082B0019040F27400C2F2000000680068D0
:10133000B0FA80F04009019908600198006800281F
:1013400009D1FFE740F27400C2F200000068C068F3
:101350000068009002E000200090FFE7009802B0D3
:101360007047000084B041F27070009040F2EC00D1
:10137000C2F2000001909DF804004007002811D03F
:10138000FFE7019807300190019820F007000190D5
:10139000019840F2EC01C2F20001009A081A1044D0
:1013A0000090FFE701980290029841F61011C2F2F6
:1013B00000010860002048600299009A11440191E0
:1013C000019908390191019921F0070101910199D1
:1013D00040F27C02C2F2000211601168486011689C
:1013E00008600298039001980399401A48601068B9
:1013F000039908600398406841F6E001C2F20001D9
:1014000008600398406841F6D401C2F20001086008
:1014100041F6A800C2F200004FF00041016004B0A4
:101420007047000080B584B00290FFE7FFF766FECA
:1014300040F28800C2F20000006802280CD3FFE7E7
:101440004EF60450CEF200004FF080510160BFF321
:101450004F8FBFF36F8F00E0FFE7FFF721FF019091
:101460000198022829D3FFE701F0C4FA41F6E4000D
:10147000C2F20000006841F64011C2F200010968A2
:1014800088420BD2FFE74FF0500080F31188BFF382
:101490006F8FBFF34F8F0390FFE7FEE7FFF700FF6B
:1014A00001900198022804D3FFE7019801F034F875
:1014B00000E0FFE702F010FA00E0FFE7B6E7000007
:1014C00080B584B0DDF818C09E4603900291019269
:1014D0008DF803300298002803D1FFE706980060DA
:1014E00003E0019806990860FFE703980699C8632E
:1014F0000298069908640698012101F093FB9DF873
:101500000310069A82F85010069900228A6404B0EB
:1015100080BD0000B0B58CB0DDF84CC0DDF848E00F
:10152000119C109D0A900991089207931298006BE4
:1015300008998900A522CDF810C0CDF80CE00294DE
:101540000195FEF786FE1298006B089900EB81006A
:1015500004380690069820F0070006909DF81800C1
:10156000400700280BD0FFE74FF0500080F31188B0
:10157000BFF36F8FBFF34F8F0B90FFE7FEE7099824
:10158000002820D0FFE700200590FFE705980928F4
:1015900014D8FFE709980599405C129A114481F824
:1015A000340009980599405C002801D1FFE705E067
:1015B000FFE7FFE7059801300590E7E71298002163
:1015C00080F83D1004E01298002180F83410FFE705
:1015D0001098052803D3FFE70420109000E0FFE7F0
:1015E00010981299C8621098129988641298002174
:1015F000C16412980430009100F02EFE1298183049
:1016000000F02AFE129800611098C0F105001299AE
:10161000886112984062129800990165129880F8CA
:101620005410129880F8551006980A99079A00F0FD
:1016300075FD129908601198002804D0FFE71298F0
:101640001199086000E0FFE70CB0B0BD80B584B030
:1016500000200390FFE70398042810D8FFE70398C1
:1016600000EB800040F28801C2F2000101EB800033
:1016700000F0DAFDFFE7039801300390EBE741F655
:10168000AC00C2F20000029000F0CEFD41F6C000B6
:10169000C2F20000019000F0C7FD41F6F800C2F26E
:1016A000000000F0C1FD41F62C10C2F2000000F075
:1016B000BBFD41F61810C2F2000000F0B5FD40F28B
:1016C0007800C2F200000299016040F28000C2F28C
:1016D0000000019A026004B080BD000083B0029057
:1016E00041F61010C2F200000190FFE70198006877
:1016F0000299884205D2FFE7FFE701980068019050
:10170000F4E701980090009801994968084402990B
:10171000884209D1FFE70298406801994A6810445D
:1017200048600198029000E0FFE70298009000985E
:1017300002994968084401990968884220D1FFE765
:101740000198006840F27C01C2F2000109688842F9
:101750000DD0FFE701980068406802994A6810447C
:1017600048600198006800680299086007E040F24C
:101770007C00C2F20000006802990860FFE704E004
:101780000198006802990860FFE701980299884271
:1017900004D0FFE702980199086000E0FFE703B07A
:1017A0007047000080B586B00590049103920293C3
:1017B00000200190049805994860059800610498FC
:1017C0000399884216D8FFE703980299401A0599B1
:1017D0008969884203D3FFE70120019009E040F2C4
:1017E0008400C2F2000000680599043100F03CFD5D
:1017F000FFE717E003980299884208D2FFE70498B0
:101800000299884203D3FFE70120019009E040F2EA
:101810007400C2F2000000680599043100F024FD54
:10182000FFE7FFE7019806B080BD000080B582B0F9
:10183000019000F06DFD0198806B002803D1FFE757
:101840000120009002E000200090FFE700F08CFDF6
:10185000009802B080BD000080B582B0019000F019
:1018600057FD0198806B0199C96B884203D1FFE74E
:101870000120009002E000200090FFE700F074FDDE
:10188000009802B080BD000080B586B00390039838
:10189000806C029000200190029800280BD1FFE795
:1018A0004FF0500080F31188BFF36F8FBFF34F8F5D
:1018B0000490FFE7FEE70298806B0299C96B8842AB
:1018C0000BD3FFE74FF0500080F31188BFF36F8F09
:1018D000BFF34F8F0590FFE7FEE70298806B0299F8
:1018E000C96B88422CD2FFE7029890F845008DF82A
:1018F0000300029803A90022FFF756FC01909DF90E
:1019000003000130002813D1FFE70298406A002845
:101910000CD0FFE70298243001F076FF002803D0B6
:10192000FFE70120019000E0FFE700E0FFE706E0AD
:101930009DF803000130029981F84500FFE700E0BF
:10194000FFE7019806B080BD06480068006880F394
:10195000088862B661B6BFF34F8FBFF36F8F00DFA9
:1019600000BF00BF08ED00E080B588B0069005918B
:1019700040F27400C2F200000068C068C0680390C2
:101980000398043000F02CFC039991F828104907C3
:10199000002929D5FFE70398069982690A44059B27
:1019A000029111461A46029BFFF7FCFE002819D04F
:1019B000FFE70398069A694600230B60194602F078
:1019C00089F80490049800280BD1FFE74FF05000ED
:1019D00080F31188BFF36F8FBFF34F8F0790FFE73E
:1019E000FEE700E0FFE707E0039890F8281001F019
:1019F000FE0180F82810FFE70398016A884708B0C5
:101A000080BD000080B592B0FFE741F64410C2F2FD
:101A1000000000680BA9002201F082FB002800F002
:101A2000CA80FFE70B98B0F1FF3F1EDCFFE70BA871
:101A300004300690069800280BD1FFE74FF05000C5
:101A400080F31188BFF36F8FBFF34F8F0F90FFE7C5
:101A5000FEE7069801684268806805901046059A7E
:101A600004911146049B984700E0FFE70B9800287B
:101A700000F1A080FFE70D980A900A9840690028BD
:101A800005D0FFE70A98043000F0AAFB00E0FFE76A
:101A900009A800F00BF907900B980928039000F2B1
:101AA00087800399DFE801F0050505434B700505C4
:101AB000434B0A9890F8281041F0010180F8281053
:101AC0000A980C9982690A44079B029111461A46AA
:101AD000029BFFF767FE002827D0FFE70A98016AFC
:101AE00088470A9890F82800400700281BD5FFE790
:101AF0000A980C9982690A44694600230B601946CA
:101B000001F0E8FF0890089800280BD1FFE74FF09C
:101B1000500080F31188BFF36F8FBFF34F8F109089
:101B2000FFE7FEE700E0FFE700E0FFE741E00A989B
:101B300090F8281001F0FE0180F8281039E00A988A
:101B400090F8281041F0010180F828100C980A99AB
:101B500088610A98806900280BD1FFE74FF0500098
:101B600080F31188BFF36F8FBFF34F8F1190FFE7A2
:101B7000FEE70A98079982690A4401911146019A81
:101B8000019BFFF70FFE14E00A9890F828008007E9
:101B9000002804D4FFE70A9800F00EFC07E00A983A
:101BA00090F8281001F0FE0180F82810FFE700E00F
:101BB000FFE7FFE729E712B080BD000080B586B0DF
:101BC0000590049100F016FF02A800F06FF8039052
:101BD0000298002841D1FFE7049800280FD1FFE7C1
:101BE0000598039988420AD8FFE701F075FE059928
:101BF000039A019008461146FFF7B6FE2CE00498C0
:101C000000280BD0FFE740F28400C2F20000006819
:101C10000068B0FA80F040090490FFE741F64410F4
:101C2000C2F2000000680599039A891A049A00F02C
:101C3000BDFD01F051FE00280CD1FFE74EF6045027
:101C4000CEF200004FF080510160BFF34F8FBFF321
:101C50006F8F00E0FFE7FFE702E001F03DFEFFE7E6
:101C600006B080BD81B040F27800C2F2000000688A
:101C70000068002808D1FFE741F6E400C2F2000046
:101C80004FF0FF3101600FE040F27800C2F2000037
:101C90000068C068C06800900098406841F6E401A0
:101CA000C2F200010860FFE701B0704780B582B062
:101CB000019001F027FC0090009840F26C01C2F204
:101CC00000010968884206D2FFE700F011F8019888
:101CD0000121016003E0019800210160FFE7009805
:101CE00040F26C01C2F200010860009802B080BDB1
:101CF00080B588B0FFE740F27400C2F200000068CF
:101D00000068002851D0FFE740F27400C2F20000E2
:101D10000168C968096806910068C068C0680390D6
:101D20000398043000F05CFA03990A6A01900846AF
:101D30009047039890F828004007002833D5FFE724
:101D40000698039989690844059005980699884280
:101D50000FD9FFE70598039948600398006140F2A6
:101D60007400C2F2000000680399043100F07CFAAC
:101D700018E00398069A694600230B60194601F0A3
:101D8000A9FE0290029800280BD1FFE74FF0500007
:101D900080F31188BFF36F8FBFF34F8F0790FFE77A
:101DA000FEE7FFE700E0FFE7A5E740F27400C2F2BC
:101DB00000000168049140F28401C2F200010A6847
:101DC00002600498086008B080BD000083B0002065
:101DD000009040F20400C2F20000006801300028C8
:101DE0000BD0FFE74FF0500080F31188BFF36F8FE7
:101DF000BFF34F8F0190FFE7FEE74FF0500080F3F5
:101E00001188BFF36F8FBFF34F8F0290FFE70098E9
:101E1000002801D1FFE7FAE703B0704780B584B02E
:101E20000390FFE701A8FFF77BFA0290029801995F
:101E3000FFF7C4FEFFF7E6FDF4E7000080B582B0CF
:101E4000019000F065FA019890F845008DF80300C4
:101E5000FFE79DF90300012829DBFFE70198806C6B
:101E600000280BD0FFE70198FFF70EFD002803D0F4
:101E7000FFE700F0E3FC00E0FFE712E00198406AB2
:101E800000280CD0FFE70198243001F0BDFC0028A9
:101E900003D0FFE700F0D2FC00E0FFE700E006E03F
:101EA000FFE79DF8030001388DF80300D1E70198A2
:101EB000FF2180F8451000F057FA00F029FA019848
:101EC00090F844008DF80200FFE79DF90200012818
:101ED00018DBFFE701980069002811D0FFE701989F
:101EE000103001F091FC002803D0FFE700F0A6FCC1
:101EF00000E0FFE79DF8020001388DF8020000E0E5
:101F000000E0E2E70198FF2180F8441000F02CFA8D
:101F100002B080BD80B500F029F9FEF721FF80BD39
:101F200080B58AB006900020029000F063FD40F278
:101F30007C00C2F200000068002803D1FFE7FFF731
:101F400011FA00E0FFE7069841F6A801C2F200018D
:101F50000968084240F0CA80FFE70698002822D0AE
:101F6000FFE70698083006909DF818004007002803
:101F700017D0FFE7069820F00700083006909DF87C
:101F80001800400700280BD0FFE74FF0500080F307
:101F90001188BFF36F8FBFF34F8F0790FFE7FEE706
:101FA00000E0FFE700E0FFE70698002800F09C80D3
:101FB000FFE7069841F6D401C2F2000109688842A1
:101FC00000F29280FFE741F61010C2F20000049088
:101FD00000680590FFE7059840680699002288424E
:101FE000019207D2FFE705980068002818BF01207A
:101FF0000190FFE70198C007002806D0FFE7059889
:102000000490059800680590E5E7059840F27C018A
:10201000C2F200010968884264D0FFE704980068B2
:102020000830029005980068049908600598406897
:102030000699401A112822D3FFE70598069908440B
:1020400003909DF80C00400700280BD0FFE74FF0ED
:10205000500080F31188BFF36F8FBFF34F8F08904C
:10206000FFE7FEE7059840680699401A0399486023
:102070000698059948600398FFF730FB00E0FFE7FA
:102080000598406841F6D401C2F200010A68101AAE
:102090000860086841F6E001C2F200010968884260
:1020A0000BD2FFE741F6D400C2F20000006841F60F
:1020B000E001C2F20001086000E0FFE741F6A8007D
:1020C000C2F20000006805994A681043486005980C
:1020D0000021016041F6EC00C2F20000016801310C
:1020E000016000E0FFE700E0FFE700E0FFE701F04C
:1020F000F3FB9DF80810490700290BD0FFE74FF0CC
:10210000500080F31188BFF36F8FBFF34F8F09909A
:10211000FFE7FEE702980AB080BD000083B002909E
:102120000191009202980438029002984FF0807159
:102130000160029804380290019820F00100029991
:102140000860029804380290029841F6CD51C0F61A
:10215000000101600298143802900098029908600A
:10216000029820380290029803B0704780B588B07A
:1021700044F2050001210291FEF7D4FA00200790F5
:102180004FF40071ADF81C101C218DF81F100321B5
:102190008DF81E1040F60001C4F2010107AA01905B
:1021A00008461146FEF7B6F901980690059004908E
:1021B00003904FF4165103910821ADF8161043F621
:1021C0000001C4F2010103AA084600911146FEF77E
:1021D0009BFC00980299FEF77FFC08B080BD0000D0
:1021E00082B0019001980069009001984168806870
:1021F0008860019841688068416000984068019952
:10220000884205D1FFE7019880680099486000E0A6
:10221000FFE7019800210161009801680139016020
:102220000098006802B0704781B00090009800F1FB
:102230000801416000984FF0FF318160009800F183
:102240000801C160009800F10801016100980021B7
:10225000016001B07047000081B00090009800213B
:10226000016101B07047000084B0039002910298B0
:102270000068009000980130002804D1FFE703981F
:102280000069019010E0039808300190FFE7019881
:10229000406800680099884205D8FFE7FFE7019889
:1022A00040680190F3E7FFE70198406802994860B1
:1022B00002984168886001980299886002980199A3
:1022C0004860039802990861039801680131016030
:1022D00004B0704783B0029001910298406800906A
:1022E0000098019948600098806801998860019879
:1022F000009989684860019800998860029801995E
:102300000861029801680131016003B07047000064
:1023100082B04FF0500080F31188BFF36F8FBFF38E
:102320004F8F009040F20400C2F2000001680131BA
:1023300001600068012815D1FFE74EF60450CEF287
:1023400000000068000600280BD0FFE74FF05000A7
:1023500080F31188BFF36F8FBFF34F8F0190FFE7BA
:10236000FEE7FFE702B0704782B040F20400C2F21D
:102370000000006800280BD1FFE74FF0500080F309
:102380001188BFF36F8FBFF34F8F0090FFE7FEE719
:1023900040F20400C2F200000168013901600068E7
:1023A000002806D1FFE700200190019880F31188F2
:1023B000FFE702B07047000080B586B00390039835
:1023C0000290039800285FD0FFE702980838029037
:1023D000029801900198406841F6A801C2F20001FC
:1023E000096808420BD1FFE74FF0500080F31188D5
:1023F000BFF36F8FBFF34F8F0490FFE7FEE70198A5
:10240000006800280BD0FFE74FF0500080F31188E0
:10241000BFF36F8FBFF34F8F0590FFE7FEE7019883
:10242000406841F6A801C2F200010968084229D0BB
:10243000FFE701980068002822D1FFE741F6A800D5
:10244000C2F20000006801994A6822EA0000486070
:1024500000F0D0FA0198406841F6D401C2F20001C0
:102460000A68104408600198FFF738F941F6F00057
:10247000C2F2000001680131016001F02DFA00E0B4
:10248000FFE700E0FFE7FFE706B080BD80B540F260
:102490000000C2F20000016844F6D352C1F26202A9
:1024A000A1FB02139B0941F6680CC2F2000CCCF8A8
:1024B0000030DCF800306FF07F4CBCFBF3F341F6EA
:1024C000DC0CC2F2000CCCF8003041F66403C2F21E
:1024D00000034FF02D0CC3F800C04EF21003CEF2F3
:1024E00000034FF0000CC3F800C04EF2180ECEF2FD
:1024F000000ECEF800C00068A0FB02024FF0FF3CC7
:102500000CEB92124EF2140CCEF2000CCCF8002020
:1025100007221A6080BD000080B586B0059005983E
:1025200041F6DC01C2F200010968884207D9FFE7E1
:1025300041F6DC00C2F2000000680590FFE74EF2B1
:102540001000CEF20000016821F0010101604EF29E
:102550001800CEF20000006841F66801C2F20001E6
:102560000968059A013A01FB02000490049841F6BB
:102570006401C2F200010968884209D9FFE741F607
:102580006400C2F2000000680499081A0490FFE792
:1025900072B6BFF34F8FBFF36F8FFEF7ABFB002810
:1025A0001BD1FFE74EF21800CEF2000000684EF299
:1025B0001401CEF2000108604EF21000CEF20000CD
:1025C000026842F00102026041F66800C2F20000B7
:1025D00000680138086062B6A4E004984EF2140165
:1025E000CEF2000108604EF21800CEF20000002189
:1025F00001604EF21000CEF20000016841F00101CE
:102600000160059801900198002806D0FFE7BFF30C
:102610004F8F30BFBFF36F8FFFE762B6BFF34F8FAF
:10262000BFF36F8F72B6BFF34F8FBFF36F8F4EF252
:102630001000CEF20000062101600068C0030028EF
:1026400033D5FFE741F66800C2F200000068049944
:102650004EF21802CEF200021268511A08440138F4
:102660000090009841F66401C2F2000109688842B6
:1026700009D3FFE7009841F66801C2F2000109683A
:10268000884208D9FFE741F66800C2F200000068FE
:1026900001380090FFE700984EF21401CEF20001DD
:1026A00008600598013803901EE0059841F668011E
:1026B000C2F200010A6850434EF21802CEF2000244
:1026C0001268801A029002980A68B0FBF2F0039038
:1026D00003980130096848430299401A4EF21401E8
:1026E000CEF200010860FFE74EF21800CEF20000C3
:1026F000002101604EF21000CEF20000016841F0AE
:1027000001010160039800F04FF941F66800C2F240
:102710000000006801384EF21401CEF2000108609A
:1027200062B6FFE706B080BD84B0EFF3058001908C
:10273000019810281ED3FFE701984EF2F031CEF237
:102740000001405C8DF803009DF8030041F65C0138
:10275000C2F20001097888420BDAFFE74FF050001F
:1027600080F31188BFF36F8FBFF34F8F0290FFE7A5
:10277000FEE7FFE74EF60C50CEF20000006800F4D2
:10278000E06041F66001C2F20001096888420BD99D
:10279000FFE74FF0500080F31188BFF36F8FBFF356
:1027A0004F8F0390FFE7FEE704B0704780B584B019
:1027B00003900291019203980090FFF7A9FD009801
:1027C00090F944000130002805D1FFE7009800216E
:1027D00080F84410FFE7009890F945000130002888
:1027E00005D1FFE70098002180F84510FFE7FFF7CB
:1027F000BBFD0098806B002807D1FFE700982430CC
:102800000299019A00F044F800E0FFE70098FFF712
:1028100015FB04B080BD000081B0009041F6E800D7
:10282000C2F2000000680099086041F64010C2F250
:10283000000000680099486001B0704741F64C10F4
:10284000C2F20000012101607047000080B584B031
:1028500002900191029800280BD1FFE74FF0500041
:1028600080F31188BFF36F8FBFF34F8F0390FFE7A3
:10287000FEE7029840F27001C2F2000109681831C7
:10288000FFF7F2FC01980121FEF7EEFA04B080BDDB
:1028900080B584B0029001910092029800280BD17B
:1028A000FFE74FF0500080F31188BFF36F8FBFF345
:1028B0004F8F0390FFE7FEE7029840F27001C2F2EB
:1028C000000109681831FFF705FD0098002804D0C1
:1028D000FFE74FF0FF300190FFE701980099FEF706
:1028E000C3FA04B080BD000080B586B041F6D800C0
:1028F000C2F20000694648600020086041F22541AC
:10290000C0F6000143F6A732C0F600024FF4807310
:102910000290084611461A46029B00F081FD039082
:102920000398012804D1FFE701F09CF8039000E030
:10293000FFE70398012824D1FFE74FF0500080F310
:102940001188BFF36F8FBFF34F8F049041F6E400FF
:10295000C2F200004FF0FF31016041F60C10C2F2EC
:1029600000000121016041F64010C2F20000002188
:10297000016000F0A9F8002801D0FFE700E0FFE7C0
:1029800010E00398013000280BD1FFE74FF0500012
:1029900080F31188BFF36F8FBFF34F8F0590FFE770
:1029A000FEE7FFE706B080BD82B0009041F6401020
:1029B000C2F2000000680099084441F6E401C2F246
:1029C0000001096888420BD9FFE74FF0500080F3FF
:1029D0001188BFF36F8FBFF34F8F0190FFE7FEE7C2
:1029E000009841F64011C2F200010A6810440860E4
:1029F00002B0704741F67400C2F200000168013174
:102A00000160704785B041F67400C2F200000068B2
:102A1000002807D0FFE741F64C10C2F20000012168
:102A200001604EE041F64C10C2F20000002101604E
:102A300041F67C00C2F20000006803900398B0FAEF
:102A400080F08DF80B009DF80B00C0F11F00019085
:102A5000019800EB800040F28801C2F2000151F8B9
:102A6000200000280BD1FFE74FF0500080F31188C1
:102A7000BFF36F8FBFF34F8F0490FFE7FEE701981E
:102A800000EB800040F28801C2F2000101EB8000FF
:102A9000009000984168496841600098416808309A
:102AA000814205D1FFE70098416849684160FFE72E
:102AB00000984068C06840F27001C2F200010860EE
:102AC000FFE705B07047000080B586B04EF20040C9
:102AD000CEF20000039001780491FF21017000788C
:102AE0008DF80B009DF80B0000F0500041F65C01E2
:102AF000C2F20001087041F66000C2F20000072136
:102B00000160FFE79DF80B00000600280DD5FFE7E8
:102B100041F66000C2F200000168013901609DF8D1
:102B20000B0040008DF80B00ECE741F66000C2F2AC
:102B30000000006803280BD0FFE74FF0500080F33F
:102B40001188BFF36F8FBFF34F8F0590FFE7FEE74C
:102B500041F66000C2F200000168090201600168EC
:102B600001F4E061016004984EF20041CEF20001F0
:102B700008704EF62050CEF20000016841F4E001EA
:102B80000160016841F0E0410160FFF77FFC40F225
:102B90000400C2F20000002101600191FEF7D4FEA2
:102BA000FFF730FFFFF712F9019806B080BD000073
:102BB00080B588B01346069005918DF813200698CD
:102BC00000280BD1FFE74FF0500080F31188BFF3CE
:102BD0006F8FBFF34F8F0790FFE7FEE706980599C9
:102BE0004843029002985430FFF79AF903900398F3
:102BF000002812D0FFE7039801900198543001900B
:102C000006980599019A9DF81330DDF80CC0EE4640
:102C1000CEF800C0FEF754FC00E0FFE7039808B0D0
:102C200080BD000080B584B00290019102980090B0
:102C3000009800280BD1FFE74FF0500080F3118877
:102C4000BFF36F8FBFF34F8F0390FFE7FEE7FFF7F0
:102C50005FFB00980168C26B036C02FB031181608B
:102C60000098002181630098016841600098016824
:102C7000C26B036C013A02FB0311C1600098FF2193
:102C800080F84410009880F84510019800281CD165
:102C9000FFE700980069002815D0FFE70098103082
:102CA00000F0B2FD00280CD0FFE74EF60450CEF243
:102CB00000004FF080510160BFF34F8FBFF36F8F63
:102CC00000E0FFE700E0FFE708E000981030FFF7C2
:102CD000ABFA00982430FFF7A7FAFFE7FFF744FBB1
:102CE000012004B080BD000080B592B00C900B9123
:102CF0000A920993002008900C98049004980028E8
:102D00000BD1FFE74FF0500080F31188BFF36F8FB6
:102D1000BFF34F8F0E90FFE7FEE70B9800210028CE
:102D2000029107D1FFE70498006C002818BF01202A
:102D30000290FFE70298C00700280BD0FFE74FF092
:102D4000500080F31188BFF36F8FBFF34F8F0F9048
:102D5000FFE7FEE7099800210228019107D1FFE76C
:102D60000498C06B013818BF01200190FFE701985B
:102D7000C00700280BD0FFE74FF0500080F3118808
:102D8000BFF36F8FBFF34F8F1090FFE7FEE700F0A8
:102D90009BFB00210028009106D1FFE70A9800283C
:102DA00018BF01200090FFE70098C00700280BD053
:102DB000FFE74FF0500080F31188BFF36F8FBFF330
:102DC0004F8F1190FFE7FEE7FFE7FFF7A1FA0498A6
:102DD000806B0499C96B884204D3FFE709980228E5
:102DE0005ED1FFE70498806B039004980B99099AD1
:102DF000FEF7DAF907900498806C00281ED0FFE7F0
:102E00000998022805D1FFE70398002801D0FFE7C1
:102E100013E00498FEF738FD00280CD0FFE74EF6CB
:102E20000450CEF200004FF080510160BFF34F8F8D
:102E3000BFF36F8F00E0FFE7FFE72CE00498406AE4
:102E4000002815D0FFE70498243000F0DDFC0028AE
:102E50000CD0FFE74EF60450CEF200004FF0805148
:102E60000160BFF34F8FBFF36F8F00E0FFE711E00A
:102E7000079800280CD0FFE74EF60450CEF2000071
:102E80004FF080510160BFF34F8FBFF36F8F00E0B1
:102E9000FFE7FFE7FFE7FFF767FA01200D906CE01F
:102EA0000A98002805D1FFE7FFF75EFA00200D9091
:102EB00063E00898002806D1FFE705A8FFF7ACFCFF
:102EC0000120089000E0FFE7FFE7FFE7FFF74CFA7B
:102ED000FFF790FDFFF71CFA049890F944000130C9
:102EE000002805D1FFE70498002180F84410FFE78F
:102EF000049890F945000130002805D1FFE70498B7
:102F0000002180F84510FFE7FFF72EFA05A80AA96F
:102F100000F006FA002827D1FFE70498FEF79CFC92
:102F200000281AD0FFE7049810300A99FFF78EFCAA
:102F30000498FEF783FF00F0CFFC00280CD1FFE7D8
:102F40004EF60450CEF200004FF080510160BFF306
:102F50004F8FBFF36F8FFFE705E00498FEF76EFF1A
:102F600000F0BAFCFFE707E00498FEF767FF00F007
:102F7000B3FC00210D9100E027E70D9812B080BD51
:102F800080B592B00B900A91099208930B98059026
:102F9000059800280BD1FFE74FF0500080F311880F
:102FA000BFF36F8FBFF34F8F0C90FFE7FEE70A98D8
:102FB00000210028029107D1FFE70598006C002846
:102FC00018BF01200290FFE70298C00700280BD02D
:102FD000FFE74FF0500080F31188BFF36F8FBFF30E
:102FE0004F8F0D90FFE7FEE708980021022801911E
:102FF00007D1FFE70598C06B013818BF0120019089
:10300000FFE70198C00700280BD0FFE74FF0500002
:1030100080F31188BFF36F8FBFF34F8F0E90FFE7E0
:10302000FEE7FFF781FBEFF311804FF0500181F3D2
:103030001188BFF36F8FBFF34F8F10900F911098CF
:1030400006900598806B0599C96B884204D3FFE709
:103050000898022859D1FFE7059890F845008DF8A7
:1030600013000598806B039005980A99089AFEF75B
:103070009BF89DF91310013100293CD1FFE7059819
:10308000806C00281CD0FFE70898022805D1FFE7D4
:103090000398002801D0FFE711E00598FEF7F4FB44
:1030A00000280AD0FFE70998002804D0FFE7099814
:1030B0000121016000E0FFE700E0FFE7FFE719E022
:1030C0000598406A002813D0FFE70598243000F0E7
:1030D0009BFB00280AD0FFE70998002804D0FFE7EF
:1030E00009980121016000E0FFE700E0FFE700E050
:1030F000FFE7FFE706E09DF813000130059981F82E
:103100004500FFE70120079002E000200790FFE75D
:1031100006981190119880F31188079812B080BD1D
:1031200080B590B00B900A910992002008900B98FE
:103130000590059800280BD1FFE74FF0500080F371
:103140001188BFF36F8FBFF34F8F0D90FFE7FEE73E
:103150000A9800210028039107D1FFE70598006C29
:10316000002818BF01200390FFE70398C00700283C
:103170000BD0FFE74FF0500080F31188BFF36F8F43
:10318000BFF34F8F0E90FFE7FEE700F09DF900219F
:103190000028029106D1FFE70998002818BF0120F6
:1031A0000290FFE70298C00700280BD0FFE74FF01E
:1031B000500080F31188BFF36F8FBFF34F8F0F90D4
:1031C000FFE7FEE7FFE7FFF7A3F80598806B0490A1
:1031D0000498002828D0FFE705980A99FDF7BEFF5C
:1031E000049801380599886305980069002815D06E
:1031F000FFE70598103000F007FB00280CD0FFE730
:103200004EF60450CEF200004FF080510160BFF343
:103210004F8FBFF36F8F00E0FFE700E0FFE7FFF79E
:10322000A3F801200C9077E00998002805D1FFE76A
:10323000FFF79AF800200C906EE00898002806D15D
:10324000FFE706A8FFF7E8FA0120089000E0FFE793
:10325000FFE7FFE7FFF788F8FFF7CCFBFFF758F829
:10326000059890F944000130002805D1FFE7059842
:10327000002180F84410FFE7059890F945000130DF
:10328000002805D1FFE70598002180F84510FFE7E9
:10329000FFF76AF806A809A900F042F8002828D12B
:1032A000FFE70598FEF7C2FA00281BD0FFE7059854
:1032B00024300999FFF7CAFA0598FEF7BFFD00F020
:1032C0000BFB00280CD1FFE74EF60450CEF20000B5
:1032D0004FF080510160BFF34F8FBFF36F8F00E05D
:1032E000FFE705E00598FEF7A9FD00F0F5FAFFE716
:1032F00011E00598FEF7A2FD00F0EEFA05990190A5
:103300000846FEF793FA002803D0FFE700200C9050
:1033100002E0FFE7FFE756E70C9810B080BD000021
:1033200080B588B005900491059800280BD1FFE77F
:103330004FF0500080F31188BFF36F8FBFF34F8FB2
:103340000690FFE7FEE7049800280BD1FFE74FF057
:10335000500080F31188BFF36F8FBFF34F8F07903A
:10336000FFE7FEE7FEF7D4FF41F64010C2F200008F
:1033700000680290029805994968401A019040F24D
:103380007000C2F20000006890F8550000280BD0D1
:10339000FFE740F27000C2F200000068002180F8F0
:1033A00055100120039035E0049800680130002892
:1033B00003D1FFE7002003902BE041F6E800C2F2C2
:1033C0000000006805990968884209D0FFE7029863
:1033D00005994968884203D3FFE70120039017E06D
:1033E00001980499096888420BD2FFE70198049973
:1033F0000A68101A08600598FFF70EFA002003907B
:1034000005E004980021016001200390FFE7FFE739
:10341000FFE7FFE7FEF7A8FF039808B080BD0000B4
:1034200070B58EB0DDF84CC0DDF848E014460D9064
:103430000C91ADF82E200A93BDF82E008000CDF837
:1034400018C0CDF814E00494FEF76AFD07900798C1
:10345000002811D0FFE75820FEF762FD0990099877
:10346000002804D0FFE707980999086303E007984C
:10347000FEF7A2FFFFE702E000200990FFE70998AE
:1034800000281AD0FFE70D980C99BDF82E200A9B52
:10349000DDF848C0DDF84CE0099C6D460026EE6082
:1034A000AC60C5F804E0C5F800C0FEF733F8099831
:1034B000FDF75CFD0120089003E04FF0FF3008901D
:1034C000FFE708980EB070BD81B041F60C10C2F253
:1034D00000000068002803D1FFE7012000900EE003
:1034E00041F67400C2F200000068002803D1FFE733
:1034F0000220009002E000200090FFE7FFE7009824
:1035000001B0704781B041F64010C2F2000000687F
:103510000090009801B0704780B588B000200490FA
:1035200041F67400C2F200000068002840F0CD802F
:10353000FFE741F64010C2F200000168013103913B
:1035400003990160039800282CD1FFE740F278002E
:10355000C2F200000068006800280BD0FFE74FF0BF
:10356000500080F31188BFF36F8FBFF34F8F079028
:10357000FFE7FEE740F27800C2F200000168029126
:1035800040F28001C2F200010A68026002980860FD
:1035900041F6E800C2F20000016801310160FEF767
:1035A00061FB00E0FFE7039841F6E401C2F200018D
:1035B0000968884267D3FFE7FFE740F27800C2F26C
:1035C000000000680068002808D1FFE741F6E40029
:1035D000C2F200004FF0FF31016053E040F278008A
:1035E000C2F200000068C068C06806900698406893
:1035F000059003980599884207D2FFE7059841F6A0
:10360000E401C2F2000108603CE0FFE706980430E4
:10361000FEF7E6FD0699896A002905D0FFE70698BE
:103620001830FEF7DDFD00E0FFE70698C06A0121D3
:1036300001FA00F041F67C01C2F200010A68104371
:1036400008600698C16A01EB810140F28802C2F26B
:10365000000202EB81010430019008460199FEF757
:1036600039FE0698C06A40F27001C2F20001096892
:10367000C96A884203D3FFE70120049000E0FFE716
:10368000FFE79AE7FFE740F27000C2F2000000682F
:10369000C06A00EB800040F28801C2F2000151F8DC
:1036A0002000022803D3FFE70120049000E0FFE799
:1036B00041F64C10C2F200000068002803D0FFE77A
:1036C0000120049000E0FFE707E041F6F400C2F2B9
:1036D0000000016801310160FFE7049808B080BD77
:1036E00080B588B005900598049000200390059857
:1036F000002800F08580FFE7049840F27001C2F2D4
:103700000001096888420BD0FFE74FF0500080F3BA
:103710001188BFF36F8FBFF34F8F0690FFE7FEE76F
:103720000498C06C00280BD1FFE74FF0500080F3E5
:103730001188BFF36F8FBFF34F8F0790FFE7FEE74E
:103740000498C16C0139C1640498C16A806C8142DB
:1037500054D0FFE70498C06C00284DD1FFE70498CF
:103760000430FEF73DFD00281CD1FFE70498C06A35
:1037700000EB800040F28801C2F2000151F8200005
:1037800000280ED1FFE70498C06A012101FA00F079
:1037900041F67C01C2F200010A6822EA00000860DA
:1037A000FFE700E0FFE70498816CC1620498C16AFA
:1037B000C1F1050181610498C06A012101FA00F09C
:1037C00041F67C02C2F200021368184310600498AC
:1037D000C26A02EB820240F28803C2F2000303EBEA
:1037E0008202043002901046029A01911146FEF7BF
:1037F00071FD0198039000E0FFE700E0FFE700E0C3
:10380000FFE7039808B080BD80B586B004900498A7
:10381000C068C0680390039800280BD1FFE74FF001
:10382000500080F31188BFF36F8FBFF34F8F059067
:10383000FFE7FEE703981830FEF7D2FC41F674016B
:10384000C2F200010968002922D1FFE70398043081
:10385000FEF7C6FC0399C96A012202FA01F141F69A
:103860007C02C2F200021368194311600399CA6A0C
:1038700002EB820240F28803C2F2000303EB8202F1
:10388000043101901046FEF725FDFEF7EBF909E043
:10389000039800F1180141F6F800C2F20000FEF7AB
:1038A00019FDFFE70398C06A40F27001C2F20001FF
:1038B0000968C96A884208D9FFE70120029041F6E9
:1038C0004C11C2F20001086002E000200290FFE704
:1038D000029806B080BD000080B586B0002004903C
:1038E000039041F67400C2F20000006800280BD17A
:1038F000FFE74FF0500080F31188BFF36F8FBFF3E5
:103900004F8F0590FFE7FEE7FEF702FD41F67400DA
:10391000C2F200000168013901600068002840F02F
:103920009B80FFE741F66C00C2F2000000680028AF
:1039300000F09180FFE7FFE741F6F800C2F20000D7
:103940000068002840D0FFE741F6F800C2F200000E
:10395000C068C068049004981830FEF741FC0499D0
:10396000043101900846FEF73BFC0499C96A012224
:1039700002FA01F141F67C02C2F200021368194317
:1039800011600499CA6A02EB820240F28803C2F213
:10399000000303EB8202043100901046FEF79AFC0C
:1039A0000498C06A40F27001C2F200010968C96A55
:1039B000884207D3FFE741F64C10C2F20000012114
:1039C000016000E0FFE7B7E70498002803D0FFE7B5
:1039D000FEF748F9FFE741F6F400C2F20000006884
:1039E0000290029800281DD0FFE7FFE7FFF794FD43
:1039F000002807D0FFE741F64C10C2F20000012179
:103A0000016000E0FFE7029801380290FFE70298AA
:103A10000028EBD1FFE741F6F400C2F200000021DC
:103A2000016000E0FFE741F64C10C2F200000068C0
:103A300000280ED0FFE7012003904EF60450CEF28E
:103A400000004FF080510160BFF34F8FBFF36F8FC5
:103A500000E0FFE7FFE700E0FFE7FEF785FC0398E3
:103A600006B080BD80B584B000200290FDF710FB49
:103A700041F64410C2F200000068002817D0FFE7AA
:103A800041F64810C2F20000694648600220086012
:103A900041F61D60C0F6000043F6AC31C0F60001EF
:103AA0004FF400720023FFF7BBFC029000E0FFE739
:103AB000029800280BD1FFE74FF0500080F31188E7
:103AC000BFF36F8FBFF34F8F0390FFE7FEE70298BE
:103AD00004B080BD80B58CB0DDF838C00A90099183
:103AE00008920793002006900A9800280BD1FFE760
:103AF0004FF0500080F31188BFF36F8FBFF34F8FEB
:103B00000B90FFE7FEE741F64410C2F200000068A8
:103B1000002836D0FFE709980290089803900A9889
:103B20000490099805281FDCFFE7FFF7CDFC022869
:103B30000CD1FFE741F64410C2F2000000680E9A73
:103B400002A90023FFF7D0F806900CE041F64410DC
:103B5000C2F20000006802A900220192019BFFF757
:103B6000C3F80690FFE70BE041F64410C2F20000F4
:103B70000068079A02A90023FFF702FA0690FFE700
:103B800000E0FFE706980CB080BD020406080000C4
:103B900000000102030401020304060708096C6522
:103BA000642D7461736B0049444C4500546D722060
:103BB00053766300D83B0008000000200800000096
:103BC00028010008E03B0008080000204821000010
:103BD000440100080000000000A24A04AAAAAAAA00
:04000005080000ED02
:00000001FF
